:100000000C9466010C948E010C948E010C948E015C
:100010000C948E010C948E010C948E010C948E0124
:100020000C948E010C948E010C9446030C943F04A6
:100030000C948E010C948E010C948E010C948E0104
:100040000C948E010C948E010C948E010C948E01F4
:100050000C948E010C948E010C948E010C949E08CD
:100060000C948E010C948E010C948E010C948E01D4
:100070000C948E010C948E010C948E010C948E01C4
:100080000C948E010C948E010C948E010C948E01B4
:100090000C948E010C948E010C948E010C948E01A4
:1000A0000C948E010C948E010C948E014502480232
:1000B00037023B0241026902690269024C025002A6
:1000C00054025A025E02690264020000000000004D
:1000D00000002A2B280000000000000000000000A3
:1000E000000000000000000000002C9EB4A0A1A2AF
:1000F000A434A6A7A5AE362D3738271E1F202122EF
:1001000023242526B333B62EB7B89F8485868788E7
:10011000898A8B8C8D8E8F909192939495969798D7
:10012000999A9B9C9D2F3130A3AD35040506070895
:10013000090A0B0C0D0E0F101112131415161718B7
:10014000191A1B1C1DAFB1B0B5000706050401004C
:10015000080A0B0C0D0900000000240027002A00EB
:100160002D00300000000000250028002B002E008C
:100170003100000000002300260029002C002F0081
:10018000040404040403040502020202040302023C
:10019000020206060606060604040202020404041D
:1001A0000802011040804010204080408008020476
:1001B00001804020100201108010204040200000EB
:1001C000000200090F0000030401000C0000000001
:1001D00000000000000000000000000000080B000C
:1001E00002020201000904000001020200000524CD
:1001F0000010010524010101042402060524060063
:10020000010705810310004009040100020A0000F3
:1002100000070502024000000705830240000004B9
:1002200003090412010002EF020140A020B54100C1
:10023000010102030156334231304B523130333128
:1002400039565043005A656273626F61726473007D
:10025000565043616273205A4220506C756E676538
:10026000720005010905A101850305091901290B82
:1002700015002509750195205500650081020501CD
:100280000901A1001581267F0009300931093209D1
:1002900035750895048102C0C005010906A10185D4
:1002A00002050719E029E715002501750195088168
:1002B00002950175088103950675081500256505E9
:1002C00007190029658100C0E811240D11241FBE03
:1002D000CFEFDAE0DEBFCDBF23E0A4E5B1E001C09F
:1002E0001D92A134B207E1F711E0A0E0B1E0E4EB28
:1002F000F0E302C005900D92A435B107D9F711E0E3
:10030000C5E6D1E004C02197FE010E941E16C43646
:10031000D107C9F70E942A0D0C944D180C940000C7
:100320002FB7F89487708093E9009091E800892FA7
:10033000807295FF04C09091F20080E4891B2FBF6A
:100340000895615030F02091F100FC012083019666
:10035000F8CF289884E68093BC010895CF92DF926D
:10036000EF92FF920F931F93CF93DF936C017A016B
:100370008B01C0E0D0E0CE15DF0589F0D8016D918A
:100380008D01D601ED91FC910190F081E02DC60127
:100390000995892B11F47E0102C02196ECCFC7018B
:1003A000DF91CF911F910F91FF90EF90DF90CF9051
:1003B000089580917A0181110DC082E080937601C9
:1003C00084E080937701109279011092780181E0A6
:1003D00080937A0186E791E00895CF93DF931F928F
:1003E000CDB7DEB76983DC01ED91FC910280F3812A
:1003F000E02D41E050E0BE016F5F7F4F09950F9007
:10040000DF91CF91089583E08093E9008091F2001D
:10041000882319F08AE38093E800089583E00E941E
:10042000900190E00895FC018485958597FD0BC0AF
:100430009FB7F89482E08093E9008091F2009FBF1B
:1004400090E0019608959FB7F89482E08093E900C8
:100450008091F2009FBF90E0089590E0FC013197F9
:10046000EF30F105B0F5EA5AFF4F0C941E1680915B
:1004700080008F7703C0809180008F7D8093800003
:10048000089580918000877FF9CF84B58F7702C06F
:1004900084B58F7D84BD0895809190008F7707C0CB
:1004A000809190008F7D03C080919000877F809322
:1004B000900008958091C0008F7703C08091C000A4
:1004C0008F7D8093C00008958091C200877F8093C4
:1004D000C20008953FB7F894809172019091730122
:1004E000A0917401B091750126B5A89B05C02F3F5E
:1004F00019F00196A11DB11D3FBFBA2FA92F982F4A
:100500008827820F911DA11DB11DBC01CD0142E0C4
:10051000660F771F881F991F4A95D1F70895DC0150
:10052000FB0112968C91129790E0248135818217FD
:100530009307D1F491818081813A31F481E0913047
:1005400091F0933089F411C0813271F49B3021F421
:1005500082811F968C9305C09A3031F48281509627
:100560008C9381E00895089580E00895DC01FB01FB
:1005700088E4808389E4818384E482831D969C914E
:100580001D979F709F5B93831D968D919C911E97E5
:1005900024E0969587952A95E1F78F708F5B848389
:1005A00085E00895FC0182818F5BFB01808381E0FF
:1005B0000895089580E090E00895CF93DF931F920F
:1005C000CDB7DEB7FC018485958597FD05C02FEF7B
:1005D0003FEF358724870BC0CE0101960E94670C40
:1005E000019719F4898190E002C08FEF9FEF0F907F
:1005F000DF91CF9108950F931F93CF93DF931F92B5
:10060000CDB7DEB78C01FC018485958597FF0EC0C0
:10061000CE0101960E94670C019719F4298130E000
:1006200002C02FEF3FEFF80135872487F80184855A
:1006300095850F90DF91CF911F910F9108950F93A2
:100640001F93CF93DF93EC0188819981009729F064
:100650002A813B812617370788F48B016F5F7F4F14
:100660000E946517009761F0998388831B830A8332
:100670002C813D81232B11F4FC01108281E001C00B
:1006800080E0DF91CF911F910F9108951F920F92FB
:100690000FB60F9211248F939F938091E100909158
:1006A000E100937F9093E10083FF0FC01092E90077
:1006B00091E09093EB001092EC0092E39093ED00A8
:1006C0001092BD0198E09093F00082FF20C093E06B
:1006D0009093E9009091F200992319F09AE3909396
:1006E000E80090918601992339F09091860191500C
:1006F00090938601992389F19091BC01992339F057
:100700009091BC0191509093BC01992341F184FFD9
:1007100010C08091E2008E7E81608093E200809123
:10072000E1008F7E8093E100809188018E7E806160
:1007300011C080FF16C08091E2008E7E80618093A0
:10074000E2008091E1008E7E8093E100809188013B
:100750008E7E81608093880104C05D9ACDCF289AF7
:10076000D6CF9F918F910F900FBE0F901F9018952D
:100770004091840150918501209182013091830143
:1007800042175307B4F49091E8009570E1F390910B
:10079000E80092FD19C08093F1008091840190914E
:1007A000850101968F739927892B19F48EEF809319
:1007B000E8008091840190918501019690938501D4
:1007C0008093840181E0089580E00895DF92EF92A4
:1007D000FF920F931F93CF93DF93D82E8A017B0153
:1007E000E40EF51EEB01CE15DF0571F0D7FE03C058
:1007F000FE01849101C088810E94B8032196811175
:10080000F2CF8FEF9FEF01C0C801DF91CF911F9111
:100810000F91FF90EF90DF9008950F931F93CF9368
:10082000DF931F92CDB7DEB782E0898342E450E0C8
:100830006DED71E080E80E94E6030E94D901DC01C1
:1008400012960D911C9113970115110569F0D801AD
:10085000ED91FC910280F381E02DBE016F5F7F4F2F
:10086000C801099597FF07C089810F90DF91CF914B
:100870001F910F910895F80100851185E5CF1F9212
:100880000F920FB60F921124EF92FF920F931F93C6
:100890002F933F934F935F936F937F938F939F9388
:1008A000AF93BF93EF93FF93CF93DF93CDB7DEB7B3
:1008B0006C97DEBFCDBF1092E9008091E80083FF06
:1008C000E2C168E0CE0145960E94A10182EF8093CB
:1008D000E8008D8987FF05C09091E80090FFFCCF6C
:1008E00003C09EEF9093E800982F907609F0C6C061
:1008F0009E892F89188D91110CC0803829F4809120
:1009000089018093F10002C01092F1001092F10071
:1009100046C1422F50E0512B913051F481113FC11B
:100920004130510509F03BC1809189018D7F0BC099
:10093000933061F4811133C14130510509F02FC169
:100940008091890182608093890129C1953041F4A9
:100950008091E80080FFFCCF20682093E3001FC156
:10096000963009F05FC0EB8CFC8C1092E90010927D
:10097000850110928401123091F51092830110923A
:1009800082010E940D0499E0BE016F5F7F4FDB0181
:10099000E92F1D92EA95E9F799831A8391E09E83E6
:1009A00090EA98879AEF9987209184013091850188
:1009B000275F3F4F3C832B838D831092E900109279
:1009C000850110928401F0928301E092820149E056
:1009D00050E080E00E94E6030E940D04E0C0F09227
:1009E0008301E09282010E94D901DC011296ED9010
:1009F000FC901397E114F10409F4C0C0D701ED9104
:100A0000FC910480F581E02DBE016B5E7F4FC70134
:100A10000995009719F00CF0C2C0C5C0F701E08439
:100A2000F184E8CF973009F4BEC0983021F481E01A
:100A30008093F100B4C0993009F0B1C0837009F01F
:100A4000B2C0E1E0F1E081E021E036E3908199235A
:100A500061F08093E9002093EB0091919093EC007A
:100A60003093ED008F5F873089F78EE78093EA003F
:100A70001092EA008F898093BD0191C08B8D9C8D6F
:100A80001092E900109285011092840190938301E5
:100A900080938201898D811156C08E899D89913AFA
:100AA00059F4813209F07FC047E050E06BE071E01B
:100AB00080E00E94E60373C0913209F074C0833273
:100AC00089F4888D90E0982F88272F89822BA0E0C9
:100AD000B0E08093070190930801A0930901B093BF
:100AE0000A015DC0803269F48091E80082FFFCCF8A
:100AF00067E08BE091E00E94A1018BEF8093E8001A
:100B000006C0823209F04BC08F8980931201809118
:100B10008701882319F0EEEFFAE002C0E0E0F8E088
:100B200080910B0190910C01A0910D01B0910E01EB
:100B3000803B9440A105B10509F070C0809112017D
:100B400080FF88C06BC00E94D901DC0112960D9114
:100B50001C9113970115110531F1D801ED91FC910C
:100B60000190F081E02DBE016B5E7F4FC8010995B9
:100B7000811115C0F80100851185ECCF113009F401
:100B800043C0133081F48F898823D9F1823079F4FE
:100B900061E180E592E00E94EE0C882321F08EEF67
:100BA0008093E80070C081E28093EB006CC08130DC
:100BB00021F46AE085E492E0EECF8330A1F70E9451
:100BC000D901DC0112960D911C911397FE0131960B
:100BD0007F010115110579F0D801ED91FC91068096
:100BE000F781E02DB701C8010995E80EF11CF80165
:100BF00000851185EECFD7011C926FE085E392E06E
:100C0000CACF6FE172E002C063E272E06115710564
:100C100051F2FB01449150E080E84BCF0FB6F894BD
:100C2000A8958091600088618093600010926000B8
:100C30000FBEA895EE3F2AE0F20739F08091FE0A38
:100C40009091FF0A91838083AACF1092FF0A10929D
:100C5000FE0AA5CFEE3F8AE0F80731F0808191814E
:100C60009093FF0A8093FE0A87E797E7918380833A
:100C70009BE088E10FB6F894A895809360000FBEC2
:100C8000909360008CCF6C960FB6F894DEBF0FBEC9
:100C9000CDBFDF91CF91FF91EF91BF91AF919F9128
:100CA0008F917F916F915F914F913F912F911F9104
:100CB0000F91FF90EF900F900FBE0F901F9018951F
:100CC000EF92FF920F931F93CF93DF93FB0120814D
:100CD000213851F52381223239F5DC0112962C910D
:100CE00030E04481558142175307F1F4EC010B8544
:100CF0001C85E12CF12C0115110591F0F8014481BE
:100D000055816281738180E80E94E6038F3FFFEF87
:100D10009F0769F0E80EF91ED8010D911C91EBCFE9
:100D200081E08F87C70105C080E090E002C08FEFAF
:100D30009FEFDF91CF911F910F91FF90EF9008955A
:100D4000CF93DF93CDB7DEB769970FB6F894DEBFC8
:100D50000FBECDBFFC01DB018C918F5F8C93BE0178
:100D60006F5F7F4F89E1DB011D928A95E9F729E0EA
:100D7000298384E08A8391E09D8383E08E832A87A0
:100D800021E22B879C879D879F8722E2288B27E083
:100D90002B8B25E02C8B8E8B20E430E0388F2F8B33
:100DA000998F82818B8395858685998B8A8B8381A8
:100DB00080688D8B49E150E080E00E94E6036996EF
:100DC0000FB6F894DEBF0FBECDBFDF91CF9108956F
:100DD000CF93DF93282F30E0F901E254FE4F849146
:100DE000F901E156FE4FD491F901E058FE4FC4914C
:100DF000CC2391F081110E942D02EC2FF0E0EE0F38
:100E0000FF1FEE58FE4FA591B491EC91ED2381E0C8
:100E100090E021F480E002C080E090E0DF91CF918B
:100E200008951F93CF93DF93282F30E0F901E25408
:100E3000FE4F8491F901E156FE4FD491F901E0583B
:100E4000FE4FC491CC23C9F0162F81110E942D02B0
:100E5000EC2FF0E0EE0FFF1FEC59FE4FA591B4917F
:100E60008FB7F894111105C09C91ED2FE095E923FF
:100E700002C0EC91ED2BEC938FBFDF91CF911F91CE
:100E80000895CF93DF9390E0FC01E156FE4F24914B
:100E9000FC01E058FE4F8491882361F190E0880FB7
:100EA000991FFC01EA5AFE4FC591D491FC01EC59FF
:100EB000FE4FA591B491611109C09FB7F894888144
:100EC000209582238883EC912E230BC0623061F43D
:100ED0009FB7F8943881822F809583238883EC9183
:100EE0002E2B2C939FBF06C08FB7F894E8812E2B32
:100EF00028838FBFDF91CF910895823108F082510E
:100F0000E82FF0E0E65BFE4FE49180917B00E3FB8D
:100F1000222720F930E095E0220F331F9A95E1F760
:100F20008F7D282B20937B00E770E064E0937C00AA
:100F300080917A00806480937A0080917A0086FDA7
:100F4000FCCF809178002091790090E0922B089559
:100F50008F929F92AF92BF92CF92DF92EF92FF92C9
:100F60006B017C010E946A024B015C01C114D10437
:100F7000E104F104F1F00E946A02DC01CB0188195E
:100F80009909AA09BB09883E9340A105B10570F3F0
:100F900021E0C21AD108E108F10888EE880E83E04A
:100FA000981EA11CB11CC114D104E104F10419F76D
:100FB000DDCFFF90EF90DF90CF90BF90AF909F90EC
:100FC0008F9008957F928F929F92AF92BF92CF920F
:100FD000DF92EF92FF920F931F93CF93DF93C82E70
:100FE0008B017A018091BD01811103C08FEF9FEFCA
:100FF00075C08091880180FF05C08091E00082600B
:101000008093E000CE2DDF2DD12C8AEF882E8C2D01
:101010008770B82E8C2D8072A82E8C2D8074982EFF
:101020009AE3792E209709F452C08C2D0E949001EA
:10103000282F81110AC08A948820C1F261E070E0F3
:1010400080E090E00E94A807EDCF90E0C817D90794
:101050000CF42C2F3FB7F894B092E9008091E8008F
:1010600085FF33C0822F90E0C81BD90BAA2029F03E
:101070002150A8F01092F100FBCFF801C7FE07C085
:10108000215058F044914093F1003196F9CF21500E
:1010900020F041914093F100FACF080F191FDD2095
:1010A00019F07092E8000AC08091E80085FD08C040
:1010B0007092E800DD24D394209739F0D12C05C03C
:1010C000209719F491107092E8003FBFABCFD11078
:1010D000ACCF5D9884E680938601C701DF91CF9104
:1010E0001F910F91FF90EF90DF90CF90BF90AF9046
:1010F0009F908F907F900895CF93DF93EC01809124
:101100001201882331F083E00E94E20718161906C5
:1011100034F081E090E09B838A8380E090E0DF916F
:10112000CF9108952FB7F89460916E0170916F017F
:1011300080917001909171012FBF08951F920F92BD
:101140000FB60F9211242F933F938F939F93AF93DA
:10115000BF9380916E0190916F01A0917001B09149
:10116000710130916D0123E0230F2D3720F401969A
:10117000A11DB11D05C026E8230F0296A11DB11DBA
:1011800020936D0180936E0190936F01A093700185
:10119000B09371018091720190917301A0917401DB
:1011A000B09175010196A11DB11D809372019093BC
:1011B0007301A0937401B0937501BF91AF919F919A
:1011C0008F913F912F910F900FBE0F901F90189508
:1011D0002F923F924F925F926F927F928F929F9247
:1011E000AF92BF92CF92DF92EF92FF920F931F9335
:1011F000CF93DF9300D01F92CDB7DEB79B838A8356
:10120000FC0180810E947D078C01EA81FB81948F23
:10121000838F258C368C30A2278EF085F983FF23AF
:1012200009F452C0EA81FB818585882309F44CC00A
:10123000B801012E000C880B990B0E949C132B0106
:101240003C01EA81FB81C184D284E384F484A70158
:1012500096010E94951387FF0EC0B801660F771F95
:10126000072E000C880B990B0E949C13A701960176
:101270000E94F01426C0EA81FB81A280B380B501F0
:101280000B2C000C880B990B0E949C13A701960154
:101290000E94F0149B01AC01C301B2010E9405162B
:1012A000181694F4B801660F771F6A197B09072E88
:1012B000000C880B990B0E949C13A70196010E94B9
:1012C000F1140E94CF158B01EA81FB81468457847B
:1012D00060887188B801110F880B990B0E949C13CC
:1012E000A30192010E94F0146B017C0120E030E028
:1012F000A9010E94051618161CF4C701B60103C007
:10130000C701B60190580E94D6158B01EA81FB8176
:1013100086889788A08CB18CA5019401C701B6017D
:101320000E94F0142DEC3CEC4CEC5EE30E94FB13AD
:101330009B01AC01C501B4010E94F1144B015C0199
:10134000EA81FB81668B778B808F918FF981FF23F8
:1013500001F120E030E0A9010E940516181624F0E2
:10136000B7FAB094B7F8B094EA81FB812185328551
:1013700043855485C501B4010E949513881F8827B1
:10138000881FEA81FB81828F882319F0C301B20193
:1013900076C0B80180E090E00E949A13EA81FB8158
:1013A00024813581468157810E94FB1320E030E083
:1013B00040E85FE30E94F1149B01AC0160E070E043
:1013C00080E89FE30E945D159B01AC0160E070E046
:1013D00080E89FE30E94F0149B01AC010E94F1148D
:1013E0005B018C0120E030E040E85FE30E940516DD
:1013F000181624F4A12CB12C00E81FE39501A801D4
:10140000C701B6010E94FB139B01AC01C301B201ED
:101410000E94F1146B017C01EA81FB81668777876A
:10142000808B918B20E030E0A9010E949513EA8126
:10143000FB8187FF05C016861786108A118A19C09E
:10144000828193810197BC01990F880B990B0E94AF
:101450009C134B015C019B01AC01C701B6010E94CA
:101460000516181634F4EA81FB8186869786A08AD1
:10147000B18AEA81FB8166857785808991890E949E
:10148000CF15EA81FB81768F658F81E06215730548
:1014900009F480E0EA81FB8181A30F900F900F9007
:1014A000DF91CF911F910F91FF90EF90DF90CF9040
:1014B000BF90AF909F908F907F906F905F904F9074
:1014C0003F902F900895FC018685882319F081E0D4
:1014D0009485911180E00895FC018685882321F090
:1014E00081E09485911101C080E00895CF92DF9250
:1014F000EF92FF920F931F93CF93DF93EC018D85B3
:101500000E94E806182F8C858117E9F00E94920846
:10151000C880D980EA80FB80DC01CB018C199D0951
:10152000AE09BF09CC80DD80EE80FF808C159D0563
:10153000AE05BF0540F00E949208688379838A83D4
:101540009B831C8723C088859985AA85BB85892BA9
:101550008A2B8B2B21F10E949208088119812A8104
:101560003B81DC01CB01801B910BA20BB30B0885E7
:1015700019852A853B8580179107A207B30778F064
:101580000E949208688379838A839B8318861986D0
:101590001A861B8681E08E8781E090E003C01E865C
:1015A00080E090E0DF91CF911F910F91FF90EF903D
:1015B000DF90CF9008951F93CF93DF93EC01162F08
:1015C0002C833D834E835F83188619861A861B867B
:1015D0000E949208688379838A839B83812F0E946B
:1015E000E8068C871D87DF91CF911F910895809128
:1015F000650181116BC081E080935801809359018E
:101600002EE531E030935B0120935A0110925D0189
:1016100010925C012DE131E030935501209354018B
:101620001092600110925F011092620110926101AC
:10163000809363018093640181EC80935E010E943A
:10164000D901FC0121818091580190E0820F911D08
:10165000089724F081E08093650138C0A281B381AE
:10166000109729F484E591E0938382830EC0189645
:101670008D919C911997009711F0DC01F8CF84E5CA
:1016800091E019969C938E931897808180935601D0
:10169000818180935701908180915901890F8083C6
:1016A00080E0909158018917A8F6A0915A01B09155
:1016B0005B01A80FB11D9C91A181B0E0A050BF4F6C
:1016C0009C9391819F5F91838F5FEBCF84E591E045
:1016D0000895CF93DF93DC01683810F0685825C077
:1016E000E62FF0E067FF12C0E058F10981E090E0DA
:1016F00001C0880FEA95EAF7809514969C9114979B
:10170000892314968C93149760E00FC0E653FF4F23
:101710006491662319F167FF08C014968C911497A1
:101720008D7F14968C9314976F77FD01369686E023
:10173000662321F09081961301C01082815031966A
:101740008111F6CFED010E94F70AAE014C5F5F4FA9
:1017500062E00E94910C81E090E002C080E090E0A5
:10176000DF91CF910895CF93DF93DC01683810F0BB
:1017700068582DC0E62FF0E067FF11C0E058F1096E
:1017800081E090E001C0880FEA95EAF714969C91F9
:101790001497892B14968C93149760E018C0E65325
:1017A000FF4F6491611109C081E090E013969C9312
:1017B0008E93129780E090E044C067FF08C01496B3
:1017C0008C911497826014968C9314976F77169669
:1017D0008C911697861751F117968C91179786174B
:1017E00029F118968C911897861701F119968C910A
:1017F00019978617D9F01A968C911A978617B1F017
:101800001B968C911B97861789F0FD01369680E018
:1018100090E02191211105C0FD01E80FF91F6683B9
:1018200005C0019686309105A1F7BECFED010E945B
:10183000F70AAE014C5F5F4F62E00E94910C81E0BD
:1018400090E0DF91CF910895EF92FF921F93CF9395
:10185000DF93EC01162F0E94B30B7C01612FCE01A8
:101860000E94690BC7019927DF91CF911F91FF90CB
:10187000EF9008950E942F18EF92FF920F931F93FD
:10188000CF93DF93EC017B018A01BA010E941F0311
:101890002881398181110DC02115310519F0C90147
:1018A0000E94CD16198218821D821C821B821A8208
:1018B00006C01D830C83B701C9010E944618CE01E2
:1018C000DF91CF911F910F91FF90EF900895FC0150
:1018D0008091BD01811103C08FEF9FEF08959FB7E5
:1018E000F89482E08093E9002091F20030E0121633
:1018F000130614F421E030E02115310559F0289841
:1019000084E68093BC018091F10080838091F20095
:10191000882319F09FBFC90108958BE68093E800E2
:10192000F9CFCF92DF92EF92FF920F931F93CF9355
:10193000DF931F92CDB7DEB77C0169836A0141E076
:1019400050E0BE016F5F7F4FFC0183810E94E20780
:101950008C0197FD0CC0F701838148E050E0B6018F
:1019600080640E94E20797FD02C0800F911F0F90D4
:10197000DF91CF911F910F91FF90EF90DF90CF906B
:101980000895CF93DF93CDB7DEB728970FB6F894BD
:10199000DEBF0FBECDBFEEE0F2E03581268197813C
:1019A000808539832A839B838C8381818D83828187
:1019B0008E8383818F83848188870E94F70AAE019A
:1019C0004F5F5F4F63E00E94910C28960FB6F8942A
:1019D000DEBF0FBECDBFDF91CF910895CF92DF92D2
:1019E000FF920F931F93CF93DF931F92CDB7DEB774
:1019F000182F062F862F880F8E5F99830E94B803B9
:101A000083E00E94B803F12EC12E9981D92E8C2D2E
:101A10008F19801778F4F60184910E94B803182F6B
:101A200080E00E94B8038123FFEFCF1ADF0A811103
:101A3000EECF01C081E00F90DF91CF911F910F9108
:101A4000FF90DF90CF9008958091D7029091D802B7
:101A50000C94CD16CF93DF9300D0CDB7DEB778943A
:101A600084B5826084BD84B5816084BD85B58260A3
:101A700085BD85B5816085BD80916E008160809354
:101A80006E001092810080918100826080938100BD
:101A900080918100816080938100809180008160CD
:101AA000809380008091910082608093910080916A
:101AB000910081608093910080919000816080937B
:101AC00090008091C10084608093C1008091C1002A
:101AD00082608093C1008091C10081608093C100C9
:101AE0008091C30081608093C3008091C0008260B8
:101AF0008093C0008091C20081608093C200809179
:101B00007A00846080937A0080917A00826080936A
:101B10007A0080917A00816080937A0080917A00C7
:101B2000806880937A001092BD0110928901109212
:101B300088018091D70081608093D70080EA8093EC
:101B4000D80089B5806189BD89B5826089BD09B435
:101B500000FEFDCF61E070E080E090E00E94A80709
:101B60008091D8008F7C80618093D8008091E000C4
:101B7000807F8093E0008091E1008E7E8093E10081
:101B80008DE08093E200559A209AEEEFFFE7859171
:101B900094918B3F9C4D19F481E08093870182E101
:101BA0000E947D0783E10E947D0762E080E00E9441
:101BB000410762E081E00E94410762E082E00E940A
:101BC000410762E083E00E94410762E084E00E94F6
:101BD000410762E085E00E94410762E086E00E94E2
:101BE000410762E088E00E94410762E089E00E94CC
:101BF000410762E08AE00E94410762E08CE00E94B7
:101C0000410762E08DE00E94410760E082E10E94AE
:101C1000410760E083E10E94410762E087E00E94A3
:101C2000410762E087E10E94410761E084E10E9490
:101C3000410761E085E10E94410761E086E10E9481
:101C4000410762E08BE00E94410762E08EE00E9463
:101C5000410762E08FE00E94410762E080E10E945C
:101C6000410762E081E10E94410762E08EE10E944B
:101C700041070091940110919501043611056CF40F
:101C800080E00E947D0781E00E947D070F5F1F4F6B
:101C90001093950100939401ECCF00918A0110916B
:101CA0008B010E3111059CF58FEF92E00E94E80840
:101CB0008DED92E00E94E80880911C0390911D0335
:101CC0009093930180939201209190013091910122
:101CD000820F931F90939101809390018091FA025B
:101CE0009091FB0290938F0180938E0120918C0143
:101CF00030918D01820F931F90938D0180938C0101
:101D00000F5F1F4F10938B0100938A01C6CF809104
:101D1000900190919101EEE1F0E0BF010E940A165E
:101D20009B017093A1016093A00180918C0190911F
:101D30008D01BF010E940A1670939F0160939E015E
:101D40003195219531093093A9012093A801882765
:101D50009927861B970B9093A5018093A40181E09E
:101D600080930E020E94C10C8FEF9FEF9093CB01E6
:101D70008093CA0130E0232E30E0332E4424439474
:101D8000512C0E94C10C8EEB91E00E941302892B12
:101D900069F16EE170E080E090E00E94A8078EEBB0
:101DA00091E00E94DD0289831A820091DB0210918A
:101DB000DC020F5F1F4FB80187ED92E00E941F0306
:101DC000882309F32091D7023091D8028091DB0259
:101DD0009091DC02BE016F5F7F4F820F931F0E94C4
:101DE00046181093DC020093DB02CDCF8091DB021A
:101DF0009091DC02892B91F167E471E08091D70228
:101E00009091D8020E943D18892B41F461E084E151
:101E10000E9411075092BB014092BA018091DB02EF
:101E20009091DC02892B91F06DE471E08091D702F2
:101E30009091D8020E943D18892B41F460E084E122
:101E40000E9411071092BB011092BA0140E050E0CD
:101E500063E571E087ED92E00E943C0C8091BA014D
:101E60009091BB01181619068CF01092B2011092D5
:101E7000B3011092B4011092B5011092B601109204
:101E8000B7011092B8011092B90157C085E2C82E6F
:101E900081E0D82E9AE9A92E91E0B92E26E9E22E0A
:101EA00021E0F22E02EB11E0F6018081F2E0CF0E8C
:101EB000D11C0E94E806F501819391935F01F7011F
:101EC0001816190644F1808191811816190664F0DC
:101ED00081E090E0918380830E949208F801608302
:101EE0007183828393831EC00E949208F80120812F
:101EF000318142815381DC01CB01821B930BA40B06
:101F0000B50B81319742A105B10560F060E084E135
:101F10000E941107F70111821082F80110821182CC
:101F200012821382F2E0EF0EF11C0C5F1F4F29E2C8
:101F3000C21621E0D20609F0B7CF88EC92E00E94E9
:101F4000760A88EC92E00E94630A882351F061EBE4
:101F500087E192E00E94B30B6EE487E192E00E9479
:101F6000B30B88EC92E00E946C0A882351F061EB7D
:101F700087E192E00E94690B6EE487E192E00E94A3
:101F8000690B89EB92E00E94760A89EB92E00E944D
:101F9000630A882329F062E887E192E00E94B30B8C
:101FA00089EB92E00E946C0A882329F062E887E1BD
:101FB00092E00E94690B8AEA92E00E94760A8AEA1D
:101FC00092E00E94630A882329F065E387E192E0AA
:101FD0000E94B30B8AEA92E00E946C0A882329F0DF
:101FE00065E387E192E00E94690B8BE992E00E9431
:101FF000760A8BE992E00E94630A882329F060EB5D
:1020000087E192E00E94B30B8BE992E00E946C0A98
:10201000882329F060EB87E192E00E94690B8CE84D
:1020200092E00E94760A8CE892E00E94630A88237C
:1020300029F060E887E192E00E94B30B8CE892E01F
:102040000E946C0A882329F060E887E192E00E94F0
:10205000690B8DE792E00E94760A8DE792E00E947C
:10206000630A882349F067ED87E192E00E94B30B91
:1020700061E086E10E9411078DE792E00E946C0A00
:10208000882349F067ED87E192E00E94690B60E0E8
:1020900086E10E9411078EE692E00E94760A8EE6A3
:1020A00092E00E94630A882329F062E387E192E0CC
:1020B0000E94B30B8EE692E00E946C0A882329F0FE
:1020C00062E387E192E00E94690B8FE592E00E9453
:1020D000760A8FE592E00E94630A882329F061E383
:1020E00087E192E00E94B30B8FE592E00E946C0AB8
:1020F000882329F061E387E192E00E94690B80E583
:1021000092E00E94760A80E592E00E94630A8823AA
:1021100029F069ED87E192E00E94B30B80E592E03F
:102120000E946C0A882329F069ED87E192E00E9401
:10213000690B81E492E00E94760A81E492E00E94B9
:10214000630A882349F068ED87E192E00E94B30BAF
:1021500061E085E10E94110781E492E00E946C0A2F
:10216000882349F068ED87E192E00E94690B60E006
:1021700085E10E94110782E392E00E94760A82E3E1
:1021800092E00E94630A882329F060E287E192E0EE
:102190000E94B30B82E392E00E946C0A882329F02C
:1021A00060E287E192E00E94690B83E292E00E9484
:1021B000760A83E292E00E94630A882329F06AED9E
:1021C00087E192E00E94B30B83E292E00E946C0AE6
:1021D000882329F06AED87E192E00E94690B8FEF76
:1021E00092E00E94E8088DED92E00E94E80880905D
:1021F0001C0390901D039092AD018092AC01A090C1
:10220000FA02B090FB02B092AB01A092AA01C0907A
:10221000A801D090A90194012C0D3D1DB901032EF8
:10222000000C880B990B37FD09C00E949C1320E01D
:1022300030E040E05FE30E94F11408C00E949C136C
:1022400020E030E040E05FE30E94F0140E94CF15F0
:102250007B017093A7016093A6016090A401709028
:10226000A5019501260D371DB901032E000C880B21
:10227000990B37FD09C00E949C1320E030E040E03C
:102280005FE30E94F11408C00E949C1320E030E03C
:1022900040E05FE30E94F0140E94CF158B01709321
:1022A000A3016093A2018091A0019091A1019C01E2
:1022B000265F3F4F281539052CF02451310982162D
:1022C000930644F4F194E194F108F092B101E092A4
:1022D000B00120C0C80ED91EB6010D2C000C880B11
:1022E000990BD7FC09C00E949C1320E030E040E02D
:1022F0005FE30E94F11408C00E949C1320E030E0CC
:1023000040E05FE30E94F0140E94CF157093B1018A
:102310006093B00180919E0190919F019C01265F86
:102320003F4F2A153B052CF024513109A216B30664
:1023300044F41195019511091093AF010093AE017A
:1023400020C0680E791EB301072C000C880B990B76
:1023500077FC09C00E949C1320E030E040E05FE37E
:102360000E94F11408C00E949C1320E030E040E07D
:102370005FE30E94F0140E94CF157093AF01609349
:10238000AE018091B00180930F0280910E02811105
:102390000E94C10C8091AE018093100280910E02C8
:1023A00081110E94C10C1092110280910E028111C4
:1023B0000E94C10C1092120280910E0281110E94A3
:1023C000C10C2114310409F4DCCC0E940000D9CCEA
:1023D0008F929F92AF92BF92CF92DF92EF92FF9235
:1023E0000F931F93CF931092C1011092C00188EEFA
:1023F00093E0A0E0B0E08093C2019093C301A0936A
:10240000C401B093C5018DE291E09093BF01809328
:10241000BE018FEF9FEF9093CB018093CA01809113
:102420002703811113C0109222031092210382E628
:1024300092E0909324038093230387E390E09093AA
:1024400026038093250381E0809327030E94F70AE7
:10245000FC01A385B485109729F481E293E0948769
:1024600083870BC08D919C911197009711F0DC012F
:10247000F9CF81E293E08D939C93258536858091F9
:10248000250390912603820F931F968785871092CC
:102490000F0210921002109211021092120210926A
:1024A000130210921402109215021092160210924A
:1024B0001A02109219028FE391E090931802809310
:1024C000170280913503811113C0109230031092CE
:1024D0002F0389E992E090933203809331038FE2D6
:1024E00090E0909334038093330381E0809335032D
:1024F0000E94F70AFC01A385B485109729F48FE2A6
:1025000093E0948783870BC08D919C9111970097DE
:1025100011F0DC01F9CF8FE293E08D939C93258538
:1025200036858091330390913403820F931F9687F1
:10253000858700E014E01093020300930103812CCF
:10254000912C80E8A82E80E4B82E80920803909207
:102550000903A0920A03B0920B03C1E0C0930C03DD
:10256000109215031092160310921703109218037D
:102570001092190360E083E10E94410760E083E16B
:102580000E94110783E190E0909300038093FF0283
:10259000C09307039AE0C92E97EDD92E93E2E92E56
:1025A0009CE3F92EC0920303D0920403E09205034A
:1025B000F09206031093E0020093DF028092E6029D
:1025C0009092E702A092E802B092E902C093EA0278
:1025D0001092F3021092F4021092F5021092F60299
:1025E0001092F70260E082E10E94410760E082E120
:1025F0000E94110782E190E09093DE028093DD0259
:10260000C093E502C092E102D092E202E092E302BE
:10261000F092E4021092D8021092D7021092DA02DD
:102620001092D9021092DC021092DB0240E050E0DE
:1026300063E571E087ED92E00E943C0C25E030E01C
:1026400040E050E062E088EC92E00E94DB0A25E086
:1026500030E040E050E06CE089EB92E00E94DB0A61
:1026600025E030E040E050E063E08AEA92E00E943A
:10267000DB0A25E030E040E050E06DE08BE992E0DD
:102680000E94DB0A25E030E040E050E068E08CE8A2
:1026900092E00E94DB0A25E030E040E050E064E098
:1026A0008DE792E00E94DB0A25E030E040E050E058
:1026B00065E08EE692E00E94DB0A25E030E040E033
:1026C00050E06AE08FE592E00E94DB0A25E030E00E
:1026D00040E050E069E080E592E00E94DB0A25E0FE
:1026E00030E040E050E061E081E492E00E94DB0AEB
:1026F00025E030E040E050E066E082E392E00E94B6
:10270000DB0A25E030E040E050E060E083E292E068
:10271000CF911F910F91FF90EF90DF90CF90BF90DE
:10272000AF909F908F900C94DB0A0E94D71308F40F
:1027300081E00895E89409C097FB3EF49095809558
:10274000709561957F4F8F4F9F4F9923A9F0F92F77
:1027500096E9BB279395F695879577956795B795F5
:10276000F111F8CFFAF4BB0F11F460FF1BC06F5FDB
:102770007F4F8F4F9F4F16C0882311F096E911C0ED
:10278000772321F09EE8872F762F05C0662371F00E
:1027900096E8862F70E060E02AF09A95660F771F22
:1027A000881FDAF7880F9695879597F90895990FFE
:1027B0000008550FAA0BE0E8FEEF16161706E8070B
:1027C000F907C0F012161306E407F50798F0621B2C
:1027D000730B840B950B39F40A2661F0232B242B01
:1027E000252B21F408950A2609F4A140A6958FEF20
:1027F000811D811D08950E940E140C947F140E9467
:10280000711438F00E94781420F0952311F00C9484
:1028100068140C946E1411240C94B3140E94901438
:1028200070F3959FC1F3950F50E0551F629FF00123
:10283000729FBB27F00DB11D639FAA27F00DB11D3C
:10284000AA1F649F6627B00DA11D661F829F2227C5
:10285000B00DA11D621F739FB00DA11D621F839F4C
:10286000A00D611D221F749F3327A00D611D231F22
:10287000849F600D211D822F762F6A2F11249F5770
:1028800050409AF0F1F088234AF0EE0FFF1FBB1F73
:10289000661F771F881F91505040A9F79E3F510532
:1028A00080F00C9468140C94B3145F3FE4F3983EEA
:1028B000D4F3869577956795B795F795E7959F5FDC
:1028C000C1F7FE2B880F911D9695879597F908956E
:1028D00097F99F6780E870E060E008959FEF80ECD3
:1028E000089500240A941616170618060906089576
:1028F00000240A9412161306140605060895092EDC
:102900000394000C11F4882352F0BB0F40F4BF2B4A
:1029100011F460FF04C06F5F7F4F8F4F9F4F08958A
:1029200057FD9058440F551F59F05F3F71F0479580
:10293000880F97FB991F61F09F3F79F08795089565
:10294000121613061406551FF2CF4695F1DF08C084
:10295000161617061806991FF1CF869571056105A1
:1029600008940895E894BB2766277727CB0197F949
:1029700008952F923F924F925F926F927F928F9223
:102980009F92AF92BF92CF92DF92EF92FF920F93FE
:102990001F93CF93DF93CDB7DEB7CA1BDB0B0FB608
:1029A000F894DEBF0FBECDBF09942A8839884888C5
:1029B0005F846E847D848C849B84AA84B984C8845B
:1029C000DF80EE80FD800C811B81AA81B981CE0F52
:1029D000D11D0FB6F894DEBF0FBECDBFED01089537
:1029E0005058BB27AA270E9408150C947F140E94F8
:1029F000711438F00E94781420F039F49F3F19F4D4
:102A000026F40C946E140EF4E095E7FB0C94681415
:102A1000E92F0E94901458F3BA17620773078407CE
:102A2000950720F079F4A6F50C94B2140EF4E09515
:102A30000B2EBA2FA02D0B01B90190010C01CA0178
:102A4000A0011124FF27591B99F0593F50F4503E23
:102A500068F11A16F040A22F232F342F4427585F15
:102A6000F3CF469537952795A795F0405395C9F72D
:102A70007EF41F16BA0B620B730B840BBAF09150E5
:102A8000A1F0FF0FBB1F661F771F881FC2F70EC084
:102A9000BA0F621F731F841F48F487957795679557
:102AA000B795F7959E3F08F0B0CF9395880F08F043
:102AB0009927EE0F9795879508950E9471150C94AC
:102AC0007F140E94781458F00E94711440F029F489
:102AD0005F3F29F00C94681451110C94B3140C94BA
:102AE0006E140E94901468F39923B1F3552391F367
:102AF000951B550BBB27AA2762177307840738F06D
:102B00009F5F5F4F220F331F441FAA1FA9F335D0C9
:102B10000E2E3AF0E0E832D091505040E695001C7D
:102B2000CAF72BD0FE2F29D0660F771F881FBB1F37
:102B3000261737074807AB07B0E809F0BB0B802D15
:102B4000BF01FF2793585F4F3AF09E3F510578F041
:102B50000C9468140C94B3145F3FE4F3983ED4F3E0
:102B6000869577956795B795F7959F5FC9F7880F15
:102B7000911D9695879597F90895E1E0660F771F67
:102B8000881FBB1F621773078407BA0720F0621BF8
:102B9000730B840BBA0BEE1F88F7E09508950E9423
:102BA000D6156894B1110C94B31408950E9498142A
:102BB00088F09F5798F0B92F9927B751B0F0E1F0FE
:102BC000660F771F881F991F1AF0BA95C9F714C0AE
:102BD000B13091F00E94B214B1E008950C94B21497
:102BE000672F782F8827B85F39F0B93FCCF38695E7
:102BF00077956795B395D9F73EF490958095709544
:102C000061957F4F8F4F9F4F08950E94D71308F40F
:102C10008FEF089597FB072E16F4009407D077FDE9
:102C200009D00E94241607FC05D03EF490958195AA
:102C30009F4F0895709561957F4F0895EE0FFF1F88
:102C40000590F491E02D0994AA1BBB1B51E107C02C
:102C5000AA1FBB1FA617B70710F0A61BB70B881F2C
:102C6000991F5A95A9F780959095BC01CD010895BB
:102C7000CF93DF938230910510F482E090E0E091F1
:102C80003F03F091400320E030E0C0E0D0E0309717
:102C900011F14081518148175907C0F04817590771
:102CA00061F482819381209719F09B838A832BC0E2
:102CB0009093400380933F0326C02115310519F0FE
:102CC0004217530718F49A01BE01DF01EF01028099
:102CD000F381E02DDCCF2115310509F1281B390BDB
:102CE0002430310590F412968D919C9113976115C3
:102CF000710521F0FB019383828304C0909340030C
:102D000080933F03FD01329644C0FD01E20FF31FA3
:102D100081939193225031092D933C933AC0209195
:102D20003D0330913E03232B41F420911501309156
:102D3000160130933E0320933D03209113013091FF
:102D400014012115310541F42DB73EB7409117010B
:102D500050911801241B350BE0913D03F0913E0387
:102D6000E217F307A0F42E1B3F0B2817390778F062
:102D7000AC014E5F5F4F2417350748F04E0F5F1FC1
:102D800050933E0340933D038193919302C0E0E052
:102D9000F0E0CF01DF91CF9108950F931F93CF9370
:102DA000DF93009709F48CC0FC01329713821282E2
:102DB00000913F03109140030115110581F420811A
:102DC0003181820F931F20913D0330913E032817DC
:102DD000390779F5F0933E03E0933D0371C0D801C4
:102DE00040E050E0AE17BF0750F412962D913C9191
:102DF0001397AD012115310509F1D901F3CF9D01DB
:102E0000DA013383228360817181860F971F8217D5
:102E1000930769F4EC0128813981260F371F2E5F53
:102E20003F4F318320838A819B8193838283452B0B
:102E300029F4F0934003E0933F0342C01396FC93C0
:102E4000EE931297ED01499159919E01240F351F80
:102E5000E217F30771F480819181840F951F029628
:102E600011969C938E938281938113969C938E935B
:102E70001297E0E0F0E0D80112968D919C911397A3
:102E8000009719F0F8018C01F6CF8D919C91980173
:102E90002E5F3F4F820F931F20913D0330913E03E1
:102EA0002817390769F4309729F4109240031092DB
:102EB0003F0302C01382128210933E0300933D032E
:102EC000DF91CF911F910F910895A0E0B0E0EBE664
:102ED000F7E10C94BD14EC01009721F4CB010E94A2
:102EE0003816B8C0FC01E60FF71F9C0122503109CB
:102EF000E217F30708F4ACC0D9010D911C911197AA
:102F000006171707B0F00530110508F49FC0C80177
:102F100004978617970708F499C002501109061BF9
:102F2000170B019311936D937C93CF010E94CD16E3
:102F30008DC05B01A01AB10A4C01800E911EA091B8
:102F40003F03B091400340E050E0E12CF12C10979A
:102F500009F44AC0A815B905D1F56D907C90119778
:102F6000630182E0C80ED11CCA14DB0480F1A30106
:102F70004A195B096A0182E0C80ED11C1296BC9006
:102F800012971396AC91B5E0CB16D10440F0B28203
:102F9000A38351834083D9016D937C930AC00E5F54
:102FA0001F4FC301800F911FF90191838083EB2D87
:102FB000FA2FE114F10431F0D7011396FC93EE934C
:102FC000129744C0F0934003E0933F033FC08D91BC
:102FD0009C9111974817590708F4AC017D0112968E
:102FE0000D90BC91A02DB3CF80913D0390913E03F5
:102FF00088159905E1F446175707C8F48091130125
:1030000090911401009741F48DB79EB7409117013C
:1030100050911801841B950BE817F907C8F4F09339
:103020003E03E0933D03F901718360830FC0CB0140
:103030000E9438167C01009759F0A801BE010E9439
:103040003418CE010E94CD16C70104C0CE0102C0C3
:1030500080E090E0CDB7DEB7EEE00C94D91481E0CB
:1030600090E0F8940C944D18FB01DC0102C0019033
:103070000D9241505040D8F70895FB01DC018D912D
:10308000019080190110D9F3990B0895FB01DC011F
:1030900001900D920020E1F7089511E0C5E6D1E01E
:1030A00004C0FE010E941E162196C636D107C9F73C
:0430B000F894FFCFC2
:1030B40000C18081000000FFFFFFFF00E10000006D
:1030C400000000000041038000000000008F02A007
:1030D400066006B6020700170000000000ED017C40
:1030E400080E0203021302DD02FB020000000024AA
:1030F4000CAE01DA02D9025650434F4E00565043EB
:043104004F464600EC
:2070000055C000006EC000006CC000006AC0000068C0000066C0000064C0000062C0000043
:2070200060C000005EC00000F2C400005AC0000058C0000056C0000054C0000052C00000EE
:2070400050C0000078C000004CC000004AC0000048C0000046C0000044C0000042C00000BE
:2070600040C000003EC000003CC000003AC0000038C0000036C0000034C0000032C0000048
:2070800030C000002EC000002CC000002AC0000028C0000026C0000024C0000022C00000A8
:2070A00020C000001EC000001CC0000011241FBECFEFDAE0DEBFCDBF11E0A0E0B1E0E2E3BC
:2070C000FFE702C005900D92A83AB107D9F711E0A8EAB1E001C01D92AE3BB107E1F78FD30B
:2070E00026C78ECFF89410926F0010928100109285001092840081E085BF15BE47985D9AEB
:20710000289A0C94000008952091B2013091B3012F5F3F4F3093B3012093B201932F37FFA6
:2071200003C08EEF831B982F990F921710F447980895479A08951F920F920FB60F9211246E
:207140002F938F939F93EF93FF9310928500109284008091A8019091A901009741F00197D3
:207160009093A9018093A801892B09F45D9A8091AA019091AB01009741F001979093AB0126
:207180008093AA01892B09F4289AE0E0F0E0859194918F5F9F4F49F08091AC019091AD0151
:2071A00001969093AD018093AC01FF91EF919F918F912F910F900FBE0F901F90189584E0BC
:2071C0008093E9000DC08091E8008B778093E80003C08EB3882351F08091E80082FFF9CFBE
:2071E0008091E80085FFEFCF8091F1000895982F83E08093E9008091E80085FD0DC0809136
:20720000E8008E778093E80003C08EB3882369F08091E80080FFF9CF9093F1005D9884E6CB
:2072200090E09093A9018093A80108954F925F926F927F928F929F92AF92BF92CF92DF921E
:20724000EF92FF920F931F93CF93DF9384E08093E9008091E80082FF57C2289884E690E067
:207260009093AB018093AA01AADF182F853481F48CE49DE19093AD018093AC0107B600FC4B
:20728000FDCFF999FECF81E180935700E89503C0843519F494DF8DE00DC28C34E1F38035F9
:2072A000D1F3843721F484E4A2DF80E003C2813611F489E5FFC18134B1F481DF182F7FDFE3
:2072C00090E0880F991FAA2797FDA095BA2F312F330F20E0442737FD4095542F822B932B68
:2072E000A42BB52BB8C1803711F483E5E3C1833549F4C0E0D1E089917ADF21E0C730D20714
:20730000D1F7D9C1863521F481E371DF80E3D2C1833731F487E86BDF85E969DF8EE1CAC149
:207320008536B9F4E0E0F0E093E085E090935700E89507B600FCFDCF80935700E89507B65D
:2073400000FCFDCFE058FF4FA0E7E030FA0771F7A2CF823739F4E1E0F0E089E08093570024
:207360008491A8C1863439F4E0E0F0E089E08093570084919FC18E3439F4E3E0F0E089E0E5
:2073800080935700849196C1813539F4E2E0F0E089E08093570084918DC1823631F489E521
:2073A00026DF80E024DF80E885C1823419F0873609F0E5C01092AD011092AC0100DF082FE8
:2073C000FEDEF82EFCDE682E8554823008F071C1902F80E0CF2DD0E0C82BD92B10926F00B3
:2073E000173609F04BC081E180935700E895DD24CC24C3943FC0E090AE01F090AF010091CC
:20740000B0011091B101B6E46B16D9F4ED2DF0E0EE29FF29E4918E2FEADEDD2081F082E08D
:2074200090E0A0E0B0E0E80EF91E0A1F1B1FE092AE01F092AF010093B0011093B101DC2470
:2074400018C0D801C701B695A7959795879559D5CEDE82E090E0A0E0B0E0E80EF91E0A1FF2
:207460001B1FE092AE01F092AF010093B0011093B1012197209709F0BECF7DC08090AE01F5
:207480009090AF01A090B001B090B10196E4691609F05DC083E0F40180935700E89507B63E
:2074A00000FCFDCF54C0F6E46F1661F5772031F1E090AE01F090AF010091B0011091B1019E
:2074C0007EDED82ECC24852D90E08C299D29F7010C0140925700E895112482E090E0A0E08B
:2074E000B0E0E80EF91E0A1F1B1FE092AE01F092AF010093B0011093B10102C060DE582E1A
:20750000742423C0E090AE01F090AF010091B0011091B10116950795F794E79450DE682FFA
:20752000C701F7D48091AE019091AF01A091B001B091B1010296A11DB11D8093AE01909349
:20754000AF01A093B001B093B101219704C05524772444244394209709F0A5CF96E46916B6
:2075600041F485E0F40180935700E89507B600FCFDCF8DE03CDE82E080936F009CC0833492
:2075800071F40091AE011091AF0119DE90E021E0F8010C0120935700E89511247CCE8336C8
:2075A00019F5E090AE01F090AF010091B0011091B10105DEF701E16090E021E00C0120938C
:2075C0005700E895112482E090E0A0E0B0E0E80EF91E0A1F1B1FE092AE01F092AF0100936A
:2075E000B0011093B10157CE8D3661F4E091AE01F091AF0185E080935700E89507B600FCF2
:20760000FDCF49CE823551F4E091AE01F091AF0105911491812FEBDD802F4CC0843421F5FE
:20762000E090AE01F090AF010091B0011091B10116950795F794E794C2DD682FC70169D4DE
:207640008091AE019091AF01A091B001B091B1010296A11DB11D8093AE019093AF01A093D8
:20766000B001B093B10117CE843609F5E090AE01F090AF010091B0011091B101D801C70142
:20768000B695A795979587953CD4B1DD82E090E0A0E0B0E0E80EF91E0A1F1B1FE092AE010A
:2076A000F092AF010093B0011093B10104C08B3111F08FE39CDD83E08093E9009091E8002B
:2076C0008091E8008E778093E80095FF04C010C08EB38823C9F08091E80080FFF9CF809193
:2076E000E8008E778093E80003C08EB3882361F08091E80080FFF9CF84E08093E9008091F1
:20770000E8008B778093E800DF91CF911F910F91FF90EF90DF90CF90BF90AF909F908F90AC
:207720007F906F905F904F9008959091B601892F8F77813249F58091B7018032A1F081328A
:2077400019F5913A09F58091E800877F8093E8008DE091E067E070E00BD28091E8008B770B
:207760008093E8000895913279F48091E800877F8093E8008DE091E067E070E05DD2809192
:20778000E8008E778093E800089582E061EC42E0B5D083E061E842E1B1D084E060E842E1EF
:2077A000ADC084B7877F84BF88E10FB6F89480936000109260000FBE20E880E090E00FB63F
:2077C000F89420936100809361000FBE81E085BF92E095BF3F9A209A559AE1E6F0E02083A1
:2077E000108247985D9A289A109289008AEF8093880090936F0083E080938100F0C0409116
:20780000000850910108109201081092000894B714BE88E10FB6F8948093600010926000D5
:207820000FBE292F30E0F901E270F07091FD18C090FF05C0859194918F5F9F4F81F423FFFF
:207840000FC08091090190910A014817590741F0E0E0F0E0859194918F5F9F4F09F042DC64
:20786000A0DF78941092AD011092AC010CC0DEDC36D38091AC019091AD0181549F4110F00D
:207880001092140141DC80911401882381F78091E00081608093E00025DC80E090E0089598
:2078A000FA01923049F0933061F09130F9F485E191E022E130E01EC087E291E02EE330E04D
:2078C00019C0882329F485E691E024E030E012C0813029F489E691E022E230E00BC0823006
:2078E00029F48DE891E028E130E004C080E090E020E030E091838083C90108958093E9004E
:207900008091EB0081608093EB001092ED006093EC004093ED008091EE00881F8827881F62
:2079200008958091B60188238CF403C08EB38823B1F08091E80082FFF9CF8091E8008B772A
:207940008093E80008958EB3882349F08091E80080FFF9CF8091E8008E778093E800089594
:20796000EF92FF920F931F9345D04CD008ED10E0F80180818F77808380818068808380819B
:207980008F7D808319BC1EBA1092B40180EEE82EF12CF70180818B7F8083F8018081816052
:2079A000808380E060E042E0A9DFE1EEF0E080818E7F8083E2EEF0E0808181608083808144
:2079C00088608083F70180818E7F8083F8018081806180831F910F91FF90EF900895E7ED06
:2079E000F0E08081816080838AE482BF81E08093B501B6CFE8EDF0E080818E7F808310921C
:207A0000E20008951092DA001092E10008951F920F920FB60F9211242F933F934F935F93F6
:207A20006F937F938F939F93AF93BF93EF93FF938091DA0080FF1BC08091D80080FF17C0B2
:207A40008091DA008E7F8093DA008091D90080FF0BC080E189BD82E189BD09B400FEFDCF36
:207A600081E08EBB3BD203C019BC1EBA37D28091E10080FF17C08091E20080FF13C0809138
:207A8000E2008E7F8093E2008091E20080618093E2008091D80080628093D80019BC85E049
:207AA0008EBB1CD28091E10084FF2CC08091E20084FF28C080E189BD82E189BD09B400FEC5
:207AC000FDCF8091D8008F7D8093D8008091E1008F7E8093E1008091E2008F7E8093E20012
:207AE0008091E20081608093E2008091B401882331F48091E30087FD02C081E001C084E067
:207B00008EBBECD18091E10083FF21C08091E20083FF1DC08091E100877F8093E10082E06A
:207B20008EBB1092B4018091E1008E7F8093E1008091E2008E7F8093E2008091E2008061E9
:207B40008093E20080E060E042E0D8DEC7D1FF91EF91BF91AF919F918F917F916F915F9130
:207B60004F913F912F910F900FBE0F901F9018959C014091BC015091BD014617570718F49D
:207B8000F90190E044C06115710511F0AB01F8CF8091E8008E778093E80040E050E0F0CF0F
:207BA0008EB3882309F444C0853009F443C08091E80083FF02C081E008958091E80082FD70
:207BC00031C08091E80080FF22C08091F3009091F200782F60E0292F30E0262B372B07C07A
:207BE00081918093F100415050402F5F3F4F4115510519F02830310598F390E02830310566
:207C000009F491E08091E8008E778093E8004115510531F6992321F605C08EB3882341F075
:207C2000853041F08091E80082FFF7CF80E0089582E0089583E008959C016115710529F47C
:207C40008091E8008B778093E800F90126C08EB3882391F1853091F18091E80083FF02C06C
:207C600081E008958091E80082FFF1CF06C08091F10081936150704059F02091F300809191
:207C8000F200322F20E090E0822B932B892B79F78091E8008B778093E80061157105B9F601
:207CA00005C08EB3882341F0853041F08091E80080FFF7CF80E0089582E0089583E00895C2
:207CC0000F931F93DF93CF9300D0CDB7DEB7E6EBF1E08091F100819381E0EE3BF807C9F792
:207CE00024DD8091E80083FFE4C08091B6019091B701953009F46DC0963040F4913081F1A7
:207D0000913070F0933009F0D4C02AC0983009F4A3C0993009F4B2C0963009F0CAC07CC023
:207D2000803809F4C6C0823809F0C3C08091BA0187708093E9008091EB001092E9002091DB
:207D4000E800277F2093E80090E025E0969587952A95E1F781708093F1001092F10087C0D8
:207D6000882319F0823009F0A4C08F71823009F0A0C08091B801882331F52091BA01277097
:207D800009F497C02093E9008091EB0080FF1BC0933021F48091EB00806213C08091EB0018
:207DA00080618093EB0081E090E002C0880F991F2A95E2F78093EA001092EA008091EB00E5
:207DC00088608093EB001092E9008091E800877F51C0882309F06DC01091B8011F770FB79B
:207DE000F8948091E800877F8093E8009ADD8091E80080FFFCCF8091E3008078812B809398
:207E0000E30080688093E300112311F482E001C083E08EBB0FBF4DC08058823008F049C033
:207E20008091B8019091B9016091BA01AE014F5F5F4F36DDBC01009709F43BC08091E8008E
:207E4000877F8093E80089819A8192DE8091E8008B778093E8002DC0803859F58091E800AA
:207E6000877F8093E8008091B4018093F1008091E8008E778093E80054DD1BC08823C9F4CA
:207E80009091B8019230A8F48091E800877F8093E8009093B40145DD8091B401882331F420
:207EA0008091E30087FD02C081E001C084E08EBB6CDC8091E80083FF0AC08091EB0080624E
:207EC0008093EB008091E800877F8093E8000F900F90CF91DF911F910F91089508951F9360
:207EE0008EB3882361F01091E9001092E9008091E80083FF01C0E4DE17701093E9001F916F
:207F00000895F999FECF92BD81BDF89A992780B50895262FF999FECF1FBA92BD81BD20BDBD
:207F20000FB6F894FA9AF99A0FBE01960895F894FFCF4341544552494E4100777700080031
:207F40000000000000080112011001020000084123360001000201000109023E00020100FF
:207F600080320904000001020201000524001001042402040524060001070582030800FF0C
:207F800009040100020A000000070504021000010705830210000104030904220341007216
:207FA000006400750069006E006F0020004C0065006F006E006100720064006F0000001836
:1A7FC00003410072006400750069006E006F0020004C004C004300000000D7
:00000001FF
