:100000000C9466010C948E010C948E010C948E015C
:100010000C948E010C948E010C948E010C948E0124
:100020000C948E010C948E010C9421030C941A04F0
:100030000C948E010C948E010C948E010C948E0104
:100040000C948E010C948E010C948E010C948E01F4
:100050000C948E010C948E010C948E010C944B0820
:100060000C948E010C948E010C948E010C948E01D4
:100070000C948E010C948E010C948E010C948E01C4
:100080000C948E010C948E010C948E010C948E01B4
:100090000C948E010C948E010C948E010C948E01A4
:1000A0000C948E010C948E010C948E014502480232
:1000B00037023B0241026902690269024C025002A6
:1000C00054025A025E02690264020000000000004D
:1000D00000002A2B280000000000000000000000A3
:1000E000000000000000000000002C9EB4A0A1A2AF
:1000F000A434A6A7A5AE362D3738271E1F202122EF
:1001000023242526B333B62EB7B89F8485868788E7
:10011000898A8B8C8D8E8F909192939495969798D7
:10012000999A9B9C9D2F3130A3AD35040506070895
:10013000090A0B0C0D0E0F101112131415161718B7
:10014000191A1B1C1DAFB1B0B5000706050401004C
:10015000080A0B0C0D0900000000250028002B00E8
:100160002E00310000000000240027002A002D008E
:100170003000000000002300260029002C002F0082
:10018000040404040403040502020202040302023C
:10019000020206060606060604040202020404041D
:1001A0000802011040804010204080408008020476
:1001B00001804020100201108010204040200000EB
:1001C000000200090F0000030401000C0000000001
:1001D00000000000000000000000000000080B000C
:1001E00002020201000904000001020200000524CD
:1001F0000010010524010101042402060524060063
:10020000010705810310004009040100020A0000F3
:1002100000070502024000000705830240000004B9
:1002200003090412010002EF020140A020B54100C1
:10023000010102030156334231304B523130333128
:1002400039565043005A656273626F61726473007D
:10025000565043616273205A4220506C756E676538
:10026000720005010905A101850305091901290B82
:100270001500250A750195205500650081020501CC
:100280000901A1001581267F0009300931093209D1
:1002900035750895048102C0C005010906A10185D4
:1002A00002050719E029E715002501750195088168
:1002B00002950175088103950675081500256505E9
:1002C00007190029658100C091188B1811241FBEE1
:1002D000CFEFDAE0DEBFCDBF11E0A0E0B1E0E8E3B0
:1002E000FFE302C005900D92A634B107D9F724E0D0
:1002F000A6E4B1E001C01D92A931B207E1F711E017
:10030000C5E6D1E004C02197FE010E94691DC436F4
:10031000D107C9F70E94760D0C948F1F0C94000032
:100320002FB7F89487708093E9009091E800892FA7
:10033000807295FF04C09091F20080E4891B2FBF6A
:100340000895615030F02091F100FC012083019666
:10035000F8CF289884E68093D4010895CF92DF9255
:10036000EF92FF920F931F93CF93DF936C017A016B
:100370008B01C0E0D0E0CE15DF0589F0D8016D918A
:100380008D01D601ED91FC910190F081E02DC60127
:100390000995892B11F47E0102C02196ECCFC7018B
:1003A000DF91CF911F910F91FF90EF90DF90CF9051
:1003B00008958091C70181110DC082E08093C3012F
:1003C00084E08093C4011092C6011092C50181E0BF
:1003D0008093C70183EC91E00895CF93DF931F9240
:1003E000CDB7DEB76983DC01ED91FC910280F3812A
:1003F000E02D41E050E0BE016F5F7F4F09950F9007
:10040000DF91CF91089583E08093E9008091F2001D
:10041000882319F08AE38093E800089583E00E941E
:10042000900190E00895FC018485958597FD0BC0AF
:100430009FB7F89482E08093E9008091F2009FBF1B
:1004400090E0019608959FB7F89482E08093E900C8
:100450008091F2009FBF90E0089590E0FC013197F9
:10046000EF30F105B0F5EA5AFF4F0C94691D809109
:1004700080008F7703C0809180008F7D8093800003
:10048000089580918000877FF9CF84B58F7702C06F
:1004900084B58F7D84BD0895809190008F7707C0CB
:1004A000809190008F7D03C080919000877F809322
:1004B000900008958091C0008F7703C08091C000A4
:1004C0008F7D8093C00008958091C200877F8093C4
:1004D000C20008953FB7F8948091BF019091C00188
:1004E000A091C101B091C20126B5A89B05C02F3FC4
:1004F00019F00196A11DB11D3FBFBA2FA92F982F4A
:100500008827820F911DA11DB11DBC01CD0142E0C4
:10051000660F771F881F991F4A95D1F70895DC0150
:10052000FB0112968C91129790E0248135818217FD
:100530009307D1F491818081813A31F481E0913047
:1005400091F0933089F411C0813271F49B3021F421
:1005500082811F968C9305C09A3031F48281509627
:100560008C9381E00895089580E00895DC01FB01FB
:1005700088E4808389E4818384E482831D969C914E
:100580001D979F709F5B93831D968D919C911E97E5
:1005900024E0969587952A95E1F78F708F5B848389
:1005A00085E00895FC0182818F5BFB01808381E0FF
:1005B0000895089580E090E008950E947A1FCF93F7
:1005C000DF931F92CDB7DEB7FC018485958597FD3B
:1005D00005C02FEF3FEF358724870BC0CE01019672
:1005E0000E94160D019719F4898190E002C08FEFE7
:1005F0009FEF0F90DF91CF9108950F931F93CF93AB
:10060000DF931F92CDB7DEB78C01FC018485958501
:1006100097FF0EC0CE0101960E94160D019719F4A6
:10062000298130E002C02FEF3FEFF80135872487A2
:10063000F801848595850F90DF91CF911F910F91DF
:1006400008951F920F920FB60F9211248F939F93CC
:100650008091E1009091E100937F9093E10083FF0E
:100660000FC01092E90091E09093EB001092EC0023
:1006700092E39093ED001092D50198E09093F000F2
:1006800082FF20C093E09093E9009091F2009923BB
:1006900019F09AE39093E8009091D301992339F0EF
:1006A0009091D30191509093D301992389F1909126
:1006B000D401992339F09091D40191509093D401B1
:1006C000992341F184FF10C08091E2008E7E816009
:1006D0008093E2008091E1008F7E8093E100809121
:1006E00047018E7E806111C080FF16C08091E200BC
:1006F0008E7E80618093E2008091E1008E7E809307
:10070000E100809147018E7E81608093470104C0A3
:100710005D9ACDCF289AD6CF9F918F910F900FBE23
:100720000F901F9018954091D1015091D2012091C6
:10073000CF013091D00142175307B4F49091E800F3
:100740009570E1F39091E80092FD19C08093F1005B
:100750008091D1019091D20101968F739927892BB5
:1007600019F48EEF8093E8008091D1019091D2012D
:1007700001969093D2018093D10181E0089580E0A9
:100780000895DF92EF92FF920F931F93CF93DF9321
:10079000D82E8A017B01E40EF51EEB01CE15DF0594
:1007A00071F0D7FE03C0FE01849101C088810E94D0
:1007B000930321968111F2CF8FEF9FEF01C0C80103
:1007C000DF91CF911F910F91FF90EF90DF900895EF
:1007D0000F931F93CF93DF931F92CDB7DEB782E0C5
:1007E000898342E450E06DED71E080E80E94C1032E
:1007F0000E94D901DC0112960D911C9113970115ED
:10080000110569F0D801ED91FC910280F381E02D92
:10081000BE016F5F7F4FC801099597FF07C08981AF
:100820000F90DF91CF911F910F910895F8010085EE
:100830001185E5CF1F920F920FB60F921124EF9200
:10084000FF920F931F932F933F934F935F936F9359
:100850007F938F939F93AF93BF93EF93FF93CF9328
:10086000DF93CDB7DEB76C97DEBFCDBF1092E90046
:100870008091E80083FFE2C168E0CE0145960E94C6
:10088000A10182EF8093E8008D8987FF05C09091D8
:10089000E80090FFFCCF03C09EEF9093E800982FF4
:1008A000907609F0C6C09E892F89188D91110CC0D1
:1008B000803829F4809148018093F10002C01092A1
:1008C000F1001092F10046C1422F50E0512B9130BF
:1008D00051F481113FC14130510509F03BC1809174
:1008E00048018D7F0BC0933061F4811133C14130D9
:1008F000510509F02FC18091480182608093480121
:1009000029C1953041F48091E80080FFFCCF206838
:100910002093E3001FC1963009F05FC0EB8CFC8C84
:100920001092E9001092D2011092D101123091F58B
:100930001092D0011092CF010E94E80399E0BE010D
:100940006F5F7F4FDB01E92F1D92EA95E9F79983ED
:100950001A8391E09E8390EA98879AEF9987209175
:10096000D1013091D201275F3F4F3C832B838D8390
:100970001092E9001092D2011092D101F092D001B0
:10098000E092CF0149E050E080E00E94C1030E9464
:10099000E803E0C0F092D001E092CF010E94D901BB
:1009A000DC011296ED90FC901397E114F10409F428
:1009B000C0C0D701ED91FC910480F581E02DBE010E
:1009C0006B5E7F4FC7010995009719F00CF0C2C00C
:1009D000C5C0F701E084F184E8CF973009F4BEC0C8
:1009E000983021F481E08093F100B4C0993009F08F
:1009F000B1C0837009F0B2C0E2E0F1E081E021E033
:100A000036E39081992361F08093E9002093EB0015
:100A100091919093EC003093ED008F5F873089F7D0
:100A20008EE78093EA001092EA008F898093D501C7
:100A300091C08B8D9C8D1092E9001092D201109282
:100A4000D1019093D0018093CF01898D811156C03F
:100A50008E899D89913A59F4813209F07FC047E02F
:100A600050E06CE071E080E00E94C10373C09132FD
:100A700009F074C0833289F4888D90E0982F88271C
:100A80002F89822BA0E0B0E08093080190930901A8
:100A9000A0930A01B0930B015DC0803269F480918C
:100AA000E80082FFFCCF67E08CE091E00E94A101AA
:100AB0008BEF8093E80006C0823209F04BC08F892B
:100AC0008093130180914601882319F0EEEFFAE03C
:100AD00002C0E0E0F8E080910C0190910D01A0913E
:100AE0000E01B0910F01803B9440A105B10509F0C2
:100AF00070C08091130180FF88C06BC00E94D90133
:100B0000DC0112960D911C9113970115110531F11D
:100B1000D801ED91FC910190F081E02DBE016B5E5A
:100B20007F4FC8010995811115C0F8010085118515
:100B3000ECCF113009F443C0133081F48F8988233E
:100B4000D9F1823079F461E180E592E00E94400DB4
:100B5000882321F08EEF8093E80070C081E28093BB
:100B6000EB006CC0813021F46AE085E492E0EECFC6
:100B70008330A1F70E94D901DC0112960D911C91DE
:100B80001397FE0131967F010115110579F0D80107
:100B9000ED91FC910680F781E02DB701C801099520
:100BA000E80EF11CF80100851185EECFD7011C92EB
:100BB0006FE085E392E0CACF6FE172E002C063E2CA
:100BC00072E06115710551F2FB01449150E080E83B
:100BD0004BCF0FB6F894A895809160008861809300
:100BE0006000109260000FBEA895EE3F2AE0F20769
:100BF00039F08091FE0A9091FF0A91838083AACFF9
:100C00001092FF0A1092FE0AA5CFEE3F8AE0F80785
:100C100031F0808191819093FF0A8093FE0A87E7EB
:100C200097E7918380839BE088E10FB6F894A895BD
:100C3000809360000FBE909360008CCF6C960FB6CF
:100C4000F894DEBF0FBECDBFDF91CF91FF91EF9142
:100C5000BF91AF919F918F917F916F915F914F91D4
:100C60003F912F911F910F91FF90EF900F900FBE2A
:100C70000F901F901895EF92FF920F931F93CF93B1
:100C8000DF93FB012081213851F52381223239F590
:100C9000DC0112962C9130E04481558142175307B4
:100CA000F1F4EC010B851C85E12CF12C01151105EB
:100CB00091F0F801448155816281738180E80E943E
:100CC000C1038F3FFFEF9F0769F0E80EF91ED801BF
:100CD0000D911C91EBCF81E08F87C70105C080E0AB
:100CE00090E002C08FEF9FEFDF91CF911F910F91A6
:100CF000FF90EF900895CF93DF93CDB7DEB769975C
:100D00000FB6F894DEBF0FBECDBFFC01DB018C91A6
:100D10008F5F8C93BE016F5F7F4F89E1DB011D9276
:100D20008A95E9F729E0298384E08A8391E09D830D
:100D300083E08E832A8721E22B879C879D879F876C
:100D400022E2288B27E02B8B25E02C8B8E8B20E456
:100D500030E0388F2F8B998F82818B8395858685A4
:100D6000998B8A8B838180688D8B49E150E080E08C
:100D70000E94C10369960FB6F894DEBF0FBECDBFC7
:100D8000DF91CF910895CF93DF93282F30E0F901C1
:100D9000E254FE4F8491F901E156FE4FD491F901DE
:100DA000E058FE4FC491CC2391F081110E942D0296
:100DB000EC2FF0E0EE0FFF1FEE58FE4FA591B4911F
:100DC000EC91ED2381E090E021F480E002C080E02E
:100DD00090E0DF91CF910895CF93DF9390E0FC01F5
:100DE000E156FE4F2491FC01E058FE4F8491882388
:100DF00061F190E0880F991FFC01EC59FE4FC591FD
:100E0000D491FC01EA5AFE4FA591B491611109C039
:100E10009FB7F8948881209582238883EC912E23B4
:100E20000BC0623061F49FB7F8943881822F8095AF
:100E300083238883EC912E2B2C939FBF06C08FB702
:100E4000F894E8812E2B28838FBFDF91CF910895EE
:100E5000823108F08251E82FF0E0E65BFE4FE4912A
:100E600080917B00E3FB222720F930E095E0220F00
:100E7000331F9A95E1F78F7D282B20937B00E77035
:100E80008091000120E4829FC0011124E82BE093AF
:100E90007C0080917A00806480937A0080917A004F
:100EA00086FDFCCF809178002091790090E0922B14
:100EB00008958F929F92AF92BF92CF92DF92EF925E
:100EC000FF926B017C010E946A024B015C01C1141C
:100ED000D104E104F104F1F00E946A02DC01CB01CB
:100EE00088199909AA09BB09883E9340A105B10553
:100EF00070F321E0C21AD108E108F10888EE880EEB
:100F000083E0981EA11CB11CC114D104E104F104BA
:100F100019F7DDCFFF90EF90DF90CF90BF90AF90AB
:100F20009F908F9008957F928F929F92AF92BF92E1
:100F3000CF92DF92EF92FF920F931F93CF93DF93A5
:100F4000C82E8B017A018091D501811103C08FEFEA
:100F50009FEF75C08091470180FF05C08091E00040
:100F600082608093E000CE2DDF2DD12C8AEF882E79
:100F70008C2D8770B82E8C2D8072A82E8C2D8074AD
:100F8000982E9AE3792E209709F452C08C2D0E9456
:100F90009001282F81110AC08A948820C1F261E053
:100FA00070E080E090E00E945907EDCF90E0C81714
:100FB000D9070CF42C2F3FB7F894B092E900809138
:100FC000E80085FF33C0822F90E0C81BD90BAA2010
:100FD00029F02150A8F01092F100FBCFF801C7FED4
:100FE00007C0215058F044914093F1003196F9CF59
:100FF000215020F041914093F100FACF080F191FC2
:10100000DD2019F07092E8000AC08091E80085FDAB
:1010100008C07092E800DD24D394209739F0D12CD9
:1010200005C0209719F491107092E8003FBFABCF34
:10103000D110ACCF5D9884E68093D301C701DF91D6
:10104000CF911F910F91FF90EF90DF90CF90BF90C5
:10105000AF909F908F907F900895CF93DF93EC0196
:1010600083E00E9493071816190634F081E090E09F
:101070009B838A8380E090E0DF91CF9108952FB722
:10108000F8946091BB017091BC018091BD01909179
:10109000BE012FBF08951F920F920FB60F92112419
:1010A0002F933F938F939F93AF93BF938091BB01F7
:1010B0009091BC01A091BD01B091BE013091BA01E7
:1010C00023E0230F2D3720F40196A11DB11D05C08B
:1010D00026E8230F0296A11DB11D2093BA0180932B
:1010E000BB019093BC01A093BD01B093BE01809160
:1010F000BF019091C001A091C101B091C2010196C0
:10110000A11DB11D8093BF019093C001A093C101A7
:10111000B093C201BF91AF919F918F913F912F9159
:101120000F900FBE0F901F9018952F923F924F92E5
:101130005F926F927F928F929F92AF92BF92CF9267
:10114000DF92EF92FF920F931F93CF93DF9300D024
:101150001F92CDB7DEB79B838A83FC0180810E94FA
:1011600028078C01EA81FB81948F838F258C368C34
:1011700030A2278EF085F983FF2309F452C0EA815B
:10118000FB818585882309F44CC0B801012E000C31
:10119000880B990B0E945E1A2B013C01EA81FB81AE
:1011A000C184D284E384F484A70196010E94571A73
:1011B00087FF0EC0B801660F771F072E000C880B43
:1011C000990B0E945E1AA70196010E942B1C26C053
:1011D000EA81FB81A280B380B5010B2C000C880B47
:1011E000990B0E945E1AA70196010E942B1C9B017D
:1011F000AC01C301B2010E94401D181694F4B8015D
:10120000660F771F6A197B09072E000C880B990B54
:101210000E945E1AA70196010E942C1C0E940A1DC2
:101220008B01EA81FB814684578460887188B8010C
:10123000110F880B990B0E945E1AA30192010E9464
:101240002B1C6B017C0120E030E0A9010E94401DB5
:1012500018161CF4C701B60103C0C701B6019058A7
:101260000E94111D8B01EA81FB8186889788A08CE2
:10127000B18CA5019401C701B6010E942B1C2DEC75
:101280003CEC4CEC5EE30E94BD1A9B01AC01C50135
:10129000B4010E942C1C4B015C01EA81FB81668B2E
:1012A000778B808F918FF981FF2301F120E030E06F
:1012B000A9010E94401D181624F0B7FAB094B7F89F
:1012C000B094EA81FB812185328543855485C5012F
:1012D000B4010E94571A881F8827881FEA81FB8162
:1012E000828F882319F0C301B20176C0B80180E073
:1012F00090E00E945C1AEA81FB812481358146815D
:1013000057810E94BD1A20E030E040E85FE30E9470
:101310002C1C9B01AC0160E070E080E89FE30E9420
:10132000981C9B01AC0160E070E080E89FE30E94A4
:101330002B1C9B01AC010E942C1C5B018C0120E04A
:1013400030E040E85FE30E94401D181624F4A12C11
:10135000B12C00E81FE39501A801C701B6010E9466
:10136000BD1A9B01AC01C301B2010E942C1C6B0190
:101370007C01EA81FB8166877787808B918B20E0F7
:1013800030E0A9010E94571AEA81FB8187FF05C05E
:1013900016861786108A118A19C082819381019757
:1013A000BC01990F880B990B0E945E1A4B015C01DE
:1013B0009B01AC01C701B6010E94401D181634F410
:1013C000EA81FB8186869786A08AB18AEA81FB81C1
:1013D00066857785808991890E940A1DEA81FB8153
:1013E000768F658F81E06215730509F480E0EA81EC
:1013F000FB8181A30F900F900F90DF91CF911F91F0
:101400000F91FF90EF90DF90CF90BF90AF909F90A3
:101410008F907F906F905F904F903F902F900895A6
:101420008F929F92AF92BF92DF92EF92FF920F93B3
:101430001F93CF93DF93EC017B01D42E4801590118
:1014400080E094E09B838A8380E090E0A0E8B0E4B1
:1014500089879A87AB87BC8781E08D871E8A1F8A20
:10146000188E198E1A8E60E08E2D0E94EC06970160
:101470003327F901E254FE4F8491F901E156FE4F02
:101480000491F901E058FE4F1491112391F081115C
:101490000E942D02E12FF0E0EE0FFF1FEA5AFE4FEF
:1014A000A591B4918FB7F894EC9100950E230C930D
:1014B0008FBFF982E882D88620E030E040E85FE321
:1014C000C501B4010E94401D18166CF020E030E008
:1014D000A901C501B4010E94571A87FF0AC0812CD7
:1014E000912C540106C0812C912C80E8A82E8FE30A
:1014F000B82E8C829D82AE82BF82DF91CF911F91E8
:101500000F91FF90EF90DF90BF90AF909F908F90E2
:101510000895FC018685882319F081E09485911156
:1015200080E00895FC018685882321F081E0948580
:10153000911101C080E00895CF92DF92EF92FF9267
:101540000F931F93CF93DF93EC018D850E94C30609
:10155000182F8C858117E9F00E943F08C880D98038
:10156000EA80FB80DC01CB018C199D09AE09BF0923
:10157000CC80DD80EE80FF808C159D05AE05BF051B
:1015800040F00E943F08688379838A839B831C878D
:1015900023C088859985AA85BB85892B8A2B8B2BAF
:1015A00021F10E943F08088119812A813B81DC01D9
:1015B000CB01801B910BA20BB30B088519852A85E3
:1015C0003B8580179107A207B30778F00E943F0878
:1015D000688379838A839B83188619861A861B867B
:1015E00081E08E8781E090E003C01E8680E090E07D
:1015F000DF91CF911F910F91FF90EF90DF90CF90EF
:1016000008951F93CF93DF93EC01162F2C833D8316
:101610004E835F83188619861A861B860E943F08B0
:10162000688379838A839B83812F0E94C3068C877A
:101630001D87DF91CF911F9108958091B201811193
:101640006BC081E08093A5018093A6012BEA31E075
:101650003093A8012093A7011092AA011092A9012A
:101660002EE131E03093A2012093A1011092AD014F
:101670001092AC011092AF011092AE018093B001B4
:101680008093B10181EC8093AB010E94D901FC01F0
:1016900021818091A50190E0820F911D089724F08F
:1016A00081E08093B20138C0A281B381109729F400
:1016B00081EA91E0938382830EC018968D919C916C
:1016C0001997009711F0DC01F8CF81EA91E01996A3
:1016D0009C938E93189780818093A301818180933E
:1016E000A40190818091A601890F808380E0909170
:1016F000A5018917A8F6A091A701B091A801A80F8C
:10170000B11D9C91A181B0E0AF5FBE4F9C939181D0
:101710009F5F91838F5FEBCF81EA91E00895CF9334
:10172000DF93DC01683810F0685825C0E62FF0E040
:1017300067FF12C0E058F10981E090E001C0880F16
:10174000EA95EAF7809514969C911497892314964C
:101750008C93149760E00FC0E653FF4F64916623AB
:1017600019F167FF08C014968C9114978D7F149619
:101770008C9314976F77FD01369686E0662321F0EF
:101780009081961301C01082815031968111F6CF5D
:10179000ED010E941D0BAE014C5F5F4F62E00E94A5
:1017A000600C81E090E002C080E090E0DF91CF919A
:1017B0000895CF93DF93DC01683810F068582DC08E
:1017C000E62FF0E067FF11C0E058F10981E090E0FA
:1017D00001C0880FEA95EAF714969C911497892B1B
:1017E00014968C93149760E018C0E653FF4F6491F1
:1017F000611109C081E090E013969C938E9312973B
:1018000080E090E044C067FF08C014968C91149764
:10181000826014968C9314976F7716968C91169716
:10182000861751F117968C911797861729F11896FC
:101830008C911897861701F119968C911997861734
:10184000D9F01A968C911A978617B1F01B968C9145
:101850001B97861789F0FD01369680E090E0219174
:10186000211105C0FD01E80FF91F668305C001962F
:1018700086309105A1F7BECFED010E941D0BAE0190
:101880004C5F5F4F62E00E94600C81E090E0DF916E
:10189000CF910895EF92FF921F93CF93DF93EC01C6
:1018A000162F0E94D90B7C01612FCE010E948F0B55
:1018B000C7019927DF91CF911F91FF90EF90089575
:1018C000CF92DF92EF92FF920F931F93CF93DF930C
:1018D0001F92CDB7DEB77C0169836A0141E050E019
:1018E000BE016F5F7F4FFC0183810E9493078C01D3
:1018F00097FD0CC0F701838148E050E0B601806499
:101900000E94930797FD02C0800F911F0F90DF91F7
:10191000CF911F910F91FF90EF90DF90CF9008959E
:10192000CF93DF93CDB7DEB728970FB6F894DEBF1D
:101930000FBECDBFE6EDF1E0358126819781808530
:1019400039832A839B838C8381818D8382818E83DB
:1019500083818F83848188870E941D0BAE014F5F36
:101960005F4F63E00E94600C28960FB6F894DEBFCC
:101970000FBECDBFDF91CF9108950F931F9341E02C
:1019800050E060E070E08A019B0104C0000F111F6D
:10199000221F331F8A95D2F7D901C8014091DB017C
:1019A0005091DC016091DD017091DE01842B952B5B
:1019B000A62BB72B8093DB019093DC01A093DD0174
:1019C000B093DE018091D601882321F01F910F9101
:1019D0000C94900C1F910F91089541E050E060E04D
:1019E00070E004C0440F551F661F771F8A95D2F719
:1019F00040955095609570958091DB019091DC0148
:101A0000A091DD01B091DE01482359236A237B2395
:101A10004093DB015093DC016093DD017093DE01A4
:101A20008091D60181110C94900C0895FC01809155
:101A3000D501811103C08FEF9FEF08959FB7F894F0
:101A400082E08093E9002091F20030E01216130644
:101A500014F421E030E02115310559F0289884E68E
:101A60008093D4018091F10080838091F2008823DB
:101A700019F09FBFC90108958BE68093E800F9CF64
:101A8000CF92DF92FF920F931F93CF93DF931F921A
:101A9000CDB7DEB7182F062F862F880F8E5F99835C
:101AA0000E94930383E00E949303F12EC12E99813B
:101AB000D92E8C2D8F19801778F4F60184910E940D
:101AC0009303182F80E00E9493038123FFEFCF1A26
:101AD000DF0A8111EECF01C081E00F90DF91CF913D
:101AE0001F910F91FF90DF90CF900895CF93DF93D8
:101AF00000D000D0CDB7DEB7789484B5826084BDC5
:101B000084B5816084BD85B5826085BD85B5816001
:101B100085BD80916E00816080936E00109281007F
:101B2000809181008260809381008091810081603A
:101B300080938100809180008160809380008091FB
:101B400091008260809391008091910081608093E8
:101B50009100809190008160809390008091C100FD
:101B600084608093C1008091C10082608093C10035
:101B70008091C10081608093C1008091C300816029
:101B80008093C3008091C00082608093C0008091E8
:101B9000C20081608093C20080917A00846080934B
:101BA0007A0080917A00826080937A0080917A0036
:101BB000816080937A0080917A00806880937A00B7
:101BC0001092D50110924801109247018091D700E0
:101BD00081608093D70080EA8093D80089B58061C6
:101BE00089BD89B5826089BD09B400FEFDCF61E081
:101BF00070E080E090E00E9459078091D8008F7CCF
:101C000080618093D8008091E000807F8093E00025
:101C10008091E1008E7E8093E1008DE08093E20070
:101C2000559A209AEEEFFFE7859194918B3F9C4D5A
:101C300019F481E0809346011092000186E10E9430
:101C4000280782E10E94280783E10E94280784E197
:101C50000E94280785E10E942807109263011092D4
:101C60006401109265011092660162E080E00E94BA
:101C7000EC0662E081E00E94EC0662E082E00E94F5
:101C8000EC0662E083E00E94EC0662E084E00E94E1
:101C9000EC0662E085E00E94EC0662E086E00E94CD
:101CA000EC0662E087E00E94EC0662E088E00E94B9
:101CB000EC0662E089E00E94EC0662E08AE00E94A5
:101CC000EC0662E08BE00E94EC0662E08CE00E9491
:101CD000EC0662E08DE00E94EC0662E08EE00E947D
:101CE000EC0662E08FE00E94EC0662E080E10E9478
:101CF000EC0662E081E10E94EC0660E082E10E9475
:101D0000EC0660E083E10E94EC0660E084E10E9462
:101D1000EC0660E085E10E94EC0660E086E10E944E
:101D2000EC0662E087E10E94EC0662E08EE10E9430
:101D3000EC060091590110915A01043611050CF07E
:101D400067C080E00E94280781E00E9428070F5F9B
:101D50001F4F10935A0100935901EBCF81E893E094
:101D60000E9495088FE593E00E9495088DE393E02B
:101D70000E94950880919E0390919F0397FD039682
:101D800095958795959587959093580180935701E0
:101D90002091550130915601820F931F9093560167
:101DA0008093550180917C0390917D0397FD03966C
:101DB00095958795959587959093540180935301B8
:101DC0002091510130915201820F931F9093520143
:101DD0008093510180915A0390915B0397FD039684
:101DE00095958795959587959093500180934F0190
:101DF00020914D0130914E01820F931F90934E011F
:101E000080934D010F5F1F4F1093800100937F015E
:101E100000917F01109180010E3111050CF49ECFCD
:101E200080915501909156010EE110E0B8010E9499
:101E3000551DFB0170934C0160934B018091510142
:101E400090915201B8010E94551D9B0170934A0167
:101E50006093490180914D0190914E01B8010E941B
:101E6000551D70939E0160939D01F195E195F109D7
:101E7000F0937201E093710131952195310930930E
:101E80006E0120936D0188279927861B970B9093ED
:101E90009C0180939B0110929201109291011092EB
:101EA0008E0110928D0110929A011092990181E099
:101EB0008093D6010E94900C80E090E00E947B1BF2
:101EC00090E09093620180936101892B31F486EB5D
:101ED00090E0909362018093610181E090E00E9424
:101EE0007B1B90E09093600180935F01029724F048
:101EF0001092600110925F0122242394312C0E94E1
:101F0000900C85E00E94C306892BB1F488E00E9402
:101F1000C306892B89F480915D0190915E011816AA
:101F20001906B4F030925E0120925D016AE070E023
:101F300080E090E00E94590784E00E94C306892B4C
:101F400009F0F5C188E00E94C306892B31F0EFC18A
:101F500010925E0110925D01E9CF30925C012092F7
:101F60005B01C0905D01D0905E0110E01C141D0467
:101F70007CF4812F0E94ED0C1F5F1A30D1F70E9474
:101F8000900C6AE070E080E090E00E94590732C057
:101F9000812F0E94ED0C1F5F1A30D1F768ED8FED95
:101FA00091E00E948F0B60E88FED91E00E948F0B13
:101FB00061E38FED91E00E948F0B61EB8FED91E07B
:101FC0000E948F0B65E38FED91E00E948F0B67ED10
:101FD0008FED91E00E948F0B64E88FED91E00E94FD
:101FE0008F0B60EB8FED91E00E948F0B30925E01C2
:101FF00020925D01109262011092610180919D0119
:1020000090919E019093600180935F011A821982E2
:10201000A12CB12C812C912C80915B0190915C01C1
:10202000181619060CF087C180E00E94BD0C81E0F3
:102030000E94BD0C82E00E94BD0C83E00E94BD0C9A
:102040000E94900C8114910409F090C00E94900CA1
:102050008DE393E00E94950880915A0390915B0371
:1020600097FD039695958795959587959093A001F3
:1020700080939F0100919D0110919E0198012B5F1B
:102080003F4F281739076CF02A5031098217930700
:1020900044F08091990190919A019093A0018093CE
:1020A0009F0160909F017090A00180919701909195
:1020B00098016816790609F450C0601671065CF53F
:1020C000A3E0EA2EF12C512C852D0E94ED0C5394A7
:1020D0003AE05312F9CF0E94900C6AEF70E080E072
:1020E00090E00E94590780E00E94BD0C81E00E94B0
:1020F000BD0C82E00E94BD0C83E00E94BD0C0E94DA
:10210000900C6AEF70E080E090E00E94590761E077
:10211000E61AF108C1F606151705FCF48091610175
:10212000909162018615970524F470926201609285
:1021300061016091610170916201661677066CF42D
:1021400089819A810E94831B64E670E080E090E0C0
:102150000E94590788248394912C80919F0190912B
:10216000A00190939801809397016CCF10E0812F8C
:102170000E94ED0C1F5F1A30D1F768EE73E080E02B
:1021800090E00E94590784E00E94BD0C85E00E9407
:10219000BD0C86E00E94BD0C87E00E94BD0C68EE7D
:1021A00073E080E090E00E945907A114B10409F0A7
:1021B00080C00E94900C8DE393E00E94950880916E
:1021C0005A0390915B0397FD039695958795959596
:1021D00087959093A00180939F0120919701309162
:1021E00098018217930709F45BC020919D013091FB
:1021F0009E012817390754F503E010E0F12C8F2DCC
:102200000E94ED0CF3947AE0F712F9CF0E94900C43
:102210006AEF70E080E090E00E94590784E00E943D
:10222000BD0C85E00E94BD0C86E00E94BD0C87E0DD
:102230000E94BD0C0E94900C6AEF70E080E090E07C
:102240000E94590701501109C9F62AC020915F0167
:10225000309160018217930724F49093600180937A
:102260005F0160915F017091600168177907C4F4A4
:1022700029813A812F5F3F4F3A83298321153440CA
:1022800011F41A82198289819A810E94831B64E663
:1022900070E080E090E00E945907AA24A394B12C3A
:1022A00080919F019091A001909398018093970154
:1022B0007CCF02E010E0F12C8F2D0E94ED0CF39406
:1022C0009BE0F912F9CF64EF71E080E090E00E94AA
:1022D0005907F12C8F2D0E94BD0CF394E8E0FE12FB
:1022E000F9CF64EF71E080E090E00E94590701307F
:1022F000110519F001E010E0DECF0E94900C64EFB0
:1023000071E080E090E00E94590710E0812F0E9468
:10231000ED0C1F5F1B30D1F70E94900CD0925E0134
:10232000C0925D0110925C0110925B0175CE10921B
:102330005C0110925B0180915D0190915E01181625
:1023400019060CF09EC18AEE92E00E949C0A8AEE69
:1023500092E00E94890A882319F080E00E94BD0C57
:102360008AEE92E00E94920A882319F080E00E948F
:10237000ED0C8BED92E00E949C0A8BED92E00E94A6
:10238000890A882319F081E00E94BD0C8BED92E050
:102390000E94920A882319F081E00E94ED0C8CECD7
:1023A00092E00E949C0A8CEC92E00E94890A8823A9
:1023B00019F082E00E94BD0C8CEC92E00E94920A1F
:1023C000882319F082E00E94ED0C8DEB92E00E94D0
:1023D0009C0A8DEB92E00E94890A882319F083E021
:1023E0000E94BD0C8DEB92E00E94920A882319F0A6
:1023F00083E00E94ED0C8EEA92E00E949C0A8EEA35
:1024000092E00E94890A882319F084E00E94BD0CA2
:102410008EEA92E00E94920A882319F084E00E94DA
:10242000ED0C8FE992E00E949C0A8FE992E00E94F5
:10243000890A882319F085E00E94BD0C8FE992E09B
:102440000E94920A882319F085E00E94ED0C80E931
:1024500092E00E949C0A80E992E00E94890A882307
:1024600061F086E00E94BD0C6AE070E080E090E0E0
:102470000E94590786E00E94ED0C80E992E00E94DC
:10248000920A882361F086E00E94BD0C6AE070E049
:1024900080E090E00E94590786E00E94ED0C81E800
:1024A00092E00E949C0A81E892E00E94890A8823B7
:1024B00019F08AE00E94BD0C81E892E00E94920A25
:1024C000882319F08AE00E94ED0C82E792E00E94D6
:1024D0009C0A82E792E00E94890A882319F089E029
:1024E0000E94BD0C82E792E00E94920A882319F0B4
:1024F00089E00E94ED0C83E692E00E949C0A83E64C
:1025000092E00E94890A882319F088E00E94BD0C9D
:1025100083E692E00E94920A882319F088E00E94E4
:10252000ED0C84E592E00E949C0A84E592E00E9412
:10253000890A882319F087E00E94BD0C84E592E0A7
:102540000E94920A882319F087E00E94ED0C85E42E
:1025500092E00E949C0A85E492E00E94890A882306
:1025600019F08DE00E94BD0C85E492E00E94920A71
:10257000882319F08DE00E94ED0C86E392E00E9422
:102580009C0A86E392E00E94890A882319F08EE073
:102590000E94BD0C86E392E00E94920A882319F003
:1025A0008EE00E94ED0C87E292E00E949C0A87E296
:1025B00092E00E94890A882319F08FE00E94BD0CE6
:1025C00087E292E00E94920A882319F08FE00E942D
:1025D000ED0C88E192E00E949C0A88E192E00E9462
:1025E000890A882319F080E10E94BD0C88E192E0FD
:1025F0000E94920A882319F080E10E94ED0C89E084
:1026000092E00E949C0A89E092E00E94890A882355
:1026100019F081E10E94BD0C89E092E00E94920ACB
:10262000882319F081E10E94ED0C8AEF91E00E946D
:102630009C0A8AEF91E00E94890A882319F08CE0B5
:102640000E94BD0C8AEF91E00E94920A882319F043
:102650008CE00E94ED0C8BEE91E00E949C0A8BEEC8
:1026600091E00E94890A882319F08BE00E94BD0C3A
:102670008BEE91E00E94920A882309F4AEC18BE0B0
:10268000AAC18AEE92E00E949C0A8AEE92E00E9421
:10269000890A882329F068ED8FED91E00E94D90B1B
:1026A0008AEE92E00E94920A882329F068ED8FED6D
:1026B00091E00E948F0B8BED92E00E949C0A8BEDC3
:1026C00092E00E94890A882329F060E88FED91E06A
:1026D0000E94D90B8BED92E00E94920A882329F088
:1026E00060E88FED91E00E948F0B8CEC92E00E94ED
:1026F0009C0A8CEC92E00E94890A882329F061E30D
:102700008FED91E00E94D90B8CEC92E00E94920A2E
:10271000882329F061E38FED91E00E948F0B8DEB10
:1027200092E00E949C0A8DEB92E00E94890A882325
:1027300029F061EB8FED91E00E94D90B8DEB92E0D7
:102740000E94920A882329F061EB8FED91E00E94AC
:102750008F0B8EEA92E00E949C0A8EEA92E00E9421
:10276000890A882329F065E38FED91E00E94D90B57
:102770008EEA92E00E94920A882329F065E38FEDA9
:1027800091E00E948F0B8FE992E00E949C0A8FE9F2
:1027900092E00E94890A882329F067ED8FED91E08D
:1027A0000E94D90B8FE992E00E94920A882329F0B7
:1027B00067ED8FED91E00E948F0B80E992E00E941F
:1027C0009C0A80E992E00E94890A882329F064E843
:1027D0008FED91E00E94D90B80E992E00E94920A6D
:1027E000882329F064E88FED91E00E948F0B81E847
:1027F00092E00E949C0A81E892E00E94890A882364
:1028000029F060EB8FED91E00E94D90B81E892E016
:102810000E94920A882329F060EB8FED91E00E94DC
:102820008F0B82E792E00E949C0A82E792E00E946E
:10283000890A882319F080E00E94BD0C82E792E0AB
:102840000E94920A882319F080E00E94ED0C83E632
:1028500092E00E949C0A83E692E00E94890A882303
:1028600019F081E00E94BD0C83E692E00E94920A7A
:10287000882319F081E00E94ED0C84E592E00E942B
:102880009C0A84E592E00E94890A882319F082E07C
:102890000E94BD0C84E592E00E94920A882319F000
:1028A00082E00E94ED0C85E492E00E949C0A85E49F
:1028B00092E00E94890A882319F083E00E94BD0CEF
:1028C00085E492E00E94920A882319F083E00E9436
:1028D000ED0C86E392E00E949C0A86E392E00E945F
:1028E000890A882319F084E00E94BD0C86E392E0F7
:1028F0000E94920A882319F084E00E94ED0C87E27E
:1029000092E00E949C0A87E292E00E94890A882352
:1029100019F085E00E94BD0C87E292E00E94920AC5
:10292000882319F085E00E94ED0C88E192E00E9476
:102930009C0A88E192E00E94890A882319F086E0C7
:102940000E94BD0C88E192E00E94920A882319F04F
:1029500086E00E94ED0C89E092E00E949C0A89E0EA
:1029600092E00E94890A882319F087E00E94BD0C3A
:1029700089E092E00E94920A882319F087E00E9481
:10298000ED0C8AEF91E00E949C0A8AEF91E00E9490
:10299000890A882319F088E00E94BD0C8AEF91E033
:1029A0000E94920A882319F088E00E94ED0C8BEEB9
:1029B00091E00E949C0A8BEE91E00E94890A882394
:1029C00019F089E00E94BD0C8BEE91E00E94920A02
:1029D000882319F089E00E94ED0C8DE393E00E94BA
:1029E000950880915A0390915B0397FD0396959506
:1029F00087959595879500919D0110919E0198016D
:102A00002E5F3F4F281739072CF0245031098217C9
:102A100093073CF420919B0130919C01820F931FFE
:102A200004C08091990190919A019093A0018093A4
:102A30009F0120919F013091A0013C832B836091E5
:102A40009701709198017A8369832617370709F4F3
:102A500044C162177307B4F480919301909194017B
:102A6000181619067CF08091950190919601181620
:102A7000190644F01092960110929501309294013B
:102A80002092930180919301909194011816190658
:102A90000CF0B3C08B819C81181619065CF0EB8199
:102AA000FC81F7FF9EC0EB81FC81F0938601E093EF
:102AB000850197C0C0909901D0909A010D2C000C0F
:102AC000EE08FF0880919B0190919C012B813C8135
:102AD000281B390BC901330FAA0BBB0B4801012E70
:102AE000000CAA08BB089C01AD01281939094A0944
:102AF0005B096FE770E080E090E06C197D098E095A
:102B00009F090E94451D20916101309162012901B8
:102B1000330F66087708A3019201281939094A0979
:102B20005B090E94911BC20ED31EE41EF51ED092BB
:102B30008601C09285012B813C8169817A8162176F
:102B400073075CF48091890190918A011816190627
:102B500024F030938201209381018B819C814C0170
:102B6000990FAA08BB086091810170918201072E1C
:102B7000000C880B990B0E945E1A20E030E040E4C4
:102B80005FE30E94BD1A6B017C0120E030E0A901E7
:102B90000E94401D20E030E040E05FE387FD05C07B
:102BA000C701B6010E942C1C04C0C701B6010E94D7
:102BB0002B1C0E940A1D86169706A806B9060CF063
:102BC0006ECF8091890190918A01181619060CF434
:102BD00066CF30928A01209289011092880110926A
:102BE0008701809185019091860191958195910948
:102BF000909384018093830116C0EB81FC8129812D
:102C00003A81E217F3077CF4809195019091960147
:102C10001816190644F030929601209295011092F0
:102C2000940110929301809195019091960118164C
:102C300019060CF052C0C0905F01D09060010D2CBD
:102C4000000CEE08FF082B813C81C901330FAA0B51
:102C5000BB0B9C01AD012C193D094E095F09A1E890
:102C6000BFEF0E94BE1B012E000C220B330BA901EB
:102C700098012C193D094E095F090E94911B309360
:102C80008601209385016B817C8189819A816817F7
:102C9000790724F47093820160938101809181010E
:102CA00090918201EB81FC818E179F077CF48091CB
:102CB000890190918A011816190644F030928A0110
:102CC00020928901109288011092870131952195F7
:102CD0003109309384012093830120919501309133
:102CE00096018091930190919401121613060CF4B1
:102CF00084C1181619060CF493C18BE193E00E946D
:102D00009508609138037091390377FF02C06D5FB9
:102D10007F4F7595679575956795072E000C880B05
:102D2000990B0E945E1A60937B0170937C018093E3
:102D30007D0190937E012AE037ED43E25CE30E943F
:102D4000BD1A2B013C016093770170937801809349
:102D5000790190937A0181E893E00E9495088FE5CC
:102D600093E00E949508A0909E03B0909F03B7FE49
:102D700003C0F3E0AF0EB11CB594A794B594A7942B
:102D8000B0927601A0927501E0907C03F0907D03F3
:102D9000F7FE03C023E0E20EF11CF594E794F594EE
:102DA000E794F0927401E092730180917101909127
:102DB00072019501280F391FB901032E000C880BF1
:102DC000990B37FD09C00E945E1A20E030E040E018
:102DD0005FE30E942C1C08C00E945E1A20E030E0D5
:102DE00040E05FE30E942B1C0E940A1D6B01709360
:102DF000700160936F0180916D0190916E01970158
:102E0000280F391FB901032E000C880B990B37FDD1
:102E100009C00E945E1A20E030E040E05FE30E94BB
:102E20002C1C08C00E945E1A20E030E040E05FE306
:102E30000E942B1C0E940A1D8B0170936C016093F1
:102E40006B0180919101909192019C012B5F3F4F0A
:102E50002A153B052CF02A503109A216B3063CF581
:102E6000B601DD0C880B990B0E945E1AA30192013A
:102E70000E94BD1A4B015C0120E030E0A9010E94D4
:102E8000401D20E030E040E05FE387FD05C0C50164
:102E9000B4010E942C1C04C0C501B4010E942B1C6B
:102EA0000E940A1D7093900160938F0104C090935B
:102EB000900180938F0180918D0190918E019C01F2
:102EC0002B5F3F4F2E153F052CF02A503109E2169B
:102ED000F3063CF5B801110F880B990B0E945E1A9E
:102EE000A30192010E94BD1A6B017C0120E030E039
:102EF000A9010E94401D20E030E040E05FE387FD33
:102F000005C0C701B6010E942C1C04C0C701B60150
:102F10000E942B1C0E940A1D70938C0160938B01F0
:102F200004C090938C0180938B0189EF92E00E9402
:102F30009508609116037091170370936A0160936E
:102F40006901CB01770FAA0BBB0BBC01CD0127E0B8
:102F5000660F771F881F991F2A95D1F720E034E06C
:102F600040E050E00E94911BB9013093680120932A
:102F7000670180918F01909190012817390784F0A3
:102F80003195219531098217930754F080918B0177
:102F900090918C01681779071CF0821793074CF504
:102FA0000E943F0800916301109164012091650126
:102FB00030916601DC01CB01801B910BA20BB30B9E
:102FC000893E9340A105B10558F18AE00E94BD0CED
:102FD0000E943F08609363017093640180936501D0
:102FE0009093660164E670E080E090E00E945907EB
:102FF00017C08AE00E94ED0C13C01816190684F45D
:1030000080919101909192019093900180938F0112
:1030100080918D0190918E0190938C0180938B0112
:103020006B817C8189819A8168177907F1F580919C
:10303000890190918A0118161906BCF580918701C3
:1030400090918801099744F11092A00110929F017C
:103050008091990190919A019093860180938501C6
:1030600090938401809383011092960110929501B0
:10307000109294011092930110928201109281019A
:1030800010928A0110928901109288011092870192
:103090001092800110927F018091870190918801A8
:1030A0000196909388018093870180919F01909170
:1030B000A001909398018093970180918F01809354
:1030C000D7018091D60181110E94900C80918B01D3
:1030D0008093D8018091D60181110E94900C80913B
:1030E00085018093D9018091D60181110E94900CB5
:1030F000809183018093DA018091D60181110E9431
:10310000900C80E090E0892B11F40C947F0F0E94CA
:1031100000000C947F0F8091A3039091A4030C9462
:10312000181E0F931F931092AC031092AB0388EEFE
:1031300093E0A0E0B0E08093AD039093AE03A09342
:10314000AF03B093B0038AE291E09093AA03809317
:10315000A9038FEF9FEF9093B6038093B5038091FF
:10316000FF03811113C01092FA031092F90382E653
:1031700092E09093FC038093FB0387E390E09093AD
:10318000FE038093FD0381E08093FF030E941D0BEB
:10319000FC01A385B485109729F489EF93E0948707
:1031A00083870BC08D919C911197009711F0DC01E2
:1031B000F9CF89EF93E08D939C9325853685809197
:1031C000FD039091FE03820F931F968785871092CF
:1031D000D7011092D8011092D9011092DA01109201
:1031E000DB011092DC011092DD011092DE011092E1
:1031F000E2011092E1018CE391E09093E001809371
:10320000DF0180910D04811113C010920804109207
:10321000070489E992E090930A04809309048FE2FD
:1032200090E090930C0480930B0481E080930D0454
:103230000E941D0BFC01A385B485109729F487E03B
:1032400094E0948783870BC08D919C911197009790
:1032500011F0DC01F9CF87E094E08D939C932585F4
:10326000368580910B0490910C04820F931F9687F2
:1032700085871092A4031092A3031092A6031092C4
:10328000A5031092A8031092A70361E070E080E00C
:1032900090E00E94B01E009791F09093A403809359
:1032A000A3031092A6031092A5032091A7033091C7
:1032B000A803232B09F0F2C0FC011082EFC080911B
:1032C000A3039091A403009711F00E94181E10927E
:1032D000A4031092A3031092A8031092A7031092C4
:1032E000A6031092A5030AE017ED23E23CE341E0B8
:1032F00062E170E081E893E00E94100A0AE017EDB5
:1033000023E23CE341E063E170E08FE593E00E945B
:10331000100A0AE017ED23E23CE341E066E170E0C9
:103320008DE393E00E94100A0AE017ED23E23CE3EC
:1033300041E065E170E08BE193E00E94100A0AE051
:1033400017ED23E23CE341E064E170E089EF92E0B5
:103350000E94100A25E030E040E050E064E08AEE90
:1033600092E00E94010B25E030E040E050E066E092
:103370008BED92E00E94010B25E030E040E050E050
:1033800068E08CEC92E00E94010B25E030E040E028
:1033900050E069E08DEB92E00E94010B25E030E007
:1033A00040E050E06AE08EEA92E00E94010B25E0E6
:1033B00030E040E050E065E08FE992E00E94010BD0
:1033C00025E030E040E050E06DE080E992E00E94CE
:1033D000010B25E030E040E050E067E081E892E05A
:1033E0000E94010B25E030E040E050E067E182E719
:1033F00092E00E94010B25E030E040E050E061E007
:1034000083E692E00E94010B25E030E040E050E0CE
:1034100060E084E592E00E94010B25E030E040E0AE
:1034200050E062E085E492E00E94010B25E030E08C
:1034300040E050E063E086E392E00E94010B25E06B
:1034400030E040E050E061E187E292E00E94010B51
:1034500025E030E040E050E06FE088E192E00E943B
:10346000010B25E030E040E050E060E189E092E0CF
:103470000E94010B25E030E040E050E06EE08AEF72
:1034800091E00E94010B25E030E040E050E06BE06D
:103490008BEE91E01F910F910C94010B1092A803F9
:1034A0001092A70364E471E00E94881F1CCF0E9461
:1034B000991A08F481E00895E89409C097FB3EF456
:1034C00090958095709561957F4F8F4F9F4F992371
:1034D000A9F0F92F96E9BB279395F69587957795EF
:1034E0006795B795F111F8CFFAF4BB0F11F460FFAF
:1034F0001BC06F5F7F4F8F4F9F4F16C0882311F007
:1035000096E911C0772321F09EE8872F762F05C01A
:10351000662371F096E8862F70E060E02AF09A95B5
:10352000660F771F881FDAF7880F9695879597F9AA
:103530000895990F0008550FAA0BE0E8FEEF161644
:103540001706E807F907C0F012161306E407F50797
:1035500098F0621B730B840B950B39F40A2661F00B
:10356000232B242B252B21F408950A2609F4A140AE
:10357000A6958FEF811D811D08950E94D01A0C948D
:10358000411B0E94331B38F00E943A1B20F0952308
:1035900011F00C942A1B0C94301B11240C94751BF5
:1035A0000E94521B70F3959FC1F3950F50E0551F79
:1035B000629FF001729FBB27F00DB11D639FAA2788
:1035C000F00DB11DAA1F649F6627B00DA11D661FD7
:1035D000829F2227B00DA11D621F739FB00DA11DF8
:1035E000621F839FA00D611D221F749F3327A00DB2
:1035F000611D231F849F600D211D822F762F6A2F4E
:1036000011249F5750409AF0F1F088234AF0EE0FB2
:10361000FF1FBB1F661F771F881F91505040A9F7DF
:103620009E3F510580F00C942A1B0C94751B5F3F44
:10363000E4F3983ED4F3869577956795B795F7951B
:10364000E7959F5FC1F7FE2B880F911D9695879593
:1036500097F9089597F99F6780E870E060E0089512
:103660009FEF80EC089500240A941616170618069A
:103670000906089500240A94121613061406050676
:103680000895092E0394000C11F4882352F0BB0F07
:1036900040F4BF2B11F460FF04C06F5F7F4F8F4F6A
:1036A0009F4F089557FD9058440F551F59F05F3FA5
:1036B00071F04795880F97FB991F61F09F3F79F054
:1036C00087950895121613061406551FF2CF4695D6
:1036D000F1DF08C0161617061806991FF1CF869558
:1036E0007105610508940895E894BB27662777273C
:1036F000CB0197F90895F999FECF92BD81BDF89A53
:10370000992780B50895262FF999FECF1FBA92BD4B
:1037100081BD20BD0FB6F894FA9AF99A0FBE0196B2
:103720000895052E97FB1EF400940E94A81B57FDD8
:1037300007D00E94FA1B07FC03D04EF40C94A81B80
:1037400050954095309521953F4F4F4F5F4F0895CD
:1037500090958095709561957F4F8F4F9F4F0895FD
:103760000E941C1CA59F900DB49F900DA49F800DDE
:10377000911D11240895B7FF0C94B01B0E94B01B3B
:10378000821B930B08952F923F924F925F926F92FC
:103790007F928F929F92AF92BF92CF92DF92EF92E1
:1037A000FF920F931F93CF93DF93CDB7DEB7CA1B62
:1037B000DB0B0FB6F894DEBF0FBECDBF09942A888D
:1037C000398848885F846E847D848C849B84AA8435
:1037D000B984C884DF80EE80FD800C811B81AA81C2
:1037E000B981CE0FD11D0FB6F894DEBF0FBECDBF8D
:1037F000ED010895A1E21A2EAA1BBB1BFD010DC00D
:10380000AA1FBB1FEE1FFF1FA217B307E407F50790
:1038100020F0A21BB30BE40BF50B661F771F881F6C
:10382000991F1A9469F760957095809590959B0102
:10383000AC01BD01CF010895A29FB001B39FC001AB
:10384000A39F700D811D1124911DB29F700D811DCC
:103850001124911D08955058BB27AA270E94431C8C
:103860000C94411B0E94331B38F00E943A1B20F03D
:1038700039F49F3F19F426F40C94301B0EF4E095B4
:10388000E7FB0C942A1BE92F0E94521B58F3BA172E
:10389000620773078407950720F079F4A6F50C9466
:1038A000741B0EF4E0950B2EBA2FA02D0B01B9015D
:1038B00090010C01CA01A0011124FF27591B99F0A6
:1038C000593F50F4503E68F11A16F040A22F232FB2
:1038D000342F4427585FF3CF469537952795A79502
:1038E000F0405395C9F77EF41F16BA0B620B730BA9
:1038F000840BBAF09150A1F0FF0FBB1F661F771F1A
:10390000881FC2F70EC0BA0F621F731F841F48F4CE
:10391000879577956795B795F7959E3F08F0B0CF57
:103920009395880F08F09927EE0F9795879508953E
:103930000E94AC1C0C94411B0E943A1B58F00E9440
:10394000331B40F029F45F3F29F00C942A1B5111DE
:103950000C94751B0C94301B0E94521B68F3992326
:10396000B1F3552391F3951B550BBB27AA2762177B
:103970007307840738F09F5F5F4F220F331F441F88
:10398000AA1FA9F335D00E2E3AF0E0E832D09150BC
:103990005040E695001CCAF72BD0FE2F29D0660FA9
:1039A000771F881FBB1F261737074807AB07B0E8EC
:1039B00009F0BB0B802DBF01FF2793585F4F3AF0F2
:1039C0009E3F510578F00C942A1B0C94751B5F3FA9
:1039D000E4F3983ED4F3869577956795B795F79578
:1039E0009F5FC9F7880F911D9695879597F9089560
:1039F000E1E0660F771F881FBB1F621773078407FC
:103A0000BA0720F0621B730B840BBA0BEE1F88F70A
:103A1000E09508950E94111D6894B1110C94751BD6
:103A200008950E945A1B88F09F5798F0B92F992744
:103A3000B751B0F0E1F0660F771F881F991F1AF099
:103A4000BA95C9F714C0B13091F00E94741BB1E06F
:103A500008950C94741B672F782F8827B85F39F06E
:103A6000B93FCCF3869577956795B395D9F73EF432
:103A700090958095709561957F4F8F4F9F4F0895DA
:103A80000E94991A08F48FEF0895DB018F939F939A
:103A90000E94B01BBF91AF91A29F800D911DA39F6B
:103AA000900DB29F900D1124089597FB072E16F4E8
:103AB000009407D077FD09D00E946F1D07FC05D048
:103AC0003EF4909581959F4F0895709561957F4F35
:103AD0000895EE0FFF1F0590F491E02D0994AA1BA5
:103AE000BB1B51E107C0AA1FBB1FA617B70710F0E9
:103AF000A61BB70B881F991F5A95A9F7809590951B
:103B0000BC01CD010895CF93DF938230910510F46D
:103B100082E090E0E0911704F091180420E030E09A
:103B2000C0E0D0E0309711F140815181481759072A
:103B3000C0F04817590761F482819381209719F0EA
:103B40009B838A832BC0909318048093170426C00C
:103B50002115310519F04217530718F49A01BE01D7
:103B6000DF01EF010280F381E02DDCCF211531056B
:103B700009F1281B390B2430310590F412968D91F0
:103B80009C9113976115710521F0FB01938382834A
:103B900004C09093180480931704FD01329644C02A
:103BA000FD01E20FF31F81939193225031092D9370
:103BB0003C933AC02091150430911604232B41F414
:103BC00020911601309117013093160420931504AB
:103BD00020911401309115012115310541F42DB7C3
:103BE0003EB74091180150911901241B350BE0910B
:103BF0001504F0911604E217F307A0F42E1B3F0BF7
:103C00002817390778F0AC014E5F5F4F241735074E
:103C100048F04E0F5F1F5093160440931504819394
:103C2000919302C0E0E0F0E0CF01DF91CF910895E1
:103C30000F931F93CF93DF93009709F48CC0FC017F
:103C40003297138212820091170410911804011503
:103C5000110581F420813181820F931F2091150479
:103C6000309116042817390779F5F0931604E0937C
:103C7000150471C0D80140E050E0AE17BF0750F402
:103C800012962D913C911397AD012115310509F143
:103C9000D901F3CF9D01DA013383228360817181E1
:103CA000860F971F8217930769F4EC0128813981E9
:103CB000260F371F2E5F3F4F318320838A819B81E0
:103CC00093838283452B29F4F0931804E09317041F
:103CD00042C01396FC93EE931297ED0149915991CE
:103CE0009E01240F351FE217F30771F48081918143
:103CF000840F951F029611969C938E9382819381D7
:103D000013969C938E931297E0E0F0E0D801129600
:103D10008D919C911397009719F0F8018C01F6CFC3
:103D20008D919C9198012E5F3F4F820F931F2091A0
:103D30001504309116042817390769F4309729F4CF
:103D4000109218041092170402C01382128210936A
:103D5000160400931504DF91CF911F910F910895E0
:103D6000A0E0B0E0E6EBFEE10C94C71BEC0100978D
:103D700021F4CB010E94831DB8C0FC01E60FF71FA0
:103D80009C0122503109E217F30708F4ACC0D901B5
:103D90000D911C91119706171707B0F0053011050A
:103DA00008F49FC0C80104978617970708F499C0C4
:103DB00002501109061B170B019311936D937C930D
:103DC000CF010E94181E8DC05B01A01AB10A4C01E0
:103DD000800E911EA0911704B091180440E050E0AD
:103DE000E12CF12C109709F44AC0A815B905D1F5BA
:103DF0006D907C901197630182E0C80ED11CCA14AB
:103E0000DB0480F1A3014A195B096A0182E0C80E54
:103E1000D11C1296BC9012971396AC91B5E0CB16BC
:103E2000D10440F0B282A38351834083D9016D93C2
:103E30007C930AC00E5F1F4FC301800F911FF901D1
:103E400091838083EB2DFA2FE114F10431F0D70137
:103E50001396FC93EE93129744C0F0931804E093EA
:103E600017043FC08D919C9111974817590708F48A
:103E7000AC017D0112960D90BC91A02DB3CF809125
:103E800015049091160488159905E1F44617570713
:103E9000C8F48091140190911501009741F48DB7F9
:103EA0009EB74091180150911901841B950BE8179A
:103EB000F907C8F4F0931604E0931504F90171832F
:103EC00060830FC0CB010E94831D7C01009759F0D5
:103ED000A801BE010E947F1FCE010E94181EC701CB
:103EE00004C0CE0102C080E090E0CDB7DEB7EEE0C6
:103EF0000C94E31B81E090E0F8940C948F1FFB017D
:103F0000DC0102C001900D9241505040D8F7089555
:103F1000FB01DC0101900D920020E1F7089511E012
:103F2000C5E6D1E004C0FE010E94691D2196C63697
:083F3000D107C9F7F894FFCF97
:103F38000100C18081000000FFFFFFFF00E10000D9
:103F480000000000000019048000000000008F023B
:103F58007B063B06B60200000000ED012D080E02AC
:103F680003021302DF02FD02000000004A0CAE014A
:063F7800DA02D90200008C
:2070000055C000006EC000006CC000006AC0000068C0000066C0000064C0000062C0000043
:2070200060C000005EC00000F2C400005AC0000058C0000056C0000054C0000052C00000EE
:2070400050C0000078C000004CC000004AC0000048C0000046C0000044C0000042C00000BE
:2070600040C000003EC000003CC000003AC0000038C0000036C0000034C0000032C0000048
:2070800030C000002EC000002CC000002AC0000028C0000026C0000024C0000022C00000A8
:2070A00020C000001EC000001CC0000011241FBECFEFDAE0DEBFCDBF11E0A0E0B1E0E2E3BC
:2070C000FFE702C005900D92A83AB107D9F711E0A8EAB1E001C01D92AE3BB107E1F78FD30B
:2070E00026C78ECFF89410926F0010928100109285001092840081E085BF15BE47985D9AEB
:20710000289A0C94000008952091B2013091B3012F5F3F4F3093B3012093B201932F37FFA6
:2071200003C08EEF831B982F990F921710F447980895479A08951F920F920FB60F9211246E
:207140002F938F939F93EF93FF9310928500109284008091A8019091A901009741F00197D3
:207160009093A9018093A801892B09F45D9A8091AA019091AB01009741F001979093AB0126
:207180008093AA01892B09F4289AE0E0F0E0859194918F5F9F4F49F08091AC019091AD0151
:2071A00001969093AD018093AC01FF91EF919F918F912F910F900FBE0F901F90189584E0BC
:2071C0008093E9000DC08091E8008B778093E80003C08EB3882351F08091E80082FFF9CFBE
:2071E0008091E80085FFEFCF8091F1000895982F83E08093E9008091E80085FD0DC0809136
:20720000E8008E778093E80003C08EB3882369F08091E80080FFF9CF9093F1005D9884E6CB
:2072200090E09093A9018093A80108954F925F926F927F928F929F92AF92BF92CF92DF921E
:20724000EF92FF920F931F93CF93DF9384E08093E9008091E80082FF57C2289884E690E067
:207260009093AB018093AA01AADF182F853481F48CE49DE19093AD018093AC0107B600FC4B
:20728000FDCFF999FECF81E180935700E89503C0843519F494DF8DE00DC28C34E1F38035F9
:2072A000D1F3843721F484E4A2DF80E003C2813611F489E5FFC18134B1F481DF182F7FDFE3
:2072C00090E0880F991FAA2797FDA095BA2F312F330F20E0442737FD4095542F822B932B68
:2072E000A42BB52BB8C1803711F483E5E3C1833549F4C0E0D1E089917ADF21E0C730D20714
:20730000D1F7D9C1863521F481E371DF80E3D2C1833731F487E86BDF85E969DF8EE1CAC149
:207320008536B9F4E0E0F0E093E085E090935700E89507B600FCFDCF80935700E89507B65D
:2073400000FCFDCFE058FF4FA0E7E030FA0771F7A2CF823739F4E1E0F0E089E08093570024
:207360008491A8C1863439F4E0E0F0E089E08093570084919FC18E3439F4E3E0F0E089E0E5
:2073800080935700849196C1813539F4E2E0F0E089E08093570084918DC1823631F489E521
:2073A00026DF80E024DF80E885C1823419F0873609F0E5C01092AD011092AC0100DF082FE8
:2073C000FEDEF82EFCDE682E8554823008F071C1902F80E0CF2DD0E0C82BD92B10926F00B3
:2073E000173609F04BC081E180935700E895DD24CC24C3943FC0E090AE01F090AF010091CC
:20740000B0011091B101B6E46B16D9F4ED2DF0E0EE29FF29E4918E2FEADEDD2081F082E08D
:2074200090E0A0E0B0E0E80EF91E0A1F1B1FE092AE01F092AF010093B0011093B101DC2470
:2074400018C0D801C701B695A7959795879559D5CEDE82E090E0A0E0B0E0E80EF91E0A1FF2
:207460001B1FE092AE01F092AF010093B0011093B1012197209709F0BECF7DC08090AE01F5
:207480009090AF01A090B001B090B10196E4691609F05DC083E0F40180935700E89507B63E
:2074A00000FCFDCF54C0F6E46F1661F5772031F1E090AE01F090AF010091B0011091B1019E
:2074C0007EDED82ECC24852D90E08C299D29F7010C0140925700E895112482E090E0A0E08B
:2074E000B0E0E80EF91E0A1F1B1FE092AE01F092AF010093B0011093B10102C060DE582E1A
:20750000742423C0E090AE01F090AF010091B0011091B10116950795F794E79450DE682FFA
:20752000C701F7D48091AE019091AF01A091B001B091B1010296A11DB11D8093AE01909349
:20754000AF01A093B001B093B101219704C05524772444244394209709F0A5CF96E46916B6
:2075600041F485E0F40180935700E89507B600FCFDCF8DE03CDE82E080936F009CC0833492
:2075800071F40091AE011091AF0119DE90E021E0F8010C0120935700E89511247CCE8336C8
:2075A00019F5E090AE01F090AF010091B0011091B10105DEF701E16090E021E00C0120938C
:2075C0005700E895112482E090E0A0E0B0E0E80EF91E0A1F1B1FE092AE01F092AF0100936A
:2075E000B0011093B10157CE8D3661F4E091AE01F091AF0185E080935700E89507B600FCF2
:20760000FDCF49CE823551F4E091AE01F091AF0105911491812FEBDD802F4CC0843421F5FE
:20762000E090AE01F090AF010091B0011091B10116950795F794E794C2DD682FC70169D4DE
:207640008091AE019091AF01A091B001B091B1010296A11DB11D8093AE019093AF01A093D8
:20766000B001B093B10117CE843609F5E090AE01F090AF010091B0011091B101D801C70142
:20768000B695A795979587953CD4B1DD82E090E0A0E0B0E0E80EF91E0A1F1B1FE092AE010A
:2076A000F092AF010093B0011093B10104C08B3111F08FE39CDD83E08093E9009091E8002B
:2076C0008091E8008E778093E80095FF04C010C08EB38823C9F08091E80080FFF9CF809193
:2076E000E8008E778093E80003C08EB3882361F08091E80080FFF9CF84E08093E9008091F1
:20770000E8008B778093E800DF91CF911F910F91FF90EF90DF90CF90BF90AF909F908F90AC
:207720007F906F905F904F9008959091B601892F8F77813249F58091B7018032A1F081328A
:2077400019F5913A09F58091E800877F8093E8008DE091E067E070E00BD28091E8008B770B
:207760008093E8000895913279F48091E800877F8093E8008DE091E067E070E05DD2809192
:20778000E8008E778093E800089582E061EC42E0B5D083E061E842E1B1D084E060E842E1EF
:2077A000ADC084B7877F84BF88E10FB6F89480936000109260000FBE20E880E090E00FB63F
:2077C000F89420936100809361000FBE81E085BF92E095BF3F9A209A559AE1E6F0E02083A1
:2077E000108247985D9A289A109289008AEF8093880090936F0083E080938100F0C0409116
:20780000000850910108109201081092000894B714BE88E10FB6F8948093600010926000D5
:207820000FBE292F30E0F901E270F07091FD18C090FF05C0859194918F5F9F4F81F423FFFF
:207840000FC08091090190910A014817590741F0E0E0F0E0859194918F5F9F4F09F042DC64
:20786000A0DF78941092AD011092AC010CC0DEDC36D38091AC019091AD0181549F4110F00D
:207880001092140141DC80911401882381F78091E00081608093E00025DC80E090E0089598
:2078A000FA01923049F0933061F09130F9F485E191E022E130E01EC087E291E02EE330E04D
:2078C00019C0882329F485E691E024E030E012C0813029F489E691E022E230E00BC0823006
:2078E00029F48DE891E028E130E004C080E090E020E030E091838083C90108958093E9004E
:207900008091EB0081608093EB001092ED006093EC004093ED008091EE00881F8827881F62
:2079200008958091B60188238CF403C08EB38823B1F08091E80082FFF9CF8091E8008B772A
:207940008093E80008958EB3882349F08091E80080FFF9CF8091E8008E778093E800089594
:20796000EF92FF920F931F9345D04CD008ED10E0F80180818F77808380818068808380819B
:207980008F7D808319BC1EBA1092B40180EEE82EF12CF70180818B7F8083F8018081816052
:2079A000808380E060E042E0A9DFE1EEF0E080818E7F8083E2EEF0E0808181608083808144
:2079C00088608083F70180818E7F8083F8018081806180831F910F91FF90EF900895E7ED06
:2079E000F0E08081816080838AE482BF81E08093B501B6CFE8EDF0E080818E7F808310921C
:207A0000E20008951092DA001092E10008951F920F920FB60F9211242F933F934F935F93F6
:207A20006F937F938F939F93AF93BF93EF93FF938091DA0080FF1BC08091D80080FF17C0B2
:207A40008091DA008E7F8093DA008091D90080FF0BC080E189BD82E189BD09B400FEFDCF36
:207A600081E08EBB3BD203C019BC1EBA37D28091E10080FF17C08091E20080FF13C0809138
:207A8000E2008E7F8093E2008091E20080618093E2008091D80080628093D80019BC85E049
:207AA0008EBB1CD28091E10084FF2CC08091E20084FF28C080E189BD82E189BD09B400FEC5
:207AC000FDCF8091D8008F7D8093D8008091E1008F7E8093E1008091E2008F7E8093E20012
:207AE0008091E20081608093E2008091B401882331F48091E30087FD02C081E001C084E067
:207B00008EBBECD18091E10083FF21C08091E20083FF1DC08091E100877F8093E10082E06A
:207B20008EBB1092B4018091E1008E7F8093E1008091E2008E7F8093E2008091E2008061E9
:207B40008093E20080E060E042E0D8DEC7D1FF91EF91BF91AF919F918F917F916F915F9130
:207B60004F913F912F910F900FBE0F901F9018959C014091BC015091BD014617570718F49D
:207B8000F90190E044C06115710511F0AB01F8CF8091E8008E778093E80040E050E0F0CF0F
:207BA0008EB3882309F444C0853009F443C08091E80083FF02C081E008958091E80082FD70
:207BC00031C08091E80080FF22C08091F3009091F200782F60E0292F30E0262B372B07C07A
:207BE00081918093F100415050402F5F3F4F4115510519F02830310598F390E02830310566
:207C000009F491E08091E8008E778093E8004115510531F6992321F605C08EB3882341F075
:207C2000853041F08091E80082FFF7CF80E0089582E0089583E008959C016115710529F47C
:207C40008091E8008B778093E800F90126C08EB3882391F1853091F18091E80083FF02C06C
:207C600081E008958091E80082FFF1CF06C08091F10081936150704059F02091F300809191
:207C8000F200322F20E090E0822B932B892B79F78091E8008B778093E80061157105B9F601
:207CA00005C08EB3882341F0853041F08091E80080FFF7CF80E0089582E0089583E00895C2
:207CC0000F931F93DF93CF9300D0CDB7DEB7E6EBF1E08091F100819381E0EE3BF807C9F792
:207CE00024DD8091E80083FFE4C08091B6019091B701953009F46DC0963040F4913081F1A7
:207D0000913070F0933009F0D4C02AC0983009F4A3C0993009F4B2C0963009F0CAC07CC023
:207D2000803809F4C6C0823809F0C3C08091BA0187708093E9008091EB001092E9002091DB
:207D4000E800277F2093E80090E025E0969587952A95E1F781708093F1001092F10087C0D8
:207D6000882319F0823009F0A4C08F71823009F0A0C08091B801882331F52091BA01277097
:207D800009F497C02093E9008091EB0080FF1BC0933021F48091EB00806213C08091EB0018
:207DA00080618093EB0081E090E002C0880F991F2A95E2F78093EA001092EA008091EB00E5
:207DC00088608093EB001092E9008091E800877F51C0882309F06DC01091B8011F770FB79B
:207DE000F8948091E800877F8093E8009ADD8091E80080FFFCCF8091E3008078812B809398
:207E0000E30080688093E300112311F482E001C083E08EBB0FBF4DC08058823008F049C033
:207E20008091B8019091B9016091BA01AE014F5F5F4F36DDBC01009709F43BC08091E8008E
:207E4000877F8093E80089819A8192DE8091E8008B778093E8002DC0803859F58091E800AA
:207E6000877F8093E8008091B4018093F1008091E8008E778093E80054DD1BC08823C9F4CA
:207E80009091B8019230A8F48091E800877F8093E8009093B40145DD8091B401882331F420
:207EA0008091E30087FD02C081E001C084E08EBB6CDC8091E80083FF0AC08091EB0080624E
:207EC0008093EB008091E800877F8093E8000F900F90CF91DF911F910F91089508951F9360
:207EE0008EB3882361F01091E9001092E9008091E80083FF01C0E4DE17701093E9001F916F
:207F00000895F999FECF92BD81BDF89A992780B50895262FF999FECF1FBA92BD81BD20BDBD
:207F20000FB6F894FA9AF99A0FBE01960895F894FFCF4341544552494E4100777700080031
:207F40000000000000080112011001020000084123360001000201000109023E00020100FF
:207F600080320904000001020201000524001001042402040524060001070582030800FF0C
:207F800009040100020A000000070504021000010705830210000104030904220341007216
:207FA000006400750069006E006F0020004C0065006F006E006100720064006F0000001836
:1A7FC00003410072006400750069006E006F0020004C004C004300000000D7
:00000001FF
