:100000000C9497010C946E080C949B080C94BF01FF
:100010000C94BF010C94BF010C94BF010C94BF0160
:100020000C94BF010C94BF010C94050F0C94900F1D
:100030000C94BF010C94BF010C94BF010C94BF0140
:100040000C94BF010C94BF010C94BF010C94BF0130
:100050000C94BF010C94BF010C94BF010C94C80810
:100060000C94BF010C94BF010C94BF010C94BF0110
:100070000C94BF010C94BF010C94BF010C94BF0100
:100080000C94BF010C94BF010C94BF010C94BF01F0
:100090000C94BF010C94BF010C94BF010C94BF01E0
:1000A0000C94BF010C94BF010C94BF010000000030
:1000B000240027002A002D00300000000000250049
:1000C00028002B002E003100000000002300260035
:1000D00029002C002F000404040404030405020278
:1000E00002020403020202020606060606060404D1
:1000F00002020204040802011040804010204080E7
:10010000408008020401804020100201108010206D
:1001100040400000000200080E0000030401000B34
:100120000000070605040100080A0B0C0D09050173
:100130000906A1018502050719E029E71500250137
:10014000750195088102950175088103950675086A
:10015000150025650507190029658100C0050109FD
:1001600005A101850315002501350045017501959F
:100170000D05091901290481029503810105012555
:100180000046000075049501650009008142650084
:100190009501810126FF0046FF00093009317508ED
:1001A00095028102267F00467F00093209357508D5
:1001B000950281020600FF0920092109220923096D
:1001C0002409250926092709280929092A092B951F
:1001D0000C81020A21269508B102C009040200011F
:1001E0000300000009210101000122AD0007058480
:1001F0000340000100000000000000002A2B28003E
:1002000000000000000000000000000000000000EE
:10021000000000002C9EB4A0A1A2A434A6A7A5AE05
:10022000362D3738271E1F20212223242526B333BD
:10023000B62EB7B89F8485868788898A8B8C8D8EE9
:100240008F909192939495969798999A9B9C9D2FB5
:100250003130A3AD350405060708090A0B0C0D0E55
:100260000F101112131415161718191A1B1C1DAF95
:10027000B1B0B500040309042403500049004E0046
:10028000630061006200200043006F006E00740094
:1002900072006F006C006C00650072001E037A0033
:1002A00065006200730062006F006100720064000C
:1002B00073002E0063006F006D0012010002000049
:1002C0000040A020B24110420102000112010002D0
:1002D00002000040A020B241A0200102000100C1A4
:1002E0008081C1080B000202020100090400000124
:1002F000020200000524001001052401010104246C
:1003000002060524060001070581031000400904C8
:100310000100020A00000007050202400000070574
:100320008302400000000903670C410E6C11112488
:100330001FBECFEFDAE0DEBFCDBF11E0A0E0B1E03D
:10034000EAEBF7E202C005900D92A033B107D9F7AE
:1003500012E0A0E3B1E001C01D92AF36B107E1F7B2
:1003600013E0CEE2D3E004C02297FE010E94D7132F
:10037000C632D107C9F70E94510D0C94DB130C94BF
:100380000000A091E001B091E101ED91FD9180812B
:10039000ED91FD919081ED91FD916C9163708E23B3
:1003A00009F064609F2309F06860E1EEF1E0E60F78
:1003B000F11D659565956D936D917D918D919D91E3
:1003C000099423C01AC012C016C010C01EC009C0B4
:1003D00014C013C006C019C009C00DC007C00DC0AD
:1003E00014C062507040804090400BC0615070401B
:1003F0008040904006C06E5F01C06F5F7F4F8F4F9F
:100400009F4F9E938E937E936E930895A091E201E9
:10041000B091E301ED91FD918081ED91FD9190818D
:10042000ED91FD916C9163708E2309F064609F23C0
:1004300009F06860E6E2F2E0E60FF11D659565956A
:100440006D936D917D918D919D91099423C01AC0FA
:1004500012C016C010C01EC009C014C013C006C010
:1004600019C009C00DC007C00DC014C06250704053
:10047000804090400BC0615070408040904006C06A
:100480006E5F01C06F5F7F4F8F4F9F4F9E938E9324
:100490007E936E930895A091E401B091E501ED91F2
:1004A000FD918081ED91FD919081ED91FD916C9197
:1004B00063708E2309F064609F2309F06860EBE6A7
:1004C000F2E0E60FF11D659565956D936D917D9157
:1004D0008D919D91099423C01AC012C016C010C0FE
:1004E0001EC009C014C013C006C019C009C00DC089
:1004F00007C00DC014C062507040804090400BC0D7
:10050000615070408040904006C06E5F01C06F5FD8
:100510007F4F8F4F9F4F9E938E937E936E93089540
:10052000A091E601B091E701ED91FD918081ED91FF
:10053000FD919081ED91FD916C9163708E2309F096
:1005400064609F2309F06860E0EBF2E0E60FF11DC4
:10055000659565956D936D917D918D919D910994B2
:1005600023C01AC012C016C010C01EC009C014C0DB
:1005700013C006C019C009C00DC007C00DC014C00B
:1005800062507040804090400BC06150704080408D
:10059000904006C06E5F01C06F5F7F4F8F4F9F4FCF
:1005A0009E938E937E936E930895813029F18130CE
:1005B000B0F0823061F0833011F080E008957093E4
:1005C000E1016093E00180E061EC71E00FC07093A5
:1005D000E3016093E20181E066E072E007C070939E
:1005E000E5016093E40182E06BE472E041E050E0F9
:1005F0000E944B0881E008957093E7016093E60143
:1006000083E060E972E041E050E00E944B0881E045
:1006100008951F9380E391E064E025E030E040E03E
:1006200050E00E942C088FE391E065E025E030E087
:1006300040E050E00E942C088EE491E066E025E066
:1006400030E040E050E00E942C088DE591E067E04A
:1006500025E030E040E050E00E942C088CE691E07C
:1006600068E025E030E040E050E00E942C088BE795
:1006700091E069E025E030E040E050E00E942C0885
:100680008AE891E06AE025E030E040E050E00E9436
:100690002C0889E991E060E125E030E040E050E09D
:1006A0000E942C0882E062E00E94190A83E062E066
:1006B0000E94190A48ED50E0FA018491282F30E099
:1006C000220F331F28533F4FF90185919491909346
:1006D000A9018093A80126EF30E0F901849180936D
:1006E000AC014F5F5F4FFA018491E82FF0E0EE0F0D
:1006F000FF1FE853FF4F859194919093AB01809336
:10070000AA012F5F3F4FF90184918093AD011092B0
:10071000AF011092B0011092B1011092B20180EDC0
:1007200097E00E947709E091A801F091A90120814A
:1007300040E030E08091AC0190E028233923232B66
:1007400009F041E0E091AA01F091AB01208130E095
:100750008091AD0190E028233923232B09F04260DA
:100760004093AE0182E068EA71E00E94D502182F42
:100770008093B30183E068EA71E00E94D502180F0C
:100780001093B3011F910895AF92BF92CF92DF9261
:10079000EF92FF920F931F93DF93CF93CDB7DEB706
:1007A00065970FB6F894DEBF0FBECDBF0E94210B38
:1007B0002F87388B498B5A8B6B8B7C8B8D8BDE0113
:1007C0001196FE013F9687E001900D928150E1F76E
:1007D00080E391E00E94F40780E391E00E94B80773
:1007E000882329F085EF91E061E80E94CC0C80E33A
:1007F00091E00E94B007882329F085EF91E061E83D
:100800000E94890C8FE391E00E94F4078FE391E04E
:100810000E94B807882329F085EF91E065E80E94DF
:10082000CC0C8FE391E00E94B007882329F085EF7C
:1008300091E065E80E94890C8EE491E00E94F40743
:100840008EE491E00E94B807882329F085EF91E0BB
:1008500060E80E94CC0C8EE491E00E94B0078823EF
:1008600029F085EF91E060E80E94890C8DE591E028
:100870000E94F4078DE591E00E94B807882329F0D3
:1008800085EF91E064E80E94CC0C8DE591E00E9438
:10089000B007882329F085EF91E064E80E94890C75
:1008A0008CE691E00E94F4078CE691E00E94B80784
:1008B000882329F085EF91E061E30E94CC0C8CE65F
:1008C00091E00E94B007882329F085EF91E061E371
:1008D0000E94890C8BE791E00E94F4078BE791E07E
:1008E0000E94B807882329F085EF91E065E60E9411
:1008F000CC0C8BE791E00E94B007882329F085EFAC
:1009000091E065E60E94890C8AE891E00E94F40774
:100910008AE891E00E94B807882329F085EF91E0EA
:1009200060EB0E94CC0C8AE891E00E94B00788231B
:1009300029F085EF91E060EB0E94890C89E991E054
:100940000E94F40789E991E00E94B807882329F002
:1009500085EF91E065E30E94CC0C89E991E00E946B
:10096000B007882329F085EF91E065E30E94890CA8
:100970008EE00E94B60A8C018FE00E94B60A7C01CC
:1009800084E10E94B60A6C0185E10E94B60A5C010E
:1009900080E00E94E1099093D1018093D00181E031
:1009A0000E94E109BC019093DD018093DC0140913C
:1009B000D0015091D1012091CE013091CF01C901D8
:1009C0000A96841795072CF0C9010A97481759070A
:1009D0003CF48091CC019091CD01840F951F06C00D
:1009E0008091CC019091CD01820F931F9093D30100
:1009F0008093D2012091DA013091DB01C9010A967E
:100A0000861797072CF0C9010A97681779073CF4F5
:100A10008091D8019091D901860F971F06C08091CF
:100A2000D8019091D901820F931F9093DF01809399
:100A3000DE015091D2014091DE013091BC01209144
:100A4000BE0190E0012B09F491E089818E7F892B12
:100A5000898390E0EF2809F491E0990F89818D7FD7
:100A6000892B898390E0CD2809F491E0990F990FA3
:100A700089818B7F892B898390E0AB2809F491E0F1
:100A8000990F990F990F8981877F892B89835C83BF
:100A90004D833E832F83DE011896FE01319687E059
:100AA00001900D928150E1F7288539854A855B8553
:100AB0006C857D858E8590E065960FB6F894DEBFD7
:100AC0000FBECDBFCF91DF911F910F91FF90EF909F
:100AD000DF90CF90BF90AF900895AF92BF92CF922A
:100AE000DF92EF92FF920F931F93DF93CF93CDB7D7
:100AF000DEB72E970FB6F894DEBF0FBECDBF0E94B3
:100B0000C403288739874A875B876C877D878E87F0
:100B1000DE011196FE01389687E001900D9281501A
:100B2000E1F781E092E009811A812B813C814D81BE
:100B30005E816F810E940C0C8091B301823008F0BD
:100B400044C0F894A8EAB1E0ED91FD918081ED9167
:100B5000FD919081ED91FD916C9163708E2309F070
:100B600064609F2309F06860E0ECF5E0E60FF11D9A
:100B7000659565956D936D917D918D919D9109948C
:100B800023C01AC012C016C010C01EC009C014C0B5
:100B900013C006C019C009C00DC007C00DC014C0E5
:100BA00062507040804090400BC061507040804067
:100BB000904006C06E5F01C06F5F7F4F8F4F9F4FA9
:100BC0009E938E937E936E9301C0F8947894809157
:100BD000AF019091B0019093B9018093B80189520F
:100BE0009A4094F088E29AE09093B9018093B8011A
:100BF00088E29AE0A0E0B0E08093B4019093B50160
:100C0000A093B601B093B7018091B8019091B9015A
:100C100080579E4F94F480E79EEF9093B9018093A4
:100C2000B80180E79EEFAFEFBFEF8093B4019093E0
:100C3000B501A093B601B093B7018091B80190912E
:100C4000B901AA2797FDA095BA2F2091B401309140
:100C5000B5014091B6015091B70182179307A407DF
:100C6000B50709F441C00E9410096093C001709358
:100C7000C1018093C2019093C3012091B8013091CA
:100C8000B9013093BB012093BA01FFEF2C3E3F071F
:100C90000CF053C0B901882777FD8095982F0E94EA
:100CA000631220E030E040EF50EC0E94EF120E940F
:100CB00030127093B9016093B80160577E4F34F4DD
:100CC00080E79EEF9093B9018093B8018091B801BD
:100CD0009091B90189529A4084F188E29AE0909308
:100CE000B9018093B80129C00E9410092091C00168
:100CF0003091C1014091C2015091C301621B730B3D
:100D0000840B950B615D774080409040B0F010926D
:100D1000B9011092B8011092B4011092B50110926D
:100D2000B6011092B701F8941092AF011092B00181
:100D30001092B1011092B20178946091B801709153
:100D4000B901882777FD8095982F6093B40170933F
:100D5000B5018093B6019093B70100D000D02FE782
:100D600030E040E050E0EDB7FEB7218332834383AB
:100D7000548320E73EEF4FEF5FEFE8E2EE2EEAE02C
:100D8000FE2E012D112DAA24BB2465010E94D9102D
:100D90007093BD016093BC017093BF016093BE016D
:100DA0000F900F900F900F902E960FB6F894DEBF15
:100DB0000FBECDBFCF91DF911F910F91FF90EF90AC
:100DC000DF90CF90BF90AF90089580E062E00E94E6
:100DD000190A81E062E00E94190A82E062E00E9442
:100DE000190A83E062E00E94190A84E062E00E942E
:100DF000190A85E062E00E94190A86E062E00E941A
:100E0000190A87E062E00E94190A88E062E00E9405
:100E1000190A89E062E00E94190A8AE062E00E94F1
:100E2000190A8EE062E00E94190A8FE062E00E94D7
:100E3000190A80E162E00E94190A82E162E00E94E0
:100E4000190A83E162E00E94190A84E162E00E94CB
:100E5000190A85E162E00E94190A85EF91E00E947B
:100E6000020B08950E94E5060FC080E00E94E10990
:100E700081E00E94E1098091C6019091C70101962D
:100E80009093C7018093C6012091C6013091C7019C
:100E900080910201909103012817390734F32BC088
:100EA00080E00E94E1099093C9018093C8012091DC
:100EB000CA013091CB01280F391F3093CB01209309
:100EC000CA0181E00E94E1099093D5018093D40189
:100ED0002091D6013091D701280F391F3093D701C7
:100EE0002093D6018091C4019091C5010196909301
:100EF000C5018093C4012091C4013091C501809146
:100F00000001909101012817390754F28091CA011C
:100F10009091CB016EE170E00E9471139B01709380
:100F2000CF016093CE018091D6019091D7016EE1FF
:100F300070E00E947113AB017093DB016093DA01E2
:100F40008FE790E0BC01621B730B7093CD0160933F
:100F5000CC01841B950B9093D9018093D8010895FF
:100F6000FC018685882319F08485811181E008952C
:100F7000FC018685882311F420E005C020E08485EB
:100F8000882309F421E0822F08951F93CF93DF93E4
:100F9000EC018D850E94B60A182F8C858117E9F027
:100FA0000E941009288139814A815B81621B730B81
:100FB000840B950B2C813D814E815F8162177307F5
:100FC0008407950750F00E941009688379838A830B
:100FD0009B831C8721E030E002C020E030E0C901A3
:100FE000DF91CF911F910895CF93DF93EC010E9481
:100FF000C507892B09F588859985AA85BB85009742
:10100000A105B10529F10E941009288139814A8181
:101010005B81621B730B840B950B288539854A8590
:101020005B85621773078407950790F00E9410098B
:10103000688379838A839B83188619861A861B8620
:1010400081E08E8721E030E0C901DF91CF910895E2
:101050001E8620E030E0F8CFFF920F931F938C01A3
:10106000F62EFC0124833583468357831086118630
:10107000128613860E941009F801608371838283AF
:1010800093838F2D0E94B60AF8018487F5861F91FD
:101090000F91FF900895823000F5E82FF0E0EE0FF9
:1010A000FF1FE851FE4F71836083882319F0813060
:1010B000A1F408C0809169008C7F842B8093690023
:1010C000E89A089580916900440F551F440F551FF9
:1010D000837F842B80936900E99A08951F920F9271
:1010E0000FB60F9211242F933F934F935F936F93FB
:1010F0007F938F939F93AF93BF93EF93FF938091D1
:10110000E8019091E901892B29F0E091E801F09143
:10111000E9010995FF91EF91BF91AF919F918F9157
:101120007F916F915F914F913F912F910F900FBEE3
:101130000F901F9018951F920F920FB60F921124C7
:101140002F933F934F935F936F937F938F939F93CF
:10115000AF93BF93EF93FF938091EA019091EB01DE
:10116000892B29F0E091EA01F091EB010995FF91BB
:10117000EF91BF91AF919F918F917F916F915F910F
:101180004F913F912F910F900FBE0F901F90189588
:101190001F920F920FB60F9211242F933F938F93AC
:1011A0009F93AF93BF938091F0019091F101A09133
:1011B000F201B091F3013091F4010196A11DB11D2E
:1011C000232F2D5F2D3720F02D570196A11DB11D26
:1011D0002093F4018093F0019093F101A093F20128
:1011E000B093F3018091EC019091ED01A091EE019B
:1011F000B091EF010196A11DB11D8093EC01909378
:10120000ED01A093EE01B093EF01BF91AF919F91DB
:101210008F913F912F910F900FBE0F901F901895B7
:101220008FB7F8942091F0013091F1014091F201D3
:101230005091F3018FBFB901CA0108959B01AC0120
:101240007FB7F8948091EC019091ED01A091EE01AF
:10125000B091EF0166B5A89B05C06F3F19F00196EC
:10126000A11DB11D7FBFBA2FA92F982F8827860FE8
:10127000911DA11DB11D62E0880F991FAA1FBB1F00
:101280006A95D1F7BC012DC0FFB7F8948091EC01AD
:101290009091ED01A091EE01B091EF01E6B5A89B10
:1012A00005C0EF3F19F00196A11DB11DFFBFBA2F78
:1012B000A92F982F88278E0F911DA11DB11DE2E047
:1012C000880F991FAA1FBB1FEA95D1F7861B970BA2
:1012D000885E9340C8F221503040404050406851F1
:1012E0007C4F211531054105510571F6089501978F
:1012F00039F0880F991F880F991F02970197F1F70E
:101300000895789484B5826084BD84B5816084BD7D
:1013100085B5826085BD85B5816085BDEEE6F0E06E
:10132000808181608083E1E8F0E0108280818260CA
:101330008083808181608083E0E8F0E0808181604B
:101340008083E1EBF0E0808184608083E0EBF0E07B
:10135000808181608083E1E9F0E080818260808328
:10136000808181608083E0E9F0E08081816080831A
:10137000E1ECF0E080818460808380818260808302
:10138000808181608083E3ECF0E0808181608083F4
:10139000E0ECF0E0808182608083E2ECF0E080812C
:1013A00081608083EAE7F0E08081846080838081CF
:1013B0008260808380818160808380818068808377
:1013C0000895823108F08251E82FF0E0EE5DFE4F83
:1013D000E49120917B008E2F86958695869590E0EE
:1013E0008170907035E0880F991F3A95E1F72F7D55
:1013F000282B20937B00E770809104018295880F51
:10140000880F807C8E2B80937C0080917A00806492
:1014100080937A0080917A0086FDFCCF209178003D
:1014200040917900942F80E030E0282B392BC901BE
:101430000895CF93DF93482F50E0CA018C509F4FFF
:10144000FC0134914A525F4FFA018491882369F17B
:1014500090E0880F991FFC01E455FF4FA591B491CE
:10146000FC01E654FF4FC591D491662351F42FB788
:10147000F8948C91932F909589238C93888189235C
:101480000BC0623061F42FB7F8948C91932F909534
:1014900089238C938881832B88832FBF06C09FB7B5
:1014A000F8948C91832B8C939FBFDF91CF910895FB
:1014B0008730C1F1883080F48330F9F0843030F423
:1014C000813029F1823009F050C024C08430C9F045
:1014D000863009F04AC022C08A3091F18B3030F456
:1014E000883031F1893009F040C026C08C3091F14C
:1014F0008C3060F18E30C9F533C0809180008F77D9
:1015000003C0809180008F7D80938000089584B512
:101510008F7702C084B58F7D84BD08958091B0001F
:101520008F7703C08091B0008F7D8093B0000895C5
:10153000809190008F7707C0809190008F7D03C0CD
:1015400080919000877F8093900008958091C000E3
:101550008F7703C08091C0008F7D8093C000089575
:101560008091C200877F8093C20008950F931F93DC
:10157000482F50E0CA018E5E9E4FFC012491CA01A3
:101580008C509F4FFC0104914A525F4FFA01149115
:10159000112319F420E030E015C0222319F0822F26
:1015A0000E94580A812F90E0880F991F88539F4FFF
:1015B000FC01A591B4918C9120E030E0802311F0E2
:1015C00021E030E0C9011F910F910895FC01918144
:1015D0008081813A31F4913089F080E0933089F450
:1015E0000DC0813269F49B3021F482818093050122
:1015F00005C09A3029F482818093060181E0089524
:1016000080E008950895EF92FF920F931F938C014D
:10161000E62EDC01ED91FC910480F581E02D099529
:10162000F82ED801ED91FC910680F781E02DC801DC
:101630006E2D09958F2D90E01F910F91FF90EF90E7
:101640000895DF93CF93CDB7DEB727970FB6F89401
:10165000DEBF0FBECDBF20E030E040E050E060E0F4
:1016600070E080E090E027960FB6F894DEBF0FBEE2
:10167000CDBFCF91DF910895EF92FF920F931F930B
:10168000DF93CF930F92CDB7DEB789838B017A01B9
:1016900084E0BE016F5F7F4F41E050E00E94600E2A
:1016A00084E4B801A7010E94600E0F90CF91DF91F2
:1016B0001F910F91FF90EF90089583E043E150E078
:1016C0000E943C0B08950F931F93DF93CF93CDB7E8
:1016D000DEB727970FB6F894DEBF0FBECDBFDC0193
:1016E000702F09831A83F22F2B83E32F3C83342F2F
:1016F0004D83252F5E83962F6F83612F62956695AC
:1017000066956170412F429546954170512F551F46
:101710005527551FF170022F192F272F21708C91FB
:101720008C7F972F9270822B892B837F972F9870B5
:101730007470872B892B8C9380FF05C08FEF1B96CD
:101740008C931B9703C01B961C921B978C9181FF57
:1017500005C08FEF1C968C931C9703C01C961C929F
:101760001C978C9182FF05C08FEF1D968C931D975F
:1017700003C01D961C921D978C9183FF05C08FEFAF
:101780001E968C931E9703C01E961C921E9788E08F
:1017900012968C931297613071F4413011F487E006
:1017A0001DC0513021F412965C9312971AC0129604
:1017B0001C92129716C0F13051F4413011F485E0BB
:1017C0000DC0513011F483E009C084E007C04130FE
:1017D00011F486E003C0513021F482E012968C931C
:1017E00012971396EC93139714963C9314971596AF
:1017F0000C93159716961C931697CD01BD010E9468
:101800005D0B27960FB6F894DEBF0FBECDBFCF910C
:10181000DF911F910F910895EF92FF920F931F9305
:10182000DF93CF93CDB7DEB727970FB6F894DEBF1F
:101830000FBECDBFE02E0983F12E1A832B833C838C
:101840004D835E836F8387010E94630B27960FB6DB
:10185000F894DEBF0FBECDBFCF91DF911F910F91E6
:10186000FF90EF9008950F931F93DF93CF93CDB721
:10187000DEB72E970FB6F894DEBF0FBECDBF8C013A
:101880000E94210B288739874A875B876C877D8771
:101890008E87DE011196FE01389687E001900D9249
:1018A0008150E1F7C80109811A812B813C814D816A
:1018B0005E816F810E94630B2E960FB6F894DEBF97
:1018C0000FBECDBFCF91DF911F910F910895109260
:1018D000F8011092F70183E191E09093F601809373
:1018E000F50181E092E00E94330C089582E048E027
:1018F00050E00E943C0B0895FC011682178210866E
:1019000011861286138614823496BF010E94760CCB
:101910000895DC01683810F0685829C0E62FF0E01F
:1019200067FF13C0E058F04081E090E002C0880FEC
:10193000991FEA95E2F7809514962C911497282325
:1019400014962C93149760E012C0EC50FE4F6491F3
:10195000662319F420E030E01DC067FF08C014962C
:101960008C9114978D7F14968C9314976F77FD014B
:1019700090E0662321F08681861709F416829F5F26
:1019800031969630B1F7CD011496BD010E94760CC8
:1019900021E030E0C9010895CF93DF93DC0168387E
:1019A00010F0685825C0E62FF0E067FF12C0E0583D
:1019B000F04081E090E002C0880F991FEA95E2F7BD
:1019C00014962C911497282B14962C93149760E05E
:1019D0000FC0EC50FE4F64916623D9F167FF08C039
:1019E00014968C911497826014968C9314976F7749
:1019F00016968C9116978617A9F117968C911797C2
:101A0000861781F118968C911897861759F11996B7
:101A10008C911997861731F11A968C911A9786171F
:101A200009F11B968C911B978617E1F0ED01E0E020
:101A3000F0E09E2F8E81882321F4EA0FFB1F66833E
:101A400006C09F5F31962196E630F10591F79630FA
:101A500049F481E090E013969C938E93129720E0D6
:101A600030E007C0CD011496BD010E94760C21E044
:101A700030E0C901DF91CF91089580E86EE271E016
:101A80004DEA50E00E94DB0D0895FC0180818F5FDC
:101A9000808380E86BED71E049E150E00E94DB0D4E
:101AA0000895CF93DF930E9481098CE192E00E9418
:101AB000420E0E943207C0E0D0E00E946D052097E0
:101AC000E1F30E940000F9CFCF92DF92EF92FF92F4
:101AD0000F931F93CF93DF937C016B018A01C0E0CA
:101AE000D0E00FC0D6016D916D01D701ED91FC9151
:101AF0000190F081E02DC7010995C80FD91F015051
:101B000010400115110571F7CE01DF91CF911F91A2
:101B10000F91FF90EF90DF90CF900895282F809144
:101B200016028823C1F057FF1AC015C02898909359
:101B300015028091F1008193E217F307B9F741157F
:101B4000510539F08091F200882319F48BE68093D7
:101B5000E800AFBF02C04FEF5FEFCA010895AFB713
:101B6000F89427702093E9008091F200282F30E04C
:101B7000241735070CF4A901FB019B01240F311D2B
:101B800094E6DACFDF93CF930F92CDB7DEB7BE01E5
:101B90006F5F7F4F41E050E00E948E0D019719F07A
:101BA0002FEF3FEF03C08981282F30E0C9010F904C
:101BB000CF91DF910895FF920F931F93F82E142F6A
:101BC000052F4091190250911A02212F302FC9017F
:101BD000DC01FB016EEF29C0F7FE02C0949101C049
:101BE0009081209117023091180224173507ACF428
:101BF0008091E8008570E1F38091E80082FF03C0E6
:101C00002FEF3FEF17C09093F100C90101968F733A
:101C10009070892B11F46093E8002F5F3F4F309351
:101C2000180220931702119731961097A9F6812F69
:101C3000902F9C01C9011F910F91FF9008959C0165
:101C40008091E80082FFFCCFF901260F311D03C00F
:101C50008091F1008193E217F307D1F7289884E689
:101C6000809315028BEF8093E800CB010895809359
:101C7000E9008091F200882319F08AE38093E8005C
:101C8000089508951092160281E08093D70080EAAB
:101C90008093D80082E189BD09B400FEFDCF61E0E8
:101CA00070E080E090E00E941E0980E98093D800F7
:101CB0008CE08093E2001092E000559A209A0895FB
:101CC0005F926F927F928F929F92AF92BF92CF92CC
:101CD000DF92EF92FF920F931F93CF93DF93E82E43
:101CE000842E752E80911602882371F18B01242F8A
:101CF000352FC901EC017AEFF72E67E0962E9E2072
:101D000050E4552E8E2D90E040E2A42EB12CA82256
:101D1000B9223AE3632E20E4C22ED12CC822D92264
:101D200058C09FB7F8949092E9008091E80085FD33
:101D300002C020E004C08091F200252D281B9FBF27
:101D4000222361F4FA9419F42FEF3FEF4DC061E0C4
:101D500070E080E090E00E941E093BC0822F90E07E
:101D6000C817D9070CF42C2FC21BD1094FB7F89410
:101D70009092E900A114B10421F406C01092F10080
:101D800021502223D9F719C0E7FC03C0F801922F94
:101D900010C0C801322F06C0FC010196E491E09307
:101DA000F10031503323C1F706C081918093F100D7
:101DB00091509923D1F7020F111D8091E80085FF02
:101DC00005C0209729F4C114D10411F06092E800F5
:101DD0004FBF209709F0A5CF5D9884E68093140249
:101DE000282D372DC9019C01C901DF91CF911F9189
:101DF0000F91FF90EF90DF90CF90BF90AF909F90AA
:101E00008F907F906F905F9008951F920F920FB602
:101E10000F9211241F932F933F934F935F936F93D0
:101E20007F938F939F93AF93BF93EF93FF93809193
:101E3000E1001092E100982F83FF0FC01092E9009B
:101E400081E08093EB001092EC0082E38093ED0040
:101E50001092160288E08093F00092FF36C083E073
:101E60008093E9008091F200882349F08AE380930F
:101E7000E80005C081E692E00E94AF1101C012E0C7
:101E80009FB7F8941093E9008091F2009FBF8823D8
:101E900089F780911402882351F0809114028150B7
:101EA0008093140280911402882309F45D9A809132
:101EB0001502882351F080911502815080931502FC
:101EC00080911502882309F4289AFF91EF91BF9120
:101ED000AF919F918F917F916F915F914F913F91C2
:101EE0002F911F910F900FBE0F901F9018950F9379
:101EF0001F93DF93CF930F92CDB7DEB719828E0178
:101F00000F5F1F4FC8010E94CE11C8010E94450DEE
:101F1000898190E00F90CF91DF911F910F910895EB
:101F20001F920F920FB60F921124EF92FF921F9300
:101F30002F933F934F935F936F937F938F939F93D1
:101F4000AF93BF93EF93FF93DF93CF93CDB7DEB7FC
:101F50006197DEBFCDBF1092E9008091E80083FF5A
:101F60000FC1FE0131969E01275F3F4F03C0809154
:101F7000F1008193E217F307D1F7289884E6809364
:101F8000150282EF8093E800998197FF05C0809148
:101F9000E80080FFFCCF03C08EEF8093E800292F7C
:101FA00030E0C90180769070892B09F0C2C08A8127
:101FB000882329F41092F1001092F100D6C08130EC
:101FC00009F4D3C0833009F4D0C0853049F480913E
:101FD000E80080FFFCCF8B8180688093E300C5C060
:101FE000863009F07CC01C81EF80F8841230C1F586
:101FF0001092E900109218021092170210921A0221
:10200000109219020E94770F99E0FE013996DF01C4
:10201000292F1D922A95E9F799871A8791E09E87C3
:1020200090E8988B9AEF998B2091170230911802C3
:10203000275F3F4F3C872B878D871092E9001092D6
:10204000180210921702F0921A02E092190280E030
:10205000BF0149E050E00E94DB0D0E94770F85C070
:102060001092E9001092180210921702F0921A02D0
:10207000E0921902123241F482E290E00E943D0D9A
:10208000892B09F476C071C0113079F488E0E81624
:10209000F10419F481E080931B0280911B028823D4
:1020A00009F06BC0EAEBF2E013C0133009F061C035
:1020B0008B81882319F4E4E7F2E00AC0823019F436
:1020C000E8E7F2E005C0813009F053C0ECE9F2E046
:1020D000449180E8BF0150E00E94DB0D46C087308C
:1020E00009F447C0883021F481E08093F1003DC0BD
:1020F0008930D9F523703070232BD9F5EFEDF2E05C
:1021000091E031E026E39093E9003093EB00849175
:102110008093EC002093ED009F5F3196953099F706
:102120008EE78093EA001092EA008B81809316027A
:102130001CC08F8198851092E900109218021092AD
:10214000170290931A02809319028D81882329F433
:10215000CE0101960E94DA1106C0823051F4CE0100
:1021600001960E94E60A882321F08EEF8093E80012
:1021700007C081E28093EB0003C0ECECF2E0A8CF53
:102180006196DEBFCDBFCF91DF91FF91EF91BF91FF
:10219000AF919F918F917F916F915F914F913F91FF
:1021A0002F911F91FF90EF900F900FBE0F901F90F7
:1021B00018952F923F924F925F926F927F928F92DB
:1021C0009F92AF92BF92CF92DF92EF92FF920F93C6
:1021D0001F93DF93CF93CDB7DEB73B014C011901BD
:1021E0002A016D897E898F89988D6A197B098C09EE
:1021F0009D09621A730A840A950AA40193010E9438
:102200005213E218F30804091509A80197010E9466
:10221000A6132A0D3B1D4C1D5D1DB901CA01CF91AE
:10222000DF911F910F91FF90EF90DF90CF90BF90C3
:10223000AF909F908F907F906F905F904F903F9066
:102240002F90089520915D0230915E0280915F028F
:1022500090916002281B390B2F733070C9010895CB
:1022600020915D0230915E0280915F029091600248
:102270002817390719F42FEF3FEF09C0E0915F02EB
:10228000F0916002E35EFD4F8081282F30E0C901AC
:10229000089520915D0230915E0280915F029091DD
:1022A00060022817390719F42FEF3FEF13C0E091B0
:1022B0005F02F0916002E35EFD4F208180915F023A
:1022C0009091600201968F7390709093600280935A
:1022D0005F0230E0C9010895109264021092630217
:1022E00088EE93E0A0E0B0E08093650290936602F0
:1022F000A0936702B093680281E291E0909362023A
:102300008093610208950F931F93DF93CF930F92F1
:10231000CDB7DEB78C01698380910E01882369F007
:1023200083E0BE016F5F7F4F41E050E00E94600E8E
:102330001816190614F49C0107C081E090E0F8011A
:102340009383828320E030E0C9010F90CF91DF9129
:102350001F910F91089583E00E94370E089582E047
:102360000E94C20D482F20915D0230915E022F5FC6
:102370003F4F2F73307080915F0290916002281759
:10238000390759F0E0915D02F0915E02E35EFD4F86
:10239000408330935E0220935D020895FC018081AA
:1023A0008E5F808380E863EE72E042E450E00E943A
:1023B000DB0D0895FC0181819081913A59F48132BD
:1023C00009F04CC080E067E071E047E050E00E9417
:1023D000DB0D42C0913209F041C0803239F487E010
:1023E00091E067E070E00E941F0E36C0823209F073
:1023F00035C0828180930E01809107019091080180
:10240000A0910901B0910A01805B9440A040B040C6
:1024100019F580910E0180FD12C087E797E7909330
:102420000108809300082BE088E190E00FB6F89453
:10243000A895809360000FBE209360000DC088E1D6
:102440000FB6F89480936000109260000FBEA895BC
:10245000109201081092000881E0089580E008952C
:1024600004D06894B111B5C0089598D088F09F57F2
:1024700090F0B92F9927B751A0F0D1F0660F771FD0
:10248000881F991F1AF0BA95C9F712C0B13081F0B0
:102490009FD0B1E008959CC0672F782F8827B85F40
:1024A00039F0B93FCCF3869577956795B395D9F711
:1024B0003EF490958095709561957F4F8F4F9F4F1B
:1024C0000895E89409C097FB3EF490958095709527
:1024D00061957F4F8F4F9F4F9923A9F0F92F96E970
:1024E000BB279395F695879577956795B795F111E5
:1024F000F8CFFAF4BB0F11F460FF1BC06F5F7F4F82
:102500008F4F9F4F16C0882311F096E911C0772393
:1025100021F09EE8872F762F05C0662371F096E89C
:10252000862F70E060E02AF09A95660F771F881F6B
:10253000DAF7880F9695879597F9089597F99F6729
:1025400080E870E060E008959FEF80EC089500243B
:102550000A941616170618060906089500240A9408
:1025600012161306140605060895092E0394000C8E
:1025700011F4882352F0BB0F40F4BF2B11F460FF1D
:1025800004C06F5F7F4F8F4F9F4F089557FD905846
:10259000440F551F59F05F3F71F04795880F97FB27
:1025A000991F61F09F3F79F08795089512161306E1
:1025B0001406551FF2CF4695F1DF08C01616170610
:1025C0001806991FF1CF8695710561050894089545
:1025D000E894BB2766277727CB0197F908950BD09E
:1025E000C4CFB5DF28F0BADF18F0952309F0A6CFE5
:1025F000ABCF1124EECFCADFA0F3959FD1F3950F97
:1026000050E0551F629FF001729FBB27F00DB11D76
:10261000639FAA27F00DB11DAA1F649F6627B00D06
:10262000A11D661F829F2227B00DA11D621F739FEF
:10263000B00DA11D621F839FA00D611D221F749FFD
:102640003327A00D611D231F849F600D211D822F44
:10265000762F6A2F11249F5750408AF0E1F088238B
:102660004AF0EE0FFF1FBB1F661F771F881F915098
:102670005040A9F79E3F510570F060CFAACF5F3F51
:10268000ECF3983EDCF3869577956795B795F795CB
:10269000E7959F5FC1F7FE2B880F911D9695879553
:1026A00097F90895629FD001739FF001829FE00D1A
:1026B000F11D649FE00DF11D929FF00D839FF00DC1
:1026C000749FF00D659FF00D9927729FB00DE11D6D
:1026D000F91F639FB00DE11DF91FBD01CF0111244A
:1026E000089597FB092E07260AD077FD04D049D01C
:1026F00006D000201AF4709561957F4F0895F6F783
:10270000909581959F4F0895A1E21A2EAA1BBB1B9D
:10271000FD010DC0AA1FBB1FEE1FFF1FA217B307AD
:10272000E407F50720F0A21BB30BE40BF50B661FC3
:10273000771F881F991F1A9469F760957095809587
:1027400090959B01AC01BD01CF01089597FB092E27
:1027500005260ED057FD04D0D7DF0AD0001C38F470
:1027600050954095309521953F4F4F4F5F4F0895BD
:10277000F6F790958095709561957F4F8F4F9F4F9D
:102780000895AA1BBB1B51E107C0AA1FBB1FA617B8
:10279000B70710F0A61BB70B881F991F5A95A9F70A
:1027A00080959095BC01CD010895EE0FFF1F059017
:0A27B000F491E02D0994F894FFCF96
:1027BA001E00640001010100E100000000000000A9
:1027CA00000000030B640DCC0C890C7C0C0000008B
:1027DA00008311640D221149113011AB11AF1100A0
:00000001FF
