:100000000C9497010C9471080C949E080C94BF01F9
:100010000C94BF010C94BF010C94BF010C94BF0160
:100020000C94BF010C94BF010C94080F0C94930F17
:100030000C94BF010C94BF010C94BF010C94BF0140
:100040000C94BF010C94BF010C94BF010C94BF0130
:100050000C94BF010C94BF010C94BF010C94CB080D
:100060000C94BF010C94BF010C94BF010C94BF0110
:100070000C94BF010C94BF010C94BF010C94BF0100
:100080000C94BF010C94BF010C94BF010C94BF01F0
:100090000C94BF010C94BF010C94BF010C94BF01E0
:1000A0000C94BF010C94BF010C94BF010000000030
:1000B000240027002A002D00300000000000250049
:1000C00028002B002E003100000000002300260035
:1000D00029002C002F000404040404030405020278
:1000E00002020403020202020606060606060404D1
:1000F00002020204040802011040804010204080E7
:10010000408008020401804020100201108010206D
:1001100040400000000200080E0000030401000B34
:100120000000070605040100080A0B0C0D09050173
:100130000906A1018502050719E029E71500250137
:10014000750195088102950175088103950675086A
:10015000150025650507190029658100C0050109FD
:1001600005A101850315002501350045017501959F
:100170000D05091901290481029503810105012555
:100180000046000075049501650009008142650084
:100190009501810126FF0046FF00093009317508ED
:1001A00095028102267F00467F00093209357508D5
:1001B000950281020600FF0920092109220923096D
:1001C0002409250926092709280929092A092B951F
:1001D0000C81020A21269508B102C009040200011F
:1001E0000300000009210101000122AD0007058480
:1001F0000340000100000000000000002A2B28003E
:1002000000000000000000000000000000000000EE
:10021000000000002C9EB4A0A1A2A434A6A7A5AE05
:10022000362D3738271E1F20212223242526B333BD
:10023000B62EB7B89F8485868788898A8B8C8D8EE9
:100240008F909192939495969798999A9B9C9D2FB5
:100250003130A3AD350405060708090A0B0C0D0E55
:100260000F101112131415161718191A1B1C1DAF95
:10027000B1B0B500040309042403500049004E0046
:10028000630061006200200043006F006E00740094
:1002900072006F006C006C00650072001E037A0033
:1002A00065006200730062006F006100720064000C
:1002B00073002E0063006F006D0012010002000049
:1002C0000040A020B24110420102000112010002D0
:1002D00002000040A020B241A0200102000100C1A4
:1002E0008081C1080B000202020100090400000124
:1002F000020200000524001001052401010104246C
:1003000002060524060001070581031000400904C8
:100310000100020A00000007050202400000070574
:1003200083024000000009036A0C440E6F1111247F
:100330001FBECFEFDAE0DEBFCDBF11E0A0E0B1E03D
:10034000E0ECF7E202C005900D92A033B107D9F7B7
:1003500012E0A0E3B1E001C01D92A036B107E1F7C1
:1003600013E0CEE2D3E004C02297FE010E94DA132C
:10037000C632D107C9F70E94540D0C94DE130C94B9
:100380000000A091D101B091D201ED91FD91808149
:10039000ED91FD919081ED91FD916C9163708E23B3
:1003A00009F064609F2309F06860E1EEF1E0E60F78
:1003B000F11D659565956D936D917D918D919D91E3
:1003C000099423C01AC012C016C010C01EC009C0B4
:1003D00014C013C006C019C009C00DC007C00DC0AD
:1003E00014C062507040804090400BC0615070401B
:1003F0008040904006C06E5F01C06F5F7F4F8F4F9F
:100400009F4F9E938E937E936E930895A091D301F8
:10041000B091D401ED91FD918081ED91FD9190819C
:10042000ED91FD916C9163708E2309F064609F23C0
:1004300009F06860E6E2F2E0E60FF11D659565956A
:100440006D936D917D918D919D91099423C01AC0FA
:1004500012C016C010C01EC009C014C013C006C010
:1004600019C009C00DC007C00DC014C06250704053
:10047000804090400BC0615070408040904006C06A
:100480006E5F01C06F5F7F4F8F4F9F4F9E938E9324
:100490007E936E930895A091D501B091D601ED9110
:1004A000FD918081ED91FD919081ED91FD916C9197
:1004B00063708E2309F064609F2309F06860EBE6A7
:1004C000F2E0E60FF11D659565956D936D917D9157
:1004D0008D919D91099423C01AC012C016C010C0FE
:1004E0001EC009C014C013C006C019C009C00DC089
:1004F00007C00DC014C062507040804090400BC0D7
:10050000615070408040904006C06E5F01C06F5FD8
:100510007F4F8F4F9F4F9E938E937E936E93089540
:10052000A091D701B091D801ED91FD918081ED911D
:10053000FD919081ED91FD916C9163708E2309F096
:1005400064609F2309F06860E0EBF2E0E60FF11DC4
:10055000659565956D936D917D918D919D910994B2
:1005600023C01AC012C016C010C01EC009C014C0DB
:1005700013C006C019C009C00DC007C00DC014C00B
:1005800062507040804090400BC06150704080408D
:10059000904006C06E5F01C06F5F7F4F8F4F9F4FCF
:1005A0009E938E937E936E930895813029F18130CE
:1005B000B0F0823061F0833011F080E008957093E4
:1005C000D2016093D10180E061EC71E00FC07093C3
:1005D000D4016093D30181E066E072E007C07093BC
:1005E000D6016093D50182E06BE472E041E050E017
:1005F0000E944E0881E008957093D8016093D7015E
:1006000083E060E972E041E050E00E944E0881E042
:1006100008951F9380E391E064E025E030E040E03E
:1006200050E00E942F088FE391E065E025E030E084
:1006300040E050E00E942F088EE491E066E025E063
:1006400030E040E050E00E942F088DE591E067E047
:1006500025E030E040E050E00E942F088CE691E079
:1006600068E025E030E040E050E00E942F088BE792
:1006700091E069E025E030E040E050E00E942F0882
:100680008AE891E060E125E030E040E050E00E943F
:100690002F0882E062E00E941C0A83E062E00E9470
:1006A0001C0A48ED50E0FA018491282F30E0220F17
:1006B000331F28533F4FF9018591949190939A01EC
:1006C0008093990126EF30E0F901849180939D0198
:1006D0004F5F5F4FFA018491E82FF0E0EE0FFF1FAC
:1006E000E853FF4F8591949190939C0180939B01D7
:1006F0002F5F3F4FF901849180939E011092A001DA
:100700001092A1011092A2011092A30180ED97E036
:100710000E947A09E0919901F0919A01208140E0CC
:1007200030E080919D0190E028233923232B09F0AC
:1007300041E0E0919B01F0919C01208130E08091AB
:100740009E0190E028233923232B09F04260409337
:100750009F0182E069E971E00E94D502182F809321
:10076000A40183E069E971E00E94D502180F10939B
:10077000A4011F910895AF92BF92CF92DF92EF92A2
:10078000FF920F931F93DF93CF93CDB7DEB765979B
:100790000FB6F894DEBF0FBECDBF0E94240B2F878B
:1007A000388B498B5A8B6B8B7C8B8D8BDE01119632
:1007B000FE013F9687E001900D928150E1F780E3C2
:1007C00091E00E94F70780E391E00E94BB07882335
:1007D00029F086EE91E061E80E94CF0C80E391E081
:1007E0000E94B307882329F086EE91E061E80E9419
:1007F0008C0C8FE391E00E94F7078FE391E00E9459
:10080000BB07882329F086EE91E065E80E94CF0CB3
:100810008FE391E00E94B307882329F086EE91E0F0
:1008200065E80E948C0C8EE491E00E94F7078EE44C
:1008300091E00E94BB07882329F086EE91E060E8F2
:100840000E94CF0C8EE491E00E94B307882329F028
:1008500086EE91E060E80E948C0C8DE591E00E94AC
:10086000F7078DE591E00E94BB07882329F086EE0B
:1008700091E064E80E94CF0C8DE591E00E94B307FF
:10088000882329F086EE91E064E80E948C0C8CE6C7
:1008900091E00E94F7078CE691E00E94BB07882355
:1008A00029F086EE91E061E30E94CF0C8CE691E0A6
:1008B0000E94B307882329F086EE91E061E30E944D
:1008C0008C0C8BE791E00E94F7078BE791E00E9488
:1008D000BB07882329F086EE91E065E60E94CF0CE5
:1008E0008BE791E00E94B307882329F086EE91E020
:1008F00065E60E948C0C8AE891E00E94F7078AE87E
:1009000091E00E94BB07882329F086EE91E065E321
:100910000E94CF0C8AE891E00E94B307882329F057
:1009200086EE91E065E30E948C0C8EE00E94B90A8D
:100930008C018FE00E94B90A7C0184E10E94B90A0F
:100940006C0185E10E94B90A5C0180E00E94E40923
:100950009093C2018093C10181E00E94E409BC012F
:100960009093CE018093CD014091C1015091C2017D
:100970002091BF013091C001C9010A9684179507E3
:100980002CF0C9010A97481759073CF48091BD0122
:100990009091BE01840F951F06C08091BD0190917A
:1009A000BE01820F931F9093C4018093C3012091D5
:1009B000CB013091CC01C9010A96861797072CF01C
:1009C000C9010A97681779073CF48091C901909191
:1009D000CA01860F971F06C08091C9019091CA0174
:1009E000820F931F9093D0018093CF015091C30148
:1009F0004091CF013091AD012091AF0190E0012BEA
:100A000009F491E089818E7F892B898390E0EF281A
:100A100009F491E0990F89818D7F892B898390E07A
:100A2000CD2809F491E0990F990F89818B7F892B4B
:100A3000898390E0AB2809F491E0990F990F990F01
:100A40008981877F892B89835C834D833E832F83B4
:100A5000DE011896FE01319687E001900D928150DB
:100A6000E1F7288539854A855B856C857D858E858E
:100A700090E065960FB6F894DEBF0FBECDBFCF9164
:100A8000DF911F910F91FF90EF90DF90CF90BF907B
:100A9000AF900895AF92BF92CF92DF92EF92FF9204
:100AA0000F931F93DF93CF93CDB7DEB72E970FB67B
:100AB000F894DEBF0FBECDBF0E94BB0328873987E5
:100AC0004A875B876C877D878E87DE011196FE01E2
:100AD000389687E001900D928150E1F782EF91E026
:100AE00009811A812B813C814D815E816F810E9439
:100AF0000F0C8091A401823008F044C0F894A9E959
:100B0000B1E0ED91FD918081ED91FD919081ED91AC
:100B1000FD916C9163708E2309F064609F2309F04E
:100B20006860EDE9F5E0E60FF11D659565956D935B
:100B30006D917D918D919D91099423C01AC012C031
:100B400016C010C01EC009C014C013C006C019C012
:100B500009C00DC007C00DC014C062507040804075
:100B600090400BC0615070408040904006C06E5F66
:100B700001C06F5F7F4F8F4F9F4F9E938E937E93E9
:100B80006E9301C0F89478948091A0019091A10196
:100B90009093AA018093A90189529A4094F088E227
:100BA0009AE09093AA018093A90188E29AE0A0E0DC
:100BB000B0E08093A5019093A601A093A701B09304
:100BC000A8018091A9019091AA0180579E4F94F4A9
:100BD00080E79EEF9093AA018093A90180E79EEFA2
:100BE000AFEFBFEF8093A5019093A601A093A7015B
:100BF000B093A8018091A9019091AA01AA2797FD1D
:100C0000A095BA2F2091A5013091A6014091A7018E
:100C10005091A80182179307A407B50709F467C08C
:100C20000E9413096093B1017093B2018093B301E4
:100C30009093B4018091A9019091AA019093AC0185
:100C40008093AB018AE00E94B90A892BA1F48091BC
:100C5000AB019091AC0197FF0EC086EE91E060EB86
:100C60000E94CF0C86EE91E060EB0E948C0C1092FB
:100C7000AA011092A9012091AB013091AC01C901E8
:100C8000019788529A4020F43093AA012093A90139
:100C9000FFEF2C3E3F070CF053C0B901882777FDCA
:100CA0008095982F0E94661220E030E040EF50ECD3
:100CB0000E94F2120E9433127093AA016093A9015C
:100CC00060577E4F34F480E79EEF9093AA018093A3
:100CD000A9018091A9019091AA0189529A4084F1B9
:100CE00088E29AE09093AA018093A90129C00E940A
:100CF00013092091B1013091B2014091B30150919B
:100D0000B401621B730B840B950B615D77408040CF
:100D10009040B0F01092AA011092A9011092A50182
:100D20001092A6011092A7011092A801F8941092B7
:100D3000A0011092A1011092A2011092A301789437
:100D40006091A9017091AA01882777FD8095982F5D
:100D50006093A5017093A6018093A7019093A801C9
:100D600000D000D02FE730E040E050E0EDB7FEB714
:100D7000218332834383548320E73EEF4FEF5FEFBD
:100D8000E8E2EE2EEAE0FE2E012D112DAA24BB246E
:100D900065010E94DC107093AE016093AD01709309
:100DA000B0016093AF010F900F900F900F902E96AF
:100DB0000FB6F894DEBF0FBECDBFCF91DF911F916C
:100DC0000F91FF90EF90DF90CF90BF90AF9008957C
:100DD00080E062E00E941C0A81E062E00E941C0A3E
:100DE00082E062E00E941C0A83E062E00E941C0A2A
:100DF00084E062E00E941C0A85E062E00E941C0A16
:100E000086E062E00E941C0A87E062E00E941C0A01
:100E100088E062E00E941C0A89E062E00E941C0AED
:100E20008AE062E00E941C0A8EE062E00E941C0AD6
:100E30008FE062E00E941C0A80E162E00E941C0ACE
:100E400082E162E00E941C0A83E162E00E941C0AC7
:100E500084E162E00E941C0A85E162E00E941C0AB3
:100E600086EE91E00E94050B08950E94E8060FC0EF
:100E700080E00E94E40981E00E94E4098091B701CA
:100E80009091B80101969093B8018093B701209199
:100E9000B7013091B80180910201909103012817A8
:100EA000390734F32BC080E00E94E4099093BA0123
:100EB0008093B9012091BB013091BC01280F391FEB
:100EC0003093BC012093BB0181E00E94E409909320
:100ED000C6018093C5012091C7013091C801280F38
:100EE000391F3093C8012093C7018091B5019091BB
:100EF000B60101969093B6018093B5012091B5019A
:100F00003091B601809100019091010128173907B5
:100F100054F28091BB019091BC016EE170E00E949F
:100F200074139B017093C0016093BF018091C7014E
:100F30009091C8016EE170E00E947413AB01709350
:100F4000CC016093CB018FE790E0BC01621B730B77
:100F50007093BE016093BD01841B950B9093CA01F1
:100F60008093C9010895FC018685882319F0848542
:100F7000811181E00895FC018685882311F420E029
:100F800005C020E08485882309F421E0822F08959C
:100F90001F93CF93DF93EC018D850E94B90A182F20
:100FA0008C858117E9F00E941309288139814A81D3
:100FB0005B81621B730B840B950B2C813D814E81F1
:100FC0005F81621773078407950750F00E94130929
:100FD000688379838A839B831C8721E030E002C089
:100FE00020E030E0C901DF91CF911F910895CF93A8
:100FF000DF93EC010E94C807892B09F58885998544
:10100000AA85BB850097A105B10529F10E941309A6
:10101000288139814A815B81621B730B840B950B9C
:10102000288539854A855B8562177307840795078C
:1010300090F00E941309688379838A839B831886C2
:1010400019861A861B8681E08E8721E030E0C9016F
:10105000DF91CF9108951E8620E030E0F8CFFF9217
:101060000F931F938C01F62EFC0124833583468356
:10107000578310861186128613860E941309F80181
:1010800060837183828393838F2D0E94B90AF80154
:101090008487F5861F910F91FF900895823000F5A7
:1010A000E82FF0E0EE0FFF1FE752FE4F71836083E1
:1010B000882319F08130A1F408C0809169008C7FE9
:1010C000842B80936900E89A089580916900440F09
:1010D000551F440F551F837F842B80936900E99A25
:1010E00008951F920F920FB60F9211242F933F93E2
:1010F0004F935F936F937F938F939F93AF93BF9320
:10110000EF93FF938091D9019091DA01892B29F017
:10111000E091D901F091DA010995FF91EF91BF912A
:10112000AF919F918F917F916F915F914F913F917F
:101130002F910F900FBE0F901F9018951F920F9236
:101140000FB60F9211242F933F934F935F936F939A
:101150007F938F939F93AF93BF93EF93FF93809170
:10116000DB019091DC01892B29F0E091DB01F0910A
:10117000DC010995FF91EF91BF91AF919F918F9104
:101180007F916F915F914F913F912F910F900FBE83
:101190000F901F9018951F920F920FB60F92112467
:1011A0002F933F938F939F93AF93BF938091E101D0
:1011B0009091E201A091E301B091E4013091E50149
:1011C0000196A11DB11D232F2D5F2D3720F02D5726
:1011D0000196A11DB11D2093E5018093E10190933B
:1011E000E201A093E301B093E4018091DD019091CD
:1011F000DE01A091DF01B091E0010196A11DB11DBA
:101200008093DD019093DE01A093DF01B093E001B4
:10121000BF91AF919F918F913F912F910F900FBEF2
:101220000F901F9018958FB7F8942091E10130919D
:10123000E2014091E3015091E4018FBFB901CA017D
:1012400008959B01AC017FB7F8948091DD019091E6
:10125000DE01A091DF01B091E00166B5A89B05C059
:101260006F3F19F00196A11DB11D7FBFBA2FA92FA5
:10127000982F8827860F911DA11DB11D62E0880F50
:10128000991FAA1FBB1F6A95D1F7BC012DC0FFB7DC
:10129000F8948091DD019091DE01A091DF01B09181
:1012A000E001E6B5A89B05C0EF3F19F00196A11D2E
:1012B000B11DFFBFBA2FA92F982F88278E0F911D20
:1012C000A11DB11DE2E0880F991FAA1FBB1FEA955F
:1012D000D1F7861B970B885E9340C8F221503040AF
:1012E0004040504068517C4F211531054105510562
:1012F00071F60895019739F0880F991F880F991F8B
:1013000002970197F1F70895789484B5826084BDBF
:1013100084B5816084BD85B5826085BD85B58160F9
:1013200085BDEEE6F0E0808181608083E1E8F0E059
:101330001082808182608083808181608083E0E888
:10134000F0E0808181608083E1EBF0E08081846067
:101350008083E0EBF0E0808181608083E1E9F0E070
:10136000808182608083808181608083E0E9F0E019
:10137000808181608083E1ECF0E080818460808303
:10138000808182608083808181608083E3ECF0E0F3
:10139000808181608083E0ECF0E0808182608083E6
:1013A000E2ECF0E0808181608083EAE7F0E0808118
:1013B000846080838081826080838081816080837B
:1013C0008081806880830895823108F08251E82FFF
:1013D000F0E0EE5DFE4FE49120917B008E2F86952C
:1013E0008695869590E08170907035E0880F991F02
:1013F0003A95E1F72F7D282B20937B00E7708091B1
:1014000004018295880F880F807C8E2B80937C004E
:1014100080917A00806480937A0080917A0086FDC2
:10142000FCCF2091780040917900942F80E030E04B
:10143000282B392BC9010895CF93DF93482F50E013
:10144000CA018C509F4FFC0134914A525F4FFA0100
:101450008491882369F190E0880F991FFC01E4557D
:10146000FF4FA591B491FC01E654FF4FC591D49173
:10147000662351F42FB7F8948C91932F909589237C
:101480008C93888189230BC0623061F42FB7F89464
:101490008C91932F909589238C938881832B8883BB
:1014A0002FBF06C09FB7F8948C91832B8C939FBF5E
:1014B000DF91CF9108958730C1F1883080F4833077
:1014C000F9F0843030F4813029F1823009F050C0D5
:1014D00024C08430C9F0863009F04AC022C08A3066
:1014E00091F18B3030F4883031F1893009F040C00F
:1014F00026C08C3091F18C3060F18E30C9F533C04C
:10150000809180008F7703C0809180008F7D8093D1
:101510008000089584B58F7702C084B58F7D84BD27
:1015200008958091B0008F7703C08091B0008F7DC7
:101530008093B0000895809190008F7707C08091CC
:1015400090008F7D03C080919000877F80939000F2
:1015500008958091C0008F7703C08091C0008F7D77
:101560008093C00008958091C200877F8093C2005D
:1015700008950F931F93482F50E0CA018E5E9E4F2F
:10158000FC012491CA018C509F4FFC0104914A52E6
:101590005F4FFA011491112319F420E030E015C0D7
:1015A000222319F0822F0E945B0A812F90E0880F7E
:1015B000991F88539F4FFC01A591B4918C9120E015
:1015C00030E0802311F021E030E0C9011F910F913C
:1015D0000895FC0191818081813A31F4913089F044
:1015E00080E0933089F40DC0813269F49B3021F49E
:1015F00082818093050105C09A3029F4828180930D
:10160000060181E0089580E008950895EF92FF9229
:101610000F931F938C01E62EDC01ED91FC91048069
:10162000F581E02D0995F82ED801ED91FC91068009
:10163000F781E02DC8016E2D09958F2D90E01F9147
:101640000F91FF90EF900895DF93CF93CDB7DEB762
:1016500027970FB6F894DEBF0FBECDBF20E030E075
:1016600040E050E060E070E080E090E027960FB648
:10167000F894DEBF0FBECDBFCF91DF910895EF92FA
:10168000FF920F931F93DF93CF930F92CDB7DEB7E7
:1016900089838B017A0184E0BE016F5F7F4F41E057
:1016A00050E00E94630E84E4B801A7010E94630E1B
:1016B0000F90CF91DF911F910F91FF90EF900895C0
:1016C00083E043E150E00E943F0B08950F931F9386
:1016D000DF93CF93CDB7DEB727970FB6F894DEBF71
:1016E0000FBECDBFDC01702F09831A83F22F2B832D
:1016F000E32F3C83342F4D83252F5E83962F6F83FA
:10170000612F6295669566956170412F4295469569
:101710004170512F551F5527551FF170022F192F5A
:10172000272F21708C918C7F972F9270822B892B81
:10173000837F972F98707470872B892B8C9380FFF1
:1017400005C08FEF1B968C931B9703C01B961C92B2
:101750001B978C9181FF05C08FEF1C968C931C9773
:1017600003C01C961C921C978C9182FF05C08FEFC2
:101770001D968C931D9703C01D961C921D978C91EE
:1017800083FF05C08FEF1E968C931E9703C01E9695
:101790001C921E9788E012968C931297613071F418
:1017A000413011F487E01DC0513021F412965C9352
:1017B00012971AC012961C92129716C0F13051F46B
:1017C000413011F485E00DC0513011F483E009C0BF
:1017D00084E007C0413011F486E003C0513021F4A9
:1017E00082E012968C9312971396EC9313971496AB
:1017F0003C93149715960C93159716961C93169771
:10180000CD01BD010E94600B27960FB6F894DEBF94
:101810000FBECDBFCF91DF911F910F910895EF9231
:10182000FF920F931F93DF93CF93CDB7DEB7279728
:101830000FB6F894DEBF0FBECDBFE02E0983F12EA8
:101840001A832B833C834D835E836F8387010E94C1
:10185000660B27960FB6F894DEBF0FBECDBFCF91B3
:10186000DF911F910F91FF90EF9008950F931F93B9
:10187000DF93CF93CDB7DEB72E970FB6F894DEBFC8
:101880000FBECDBF8C010E94240B288739874A8761
:101890005B876C877D878E87DE011196FE01389607
:1018A00087E001900D928150E1F7C80109811A810A
:1018B0002B813C814D815E816F810E94660B2E964B
:1018C0000FB6F894DEBF0FBECDBFCF91DF911F9151
:1018D0000F9108951092E9011092E80183E191E0DF
:1018E0009093E7018093E60182EF91E00E94360C2D
:1018F000089582E048E050E00E943F0B0895FC010B
:1019000016821782108611861286138614823496E8
:10191000BF010E94790C0895DC01683810F0685806
:1019200029C0E62FF0E067FF13C0E058F04081E0E7
:1019300090E002C0880F991FEA95E2F7809514960F
:101940002C911497282314962C93149760E012C0BE
:10195000EC50FE4F6491662319F420E030E01DC086
:1019600067FF08C014968C9114978D7F14968C9302
:1019700014976F77FD0190E0662321F0868186172A
:1019800009F416829F5F31969630B1F7CD01149617
:10199000BD010E94790C21E030E0C9010895CF9388
:1019A000DF93DC01683810F0685825C0E62FF0E0BE
:1019B00067FF12C0E058F04081E090E002C0880F5D
:1019C000991FEA95E2F714962C911497282B1496F8
:1019D0002C93149760E00FC0EC50FE4F6491662387
:1019E000D9F167FF08C014968C9114978260149601
:1019F0008C9314976F7716968C9116978617A9F18A
:101A000017968C911797861781F118968C911897D5
:101A1000861759F119968C911997861731F11A96F4
:101A20008C911A97861709F11B968C911B97861734
:101A3000E1F0ED01E0E0F0E09E2F8E81882321F4BB
:101A4000EA0FFB1F668306C09F5F31962196E63042
:101A5000F10591F7963049F481E090E013969C935C
:101A60008E93129720E030E007C0CD011496BD019F
:101A70000E94790C21E030E0C901DF91CF910895F7
:101A800080E86EE271E04DEA50E00E94DE0D0895BC
:101A9000FC0180818F5F808380E86BED71E049E11C
:101AA00050E00E94DE0D0895CF93DF930E948409D9
:101AB0008DE092E00E94450E0E943507C0E0D0E024
:101AC0000E944A052097E1F30E940000F9CFCF92CF
:101AD000DF92EF92FF920F931F93CF93DF937C01DE
:101AE0006B018A01C0E0D0E00FC0D6016D916D019D
:101AF000D701ED91FC910190F081E02DC70109958E
:101B0000C80FD91F015010400115110571F7CE0102
:101B1000DF91CF911F910F91FF90EF90DF90CF90C9
:101B20000895282F809107028823C1F057FF1AC01B
:101B300015C02898909306028091F1008193E217D6
:101B4000F307B9F74115510539F08091F200882368
:101B500019F48BE68093E800AFBF02C04FEF5FEF50
:101B6000CA010895AFB7F89427702093E9008091D7
:101B7000F200282F30E0241735070CF4A901FB01EF
:101B80009B01240F311D94E6DACFDF93CF930F92A0
:101B9000CDB7DEB7BE016F5F7F4F41E050E00E94DE
:101BA000910D019719F02FEF3FEF03C08981282F86
:101BB00030E0C9010F90CF91DF910895FF920F930C
:101BC0001F93F82E142F052F40910A0250910B02FB
:101BD000212F302FC901DC01FB016EEF29C0F7FE78
:101BE00002C0949101C090812091080230910902B5
:101BF00024173507ACF48091E8008570E1F38091FB
:101C0000E80082FF03C02FEF3FEF17C09093F10071
:101C1000C90101968F739070892B11F46093E800CD
:101C20002F5F3F4F3093090220930802119731969E
:101C30001097A9F6812F902F9C01C9011F910F9138
:101C4000FF9008959C018091E80082FFFCCFF9018C
:101C5000260F311D03C08091F1008193E217F30735
:101C6000D1F7289884E6809306028BEF8093E800F2
:101C7000CB0108958093E9008091F200882319F048
:101C80008AE38093E800089508951092070281E0A6
:101C90008093D70080EA8093D80082E189BD09B49F
:101CA00000FEFDCF61E070E080E090E00E9421093D
:101CB00080E98093D8008CE08093E2001092E000ED
:101CC000559A209A08955F926F927F928F929F9279
:101CD000AF92BF92CF92DF92EF92FF920F931F933A
:101CE000CF93DF93E82E842E752E809107028823F0
:101CF00071F18B01242F352FC901EC017AEFF72EFA
:101D000067E0962E9E2050E4552E8E2D90E040E206
:101D1000A42EB12CA822B9223AE3632E20E4C22ECD
:101D2000D12CC822D92258C09FB7F8949092E900CC
:101D30008091E80085FD02C020E004C08091F2009F
:101D4000252D281B9FBF222361F4FA9419F42FEF4D
:101D50003FEF4DC061E070E080E090E00E9421091B
:101D60003BC0822F90E0C817D9070CF42C2FC21B60
:101D7000D1094FB7F8949092E900A114B10421F46D
:101D800006C01092F10021502223D9F719C0E7FCB8
:101D900003C0F801922F10C0C801322F06C0FC0109
:101DA0000196E491E093F10031503323C1F706C06E
:101DB00081918093F10091509923D1F7020F111D69
:101DC0008091E80085FF05C0209729F4C114D10453
:101DD00011F06092E8004FBF209709F0A5CF5D9801
:101DE00084E680930502282D372DC9019C01C90185
:101DF000DF91CF911F910F91FF90EF90DF90CF90E7
:101E0000BF90AF909F908F907F906F905F9008955C
:101E10001F920F920FB60F9211241F932F933F938F
:101E20004F935F936F937F938F939F93AF93BF93E2
:101E3000EF93FF938091E1001092E100982F83FFD0
:101E40000FC01092E90081E08093EB001092EC004B
:101E500082E38093ED001092070288E08093F00007
:101E600092FF36C083E08093E9008091F2008823DE
:101E700049F08AE38093E80005C082E592E00E9481
:101E8000B21101C012E09FB7F8941093E90080915D
:101E9000F2009FBF882389F780910502882351F0C3
:101EA000809105028150809305028091050288236C
:101EB00009F45D9A80910602882351F08091060210
:101EC00081508093060280910602882309F4289AA3
:101ED000FF91EF91BF91AF919F918F917F916F9102
:101EE0005F914F913F912F911F910F900FBE0F90D7
:101EF0001F9018950F931F93DF93CF930F92CDB739
:101F0000DEB719828E010F5F1F4FC8010E94D111E9
:101F1000C8010E94480D898190E00F90CF91DF9118
:101F20001F910F9108951F920F920FB60F921124D7
:101F3000EF92FF921F932F933F934F935F936F9373
:101F40007F938F939F93AF93BF93EF93FF93DF9311
:101F5000CF93CDB7DEB76197DEBFCDBF1092E9005A
:101F60008091E80083FF0FC1FE0131969E01275F3B
:101F70003F4F03C08091F1008193E217F307D1F73F
:101F8000289884E68093060282EF8093E800998186
:101F900097FF05C08091E80080FFFCCF03C08EEF63
:101FA0008093E800292F30E0C90180769070892B5A
:101FB00009F0C2C08A81882329F41092F10010929E
:101FC000F100D6C0813009F4D3C0833009F4D0C009
:101FD000853049F48091E80080FFFCCF8B818068D8
:101FE0008093E300C5C0863009F07CC01C81EF807F
:101FF000F8841230C1F51092E90010920902109293
:10200000080210920B0210920A020E947A0F99E0C5
:10201000FE013996DF01292F1D922A95E9F799874C
:102020001A8791E09E8790E8988B9AEF998B209180
:10203000080230910902275F3F4F3C872B878D872D
:102040001092E9001092090210920802F0920B021D
:10205000E0920A0280E0BF0149E050E00E94DE0DFC
:102060000E947A0F85C01092E90010920902109226
:102070000802F0920B02E0920A02123241F482E26C
:1020800090E00E94400D892B09F476C071C0113098
:1020900079F488E0E816F10419F481E080930C02E9
:1020A00080910C02882309F06BC0EAEBF2E013C0C8
:1020B000133009F061C08B81882319F4E4E7F2E062
:1020C0000AC0823019F4E8E7F2E005C0813009F077
:1020D00053C0ECE9F2E0449180E8BF0150E00E9477
:1020E000DE0D46C0873009F447C0883021F481E016
:1020F0008093F1003DC08930D9F523703070232BD7
:10210000D9F5EFEDF2E091E031E026E39093E900BC
:102110003093EB0084918093EC002093ED009F5F5F
:102120003196953099F78EE78093EA001092EA0095
:102130008B81809307021CC08F8198851092E900E3
:10214000109209021092080290930B0280930A02E7
:102150008D81882329F4CE0101960E94DD1106C0ED
:10216000823051F4CE0101960E94E90A882321F0C1
:102170008EEF8093E80007C081E28093EB0003C0FC
:10218000ECECF2E0A8CF6196DEBFCDBFCF91DF913E
:10219000FF91EF91BF91AF919F918F917F916F913F
:1021A0005F914F913F912F911F91FF90EF900F9072
:1021B0000FBE0F901F9018952F923F924F925F92F3
:1021C0006F927F928F929F92AF92BF92CF92DF9247
:1021D000EF92FF920F931F93DF93CF93CDB7DEB7AC
:1021E0003B014C0119012A016D897E898F89988DE7
:1021F0006A197B098C099D09621A730A840A950A77
:10220000A40193010E945513E218F308040915096B
:10221000A80197010E94A9132A0D3B1D4C1D5D1DAD
:10222000B901CA01CF91DF911F910F91FF90EF90FB
:10223000DF90CF90BF90AF909F908F907F906F90E6
:102240005F904F903F902F90089520914E023091D3
:102250004F028091500290915102281B390B2F732D
:102260003070C901089520914E0230914F02809143
:102270005002909151022817390719F42FEF3FEFC0
:1022800009C0E0915002F0915102E25FFD4F808160
:10229000282F30E0C901089520914E0230914F025D
:1022A00080915002909151022817390719F42FEFAD
:1022B0003FEF13C0E0915002F0915102E25FFD4FF9
:1022C0002081809150029091510201968F739070FD
:1022D000909351028093500230E0C901089510920A
:1022E00055021092540288EE93E0A0E0B0E0809393
:1022F000560290935702A0935802B093590281E27C
:1023000091E0909353028093520208950F931F938C
:10231000DF93CF930F92CDB7DEB78C0169838091A5
:102320000E01882369F083E0BE016F5F7F4F41E0BB
:1023300050E00E94630E1816190614F49C0107C0A1
:1023400081E090E0F8019383828320E030E0C901CE
:102350000F90CF91DF911F910F91089583E00E941C
:102360003A0E089582E00E94C50D482F20914E023A
:1023700030914F022F5F3F4F2F733070809150028A
:10238000909151022817390759F0E0914E02F091CF
:102390004F02E25FFD4F408330934F0220934E0285
:1023A0000895FC0180818E5F808380E863EE72E097
:1023B00042E450E00E94DE0D0895FC01818190818D
:1023C000913A59F4813209F04CC080E067E071E045
:1023D00047E050E00E94DE0D42C0913209F041C05A
:1023E000803239F487E091E067E070E00E94220ECD
:1023F00036C0823209F035C0828180930E0180910F
:10240000070190910801A0910901B0910A01805B38
:102410009440A040B04019F580910E0180FD12C09B
:1024200087E797E790930108809300082BE088E105
:1024300090E00FB6F894A895809360000FBE2093AB
:1024400060000DC088E10FB6F89480936000109290
:1024500060000FBEA895109201081092000881E05C
:10246000089580E0089504D06894B111B5C008952E
:1024700098D088F09F5790F0B92F9927B751A0F0C6
:10248000D1F0660F771F881F991F1AF0BA95C9F708
:1024900012C0B13081F09FD0B1E008959CC0672F89
:1024A000782F8827B85F39F0B93FCCF386957795B8
:1024B0006795B395D9F73EF49095809570956195A1
:1024C0007F4F8F4F9F4F0895E89409C097FB3EF4CC
:1024D00090958095709561957F4F8F4F9F4F992371
:1024E000A9F0F92F96E9BB279395F69587957795EF
:1024F0006795B795F111F8CFFAF4BB0F11F460FFAF
:102500001BC06F5F7F4F8F4F9F4F16C0882311F006
:1025100096E911C0772321F09EE8872F762F05C01A
:10252000662371F096E8862F70E060E02AF09A95B5
:10253000660F771F881FDAF7880F9695879597F9AA
:10254000089597F99F6780E870E060E008959FEF35
:1025500080EC089500240A9416161706180609063A
:10256000089500240A941216130614060506089509
:10257000092E0394000C11F4882352F0BB0F40F491
:10258000BF2B11F460FF04C06F5F7F4F8F4F9F4FD1
:10259000089557FD9058440F551F59F05F3F71F053
:1025A0004795880F97FB991F61F09F3F79F08795BA
:1025B0000895121613061406551FF2CF4695F1DF43
:1025C00008C0161617061806991FF1CF86957105D3
:1025D000610508940895E894BB2766277727CB0107
:1025E00097F908950BD0C4CFB5DF28F0BADF18F003
:1025F000952309F0A6CFABCF1124EECFCADFA0F30D
:10260000959FD1F3950F50E0551F629FF001729F87
:10261000BB27F00DB11D639FAA27F00DB11DAA1FA6
:10262000649F6627B00DA11D661F829F2227B00DF3
:10263000A11D621F739FB00DA11D621F839FA00D7E
:10264000611D221F749F3327A00D611D231F849FCE
:10265000600D211D822F762F6A2F11249F57504025
:102660008AF0E1F088234AF0EE0FFF1FBB1F661FC0
:10267000771F881F91505040A9F79E3F510570F079
:1026800060CFAACF5F3FECF3983EDCF38695779559
:102690006795B795F795E7959F5FC1F7FE2B880F74
:1026A000911D9695879597F90895629FD001739F24
:1026B000F001829FE00DF11D649FE00DF11D929FDE
:1026C000F00D839FF00D749FF00D659FF00D99271D
:1026D000729FB00DE11DF91F639FB00DE11DF91F41
:1026E000BD01CF011124089597FB092E07260AD0BA
:1026F00077FD04D049D006D000201AF4709561957A
:102700007F4F0895F6F7909581959F4F0895A1E228
:102710001A2EAA1BBB1BFD010DC0AA1FBB1FEE1F5B
:10272000FF1FA217B307E407F50720F0A21BB30BA6
:10273000E40BF50B661F771F881F991F1A9469F722
:1027400060957095809590959B01AC01BD01CF017E
:10275000089597FB092E05260ED057FD04D0D7DF2C
:102760000AD0001C38F450954095309521953F4F84
:102770004F4F5F4F0895F6F790958095709561954E
:102780007F4F8F4F9F4F0895AA1BBB1B51E107C07E
:10279000AA1FBB1FA617B70710F0A61BB70B881FF1
:1027A000991F5A95A9F780959095BC01CD01089580
:1027B000EE0FFF1F0590F491E02D0994F894FFCFE0
:1027C0001E00640001010100E100000000000000A3
:1027D000000000060B670DCF0C8C0C7F0C00000076
:1027E000008611670D25114C113311AE11B2110085
:00000001FF
